:020000040800F2
:1000000068070020AD010008D53A0008D332000887
:10001000F93900087D1400083D3C0008000000008C
:10002000000000000000000000000000FD3A000891
:10003000ED17000800000000D73A0008FF3A00085A
:10004000C7010008C7010008C7010008C701000870
:10005000C7010008C70100086119000867190008F6
:100060006D19000873190008C7010008C7010008CE
:10007000C7010008C7010008C7010008C701000840
:10008000C7010008C7010008C7010008C701000830
:10009000C7010008C7010008C70100087919000856
:1000A000C7010008C7010008C7010008C701000810
:1000B000493B0008C7010008C7010008C701000844
:1000C000C7010008C7010008C7010008C7010008F0
:1000D000C7010008C7010008C7010008C7010008E0
:1000E000C7010008C7010008C701000800F002F8B6
:1000F00000F04DF80AA090E8000C82448344AAF175
:100100000107DA4501D100F042F8AFF2090EBAE872
:100110000F0013F0010F18BFFB1A43F0010318473B
:100120002445000044450000103A24BF78C878C137
:10013000FAD8520724BF30C830C144BF04680C60ED
:10014000704700000023002400250026103A28BF35
:1001500078C1FBD8520728BF30C148BF0B60704739
:10016000662904F09581642900F0A480732900F0C9
:100170003A84002070471FB500F03AFC04000020CC
:10018000002103F0C5FEE0601FBD10B510BD00F0FA
:100190002FFD1146FFF7EFFF03F09EFD00F04DFD30
:1001A00003B4FFF7F2FF03BC00F090FD094880475D
:1001B00009480047FEE7FEE7FEE7FEE7FEE7FEE749
:1001C000FEE7FEE7FEE7FEE704480549054A064B61
:1001D00070470000453B0008ED0000086801002062
:1001E0006807002068030020680300200FB41CB5D6
:1001F000074B06AA7B4469460090059800F0C9FBAE
:100200000020694600F0D8FB1CBC5DF814FB000020
:10021000C107000070B5044685690068C10601D5B4
:10022000302600E02026C00707D070BDD4E90121A8
:1002300030469047206A401C20626D1EF6D570BD86
:1002400070B5044685690078C00707D170BDD4E950
:10025000012120209047206A401C20626D1EF6D5A7
:1002600070BD70B50C460546012A05D02878800679
:1002700000D5EA69002302E0012305E05B1C9342FC
:1002800002D2E05C0028F9D1A869E618C01AA8617A
:10029000286A184428622846FFF7BCFF04E0D5E925
:1002A000012114F8010B9047B442F8D32846FFF718
:1002B000C7FF70BD2DE9F04106460024106875297E
:1002C000314616A510D0AFF30080002802DA404274
:1002D00013A507E031688A0701D512A502E0490796
:1002E00004D511A5012401E0AFF3008000210A220A
:1002F00006F1240709E0B0FBF2FCB0FBF2F302FBCD
:100300001C00303078541846491C0028F3D123468D
:100310002A463046BDE8F04100F0CEB800000000AB
:100320002D0000002B000000200000002DE9F05FF0
:10033000894604464FF0000ADFF824B1FB44C0F8B8
:1003400020A02046E168884700287DD0252806D0D7
:10035000D4E901219047206A401C2062F1E7002582
:100360005F462046E16888472028064607DB312E95
:1003700005D2B81910F8200C08B10543F1E7A80719
:1003800001D525F00405C4F81CA00027C4F818A066
:100390002A2E09D0304603F066FC38B304EB8708F8
:1003A000303EC8F8186019E059F8041B204604EBE9
:1003B00087029161E1688847012F064618D1E069FC
:1003C000002820DA25F020051DE0D8F8180000EB01
:1003D000800006EB40003038C8F818002046E1687D
:1003E0008847064603F03FFC0028EED1012F0AD0D3
:1003F0002E2E08D12046E16888477F1C0646022F32
:1004000045F02005C4DBA069002803DA404245F02E
:100410000105A061E80701D025F01005A6B1A6F1FD
:100420004100192802D8203645F400654A46314675
:10043000204625604D46FFF793FE60B1012807D0A6
:10044000ED1D25F0070000E007E000F1080978E75E
:1004500005F1040975E730467AE7206ABDE8F09FA8
:100460005C4200004FF0000200B5134694469646E9
:10047000203922BFA0E80C50A0E80C50B1F12001B7
:10048000BFF4F7AF090728BFA0E80C5048BF0CC065
:100490005DF804EB890028BF40F8042B08BF7047C3
:1004A00048BF20F8022B11F0804F18BF00F8012B35
:1004B00070477047704770472DE9F0470D469946E1
:1004C0009246044600F124080168880604D5E069D4
:1004D00021F01001216000E00120A84201DD471B4E
:1004E00000E00027A1697A1902EB0900081AA0614F
:1004F0002078C00602D42046FFF78CFE002608E0D4
:10050000D4E901211AF806009047206A401C761CA5
:1005100020624E45F4DB2078C0060AD52046FFF75E
:1005200079FE06E0D4E9012130209047206A401C82
:100530002062381EA7F10107F4DC07E0D4E90121AD
:1005400018F805009047206A401C2062281EA5F17B
:100550000105F3DC2046FFF773FE2078000602D584
:100560000220BDE8F0870120FBE770472DE9FF4F2F
:100570000C461E464FF0FF378BB0D2E90001DDF884
:1005800060800A908A46C1F30A5505B93D460021AC
:1005900008464FF00000BAF1000F00F4400005DA01
:1005A00000EB80004FF4400101EA50004FEA9059FF
:1005B000B9F1010F00DDB9460A9850EA4A000ED0A1
:1005C00044F61050A5F2FF3545432F14B8F1000F43
:1005D0001ED07542291E1EDDC9F100021CE0B8F1D3
:1005E000010F4FF0000001D0302103E0F24305E09D
:1005F0002154401CB042FBDB304600220021215434
:100600000B99C1F80880C1E900200FB0BDE8F08F58
:10061000BD1B6D1CDEE74A4600DA694206A800F001
:1006200071FA06AB93E8070003AB83E80700504676
:100630000A9900F052FB8DE80700A0F500501F3822
:1006400000900398002D0ADD42F21F014A4608443B
:10065000002303A90390684600F0BBFD09E0A0F564
:1006600000504A461F38002303A90390684600F053
:10067000C5FD8DE807000004000C03D04FF0FF30EB
:10068000410800E01046B8F1000F03D000220092AC
:1006900015461EE0751E05D400F0AEF930326255E5
:1006A0006D1EF9D5B3460122084302D000227F1CFB
:1006B00004E02078302801D100227F1E002A09970B
:1006C00084D01DE0112D07DA00F096F93032625522
:1006D0006D1C50EA0102F5D1084302D00098C8B160
:1006E0000EE00021681E05E0235C625C6354225426
:1006F000401E491C8142F7DBAB46A81B401E0990F7
:10070000002004F80B000B98099AC0F80880C0E993
:10071000002B7AE711264FF0000857E72DE9F04F3C
:1007200088460446D21D22F0070191B0D1E90001AC
:10073000CDE90A0103F083FA02460B98C00F01D0FD
:100740002D2007E02068810701D52B2002E0202121
:1007500001EAC000032A099001D0072A05DB0346FD
:100760004146204600F08EF90BE12078800601D545
:10077000E06900E00620B8F1650F814606D0B8F1C7
:10078000660F18D0B8F1670F70D131E00020B9F1D1
:10079000110F009001DB112301E009F101030AAA06
:1007A00001A90CA8FFF7E2FEDDE90C70002609F1B3
:1007B0000105834647E001204B4600904FF000477B
:1007C0000AAA01A90CA8FFF7D1FEDDE90DB00C992A
:1007D0005D46002610B909F101000D18B9EB0500BE
:1007E00003D4C0F1FF3609F10105A5EB09002BE0A8
:1007F000B9F1010F01DA4FF001090020B9F1110F31
:100800000090484601DD112300E003460AAA01A931
:100810000CA8FFF7ABFEDDE90C704D4600268346C1
:10082000207800070AD4AB4500DA5D4601A8012D07
:1008300004DD411911F8011C302907D04F4502DAB7
:1008400017F1040F04DA012082460FE06D1EEEE777
:10085000002F02DCED1B3E4403E0781CA84200DDC3
:100860007D1CB81B00F1010A4FF0004720780007FB
:1008700003D4AA4501DB4FF0FF3A0021B7F1004F46
:100880000DF143088DF8431024D002202B23002FB4
:1008900001DA7F422D230A21021EA0F1010000DCB3
:1008A0005FB197FBF1FC97FBF1F201FB1C7C174653
:1008B0000CF1300C08F801CDEEE7A8F1010003704F
:1008C0002188090501D5452100E06521A0F1010835
:1008D00000F8011C09980FA9A1EB0807FF1D00B142
:1008E0000120411901EBEA70A1693844081A401E41
:1008F000A0612078C00602D42046FFF78BFC09983F
:1009000028B1D4E901219047206A401C2062207858
:10091000C00622D52046FFF77DFC1EE0002E04DB3A
:10092000B34502DD01A8805D00E03020D4E901215B
:100930009047206A401C2062761CAAF101005FEA01
:10094000000A0AD100F054F8C0680168405CD4E99C
:1009500001219047206A401C2062281EA5F1010554
:10096000DCDC07E0D4E9012118F8010B9047206A8C
:10097000401C2062381EA7F10107F3DC2046FFF778
:100980005FFC032011B041E601694A1C026108784E
:10099000704700B58FB0CDE90131002105910549BF
:1009A0007944CDE9031011466846FFF7BFFC0FB04C
:1009B00000BD0000E5FFFFFF0A6802F8010B0A60B6
:1009C000704710B5436913B1AFF3008001E0FFF742
:1009D00048FC012010BD127800F124010A700022A9
:1009E0004A700122EDE711684FF0FF32E9E700009D
:1009F000004870472401002030B5B0F10A024FEAE8
:100A0000900E71F100034EEA817EB0EB0E0061EBB7
:100A100091014FEA101E4EEA017E10EB0E0041EBF1
:100A200011114FEA102E4EEA016E10EB0E0041EB51
:100A300011214FEA104E4EEA014E10EB0E0041EB31
:100A40001141401841F100014FEAD00040EA4170E5
:100A50004FEAD10110EB80054FEA810444EA90741B
:100A600044EB01046D1944EB0404521BA3414FF005
:100A7000000348BF0A3200D530BD401C41F10001DF
:100A800030BD00002DE9F0411F46044603260168F1
:100A9000072A01F4006004DB08B116A505E016A5DD
:100AA00003E008B115A500E015A521F010002060B5
:100AB000A069C01EA0610FB1401EA0612046FFF7D3
:100AC000A9FB4FB1D4E9012138469047206A401C68
:100AD0002062C01C206206E0206AFAE7D4E9012106
:100AE00015F8010B9047761EF8D22046FFF7A8FBB9
:100AF000BDE8F0814E414E006E616E00494E4600E9
:100B0000696E66002DE9F047814616468AB0354881
:100B100078440DC88DE80D0032487844801C03AC41
:100B20000DC884E80D0041F69B300844372190FB46
:100B3000F1F290FBF1F5A5F1800501FB12041B3CDD
:100B400002D56442012000E00020DFF898A0804632
:100B50000027FA44AAF1BE0A0EE0E0070AD03246A6
:100B6000684607EB470101230AEB810100F046FBD1
:100B70008DE8070064107F1C002CEED1194F7F44D4
:100B8000AE3F19E0E80715D007EB04100DF1180A85
:100B900090E80E008AE80E00C068F04201D1981972
:100BA00008903246012306A903A800F027FB03ABF7
:100BB00083E807006D10641C002DE3D14FF00103A2
:100BC00032466946B8F1000F03A802D000F001FBDD
:100BD00001E000F013FBC9E90001C9F808200AB0E0
:100BE000BDE8F087183B0000004870470401002072
:100BF0007546FFF7F9FFAE4605006946534620F0FB
:100C00000700854618B020B5FFF7DEFABDE82040A2
:100C10004FF000064FF000074FF000084FF0000BB8
:100C200021F00701AC46ACE8C009ACE8C009ACE86B
:100C3000C009ACE8C0098D46704710B50446AFF353
:100C400000802046BDE81040FFF7AABA4FF0013CF3
:100C500050F8042B51F8043B9A4221D1A2EB0C032B
:100C6000934313EACC1317D150F8042B51F8043BEB
:100C70009A4215D1A2EB0C03934313EACC130BD188
:100C800050F8042B51F8043B9A4209D1A2EB0C0313
:100C9000934313EACC13DBD04FF00000704700BF42
:100CA000D01A01BAB1FA81F101F0180122FA01F06B
:100CB000CB40C1F12001DBB2C0B2C01A2CFA01F363
:100CC000D11A914311EAC311E6D1704701491820A6
:100CD000ABBEFEE72600020070475FEA400C08BF8B
:100CE00091F0000F4FEA8C234FEAC12243EA5151A1
:100CF0004FEA1C5018BF00F5F0404FEA300018BF13
:100D000041F000415FEA6C5C00F02980BCF1FF3FDC
:100D100008BF40F080407047130C06BF12044FF02C
:100D2000100C4FF0000C130E04BF12020CF1080C53
:100D3000130F04BF12010CF1040C930F04BF9200B7
:100D40000CF1020CD30F04BF52000CF1010C114640
:100D50004FF00002A0F11F00A0EB0C00704711F053
:100D6000004F08BF704731F000413FF4D5AF0B0C86
:100D700006BF09044FF0100C4FF0000C0B0E04BF1F
:100D800009020CF1080C0B0F04BF09010CF1040C53
:100D90008B0F04BF89000CF1020CCB0F04BF49007C
:100DA0000CF1010CCCF12003A0EB0C0022FA03F3B0
:100DB00002FA0CF241EA030100F10100704720F051
:100DC0007F4C80EA030023F07F47ACEB070303F579
:100DD0007C5300F0004003F1FF032DE980494FEA06
:100DE000154B09B44FEA144325EA0B4E24EA034895
:100DF0000FF2042606EB132749083E785FEA320219
:100E000003FB0667C7F5000707FB06F64FEA5437F2
:100E10004FEAD64606F1020607FB066CCCF1005CF1
:100E20004FEA1C472CEA074C07FB06F40CFB06F5BF
:100E300004EB15464FEA961634BF00204FF00040F1
:100E40004FEAD13706FB07FC4FEA1C4C0CFB0BF7B3
:100E5000D21B03FB0CF761EB07010CFB0EF7B0EBA9
:100E6000074072EB17420CFB08F734BFA2EB0742B6
:100E7000B2EB074261EB17414FEA0C444FEA91078E
:100E800006FB07FC4FEA1C4C0CFB0BF7B0EBC74012
:100E900072EB573203FB0CF734BFA2EBC742B2EB45
:100EA000C74261EB57310CFB0EF7B0EBC70072EB9A
:100EB00057720CFB08F734BFA2EBC702B2EBC702B4
:100EC00061EB5771039F4FEA816141EA921104EB94
:100ED000CC044FEAD1374FEA826206FB07FC42EAB4
:100EE00090124FEA80604FEA1C4C0CFB0BF7D21BB0
:100EF00003FB0CF761EB07010CFB0EF7B0EB0740AF
:100F000072EB17420CFB08F734BFA2EB0742B2EBBF
:100F1000074261EB17414FEA8C554FEA910704EB0A
:100F20009C2406FB07FC4FEA1C4C0CFB0BF7B0EBB8
:100F3000C74072EB573203FB0CF734BFA2EBC7423A
:100F4000B2EBC74261EB57310CFB0EF7B0EBC700B9
:100F500072EB57720CFB08F734BFA2EBC702B2EB7F
:100F6000C70261EB577115EB4C254FEA816141EAED
:100F700092114FEA82624FEAD13742EA901206FBA1
:100F800007FC44F100044FEA80604FEA1C4C0CFB64
:100F90000BF7D21B03FB0CF761EB07010CFB0EF701
:100FA000B0EB074072EB17420CFB08F734BFA2EB23
:100FB0000742B2EB074261EB174115EB1C154FEAF4
:100FC000813141EA92414FEA823242EA90424FEA4D
:100FD00080304FEA0C7644F1000448EA03434EEABD
:100FE0000B484FF0000EB2EB080C71EB030724BF67
:100FF000624639464EEB0E0E4FF0000B0018524180
:1010000049414BEB0B0BB2EB080C71EB03077BF187
:10101000000B24BF624639464EEB0E0E4FF0000B1C
:101020000018524149414BEB0B0BB2EB080C71EB32
:1010300003077BF1000B24BF624639464EEB0E0ED0
:1010400051EA020718BF46F0010616EB0E7655F17D
:10105000000254F1000103D5BDE88901BDE8008814
:10106000BDE88901BDE80048B619524141EB0101D4
:10107000A3F10103704780807F7E7D7C7B7A797845
:10108000777676757473727171706F6E6E6D6C6C4D
:101090006B6A6A69686867666665646463636261EF
:1010A0006160605F5F5E5E5D5D5C5C5B5B5A5A5970
:1010B00059585857575656555555545453535252DC
:1010C0005251515050504F4F4F4E4E4D4D4D4C4C34
:1010D0004C4B4B4B4A4A4A4949494848484747477D
:1010E00047464646454545444444444343434342BA
:1010F000424242414141002B9C4630D477002BD0E4
:101100001CB54FEA370703B44FF010004FF0100141
:10111000BAF1000F06D0BCF1000FDCBF40F00800B0
:1011200040F008014FF000000FBCBDE810400BF18B
:10113000010BBBF1010F08BF5FEA170722BF12F1D5
:10114000010211F101014FF0004143F1000300F0F1
:10115000004043EA00007047F9D35708D0E746EA59
:10116000064613F1400F4FEA16461FDD13F1200F1C
:10117000DFBF16430A46002120335B42BED0C3F1D5
:10118000200746EA064602FA07F74FEA164646EAFD
:101190000706C3F1200722FA03F201FA07F721FA42
:1011A00003F14FF0000342EA0702A7E746EA02060E
:1011B00046EA06464FEA164646EA0106BCBF46EA3C
:1011C0000646360C4FF000034FF000024FF00001CE
:1011D00094E72DE9804C9A46934670B491E8380024
:1011E00007C831EA400C48BF34EA430C03D5FFF787
:1011F000E6FDFFF780FFF0BCBDE8008C2DE9804CD8
:101200009A46934670B491E8380007C810F0804FB2
:1012100008BF13F0804F03D100F005F8FFF76BFF14
:10122000F0BCBDE8008C20F07F4780EA030023F08B
:101230007F4C07EB0C03A3F57C5300F00040A3F1B7
:10124000FE0392F0000F00F0B38095F0000F00F065
:1012500077802DE901494FEA11404FEA144621EA0F
:10126000004800FB06FC24EA064708FB06F607FBDD
:1012700008F800FB07F718EB06484CEB164C4FEA52
:10128000124B18EB07484FEA15464CEB174022EA81
:101290000B4E0BFB06FC25EA06470EFB06F607FB8A
:1012A0000EFE0BFB07F71EEB064E4CEB164C4FF0F9
:1012B00000061EEB074E4CEB174B18EB0B0840F1EA
:1012C000000018EB0E0B58EB000840F100008F1ADD
:1012D0004FF000013CBFC943661B14BFB5EB040CC3
:1012E00000213CBFC943F61B4FEA17444EEA8E0E5D
:1012F00027EA04454FEA1C4704FB07622CEA074C27
:1013000005FB07F70CFB05F604FB0CFC16EB074688
:1013100042EB174216EB0C4642EB1C421BEB060657
:1013200058EB0202414146EA9E0601D5BDE801891B
:10133000B619524141EB0101A3F10103BDE8018956
:101340004FEA14454FEA114724EA054621EA074CC3
:1013500005FB07F406FB07F70CFB06F105FB0CFC8D
:1013600011EB074144EB17444FEA124711EB0C41D4
:1013700044EB1C4422EA074C05FB07F206FB07F787
:101380000CFB06F605FB0CFC16EB074642EB17427E
:1013900016EB0C4642EB1C456A1854F1000148BF9D
:1013A0007047B619524141EB0101A3F101037047A7
:1013B00095F0000F37D04FEA11424FEA144721EA67
:1013C000024624EA074C02FB07F106FB07F70CFB79
:1013D00006F402FB0CFC14EB074441EB17414FEA07
:1013E000154714EB0C4441EB1C4125EA074C02FB6A
:1013F00007F506FB07F70CFB06F602FB0CFC16EBE9
:10140000074645EB174516EB0C4645EB1C421219F7
:1014100051F1000148BF7047B619524141EB01013B
:10142000A3F1010370474FEA14454FEA114724EA3C
:10143000054621EA074C05FB07F106FB07F70CFB05
:1014400006F24FF0000605FB0CFC12EB074241EBE5
:10145000174112EB0C4251EB1C4148BF70479218E8
:1014600041EB0101A3F10103704700F00F010009F6
:1014700000EB800001EB4000C0B27047FEE710B502
:101480000022012100F099F8BDE81040052000F08D
:1014900077BA017A002241F00201017200F08DB8A2
:1014A00010B504460298216022716371A071282052
:1014B000A0720620E0710C202072142060720820B7
:1014C000E072322000F05CFA00223321204600F066
:1014D00074F8052000F054FA00223321204600F071
:1014E0006CF8052000F04CFA00223221204600F072
:1014F00064F8052000F044FA00222021204600F084
:101500005CF8052000F03CFAE1790022204600F06A
:1015100054F8012000F034FA217A0022204600F02D
:101520004CF8012000F02CFA617A0022204600F0ED
:1015300044F8012000F024FAA17A0022204600F0AD
:101540003CF8012000F01CFA00220121204600F0A6
:1015500034F8012000F014FA20460022BDE81040C3
:10156000022100F02AB8000008B50BA31B68009305
:1015700043798B4201D85B1ED9B28379934201D85B
:101580005B1EDAB21DF802201144C9B241F080019D
:10159000002200F012F808BD80C00000012200F017
:1015A0000CB870B50C46054603E02846641CFFF7EE
:1015B000F5FF21780029F8D170BD7CB506460807F3
:1015C000040EF07A01F0F00518B145F0080544F07A
:1015D0000804012A01D02AB108E045F0010544F0D1
:1015E000010403E025F0010524F0010445F00400A6
:1015F0008DF80400012000F0C3F98DF8055044F087
:1016000004008DF80600012000F0BAF94FF47A705A
:101610008DF8074000903179042301AA306800F06A
:101620004FFD7CBD0A21B0FBF1F201FB1202B0FBC1
:10163000F1F042EA0010C0B270473EB504464FF4E4
:101640007A7204210E308DE8070001230322D02195
:10165000206800F0E5FDA07BFFF707FF2076E07B28
:10166000FFF703FFE075207CFFF7FFFE6076607CEC
:10167000FFF7FBFEA0763EBDFEB5044602F0FAFA87
:101680004FF47A72022104F112008DE80700012361
:101690001122D021206800F0C3FDE07C800902F017
:1016A0002FFD6FF0010202F027FF06460D46A07CD9
:1016B00002F026FD32462B4602F072FC03B0BDE874
:1016C000F04002F03BBC3EB504464FF47A72032171
:1016D000C01D8DE8070001230022D021206800F002
:1016E0009FFDE079FFF7C1FEA075207AFFF7BDFEF0
:1016F0006075607AFFF7B9FE20753EBD01607047E6
:101700003EB5044615460846FFF78CFFA0722846F2
:10171000FFF788FFE0724FF47A72022104F10A00A9
:101720008DE8070001230922D021206800F004FF82
:101730003EBDFEB5044615460E461846FFF772FF3D
:1017400020712846FFF76EFF60713046FFF76AFF91
:10175000A0714FF47A720321201D8DE80700012348
:101760000722D021206800F0E7FEFEBDFEB504464A
:101770001E4617460846089DFFF754FFA0723846DC
:10178000FFF750FFE0723046FFF74CFF207328460A
:10179000FFF748FF60734FF47A72042104F10A00E6
:1017A0008DE8070001230322D021206800F0C4FE49
:1017B000FEBDFEB5044615460E461846FFF732FF3D
:1017C00020712846FFF72EFF60713046FFF72AFF91
:1017D000A0714FF47A720321201D8DE807000123C8
:1017E0000022D021206800F0A7FEFEBD7047000057
:1017F00010B50D48FFF74DFE0C484078062811D271
:10180000DFE800F00306090906030122002104E0D5
:101810000122032101E001220621BDE81040024817
:10182000FFF7A2BE10BD0000400000200000002015
:1018300010B50748FFF723FE002211460448FFF7C2
:1018400093FEBDE8104003A10148FFF7AABE0000C7
:10185000400000204368616E676520446973706CC6
:101860006179000008B50D48FFF7E7FE0B48817E5F
:101870000091437EC27D0AA12C30FEF7B7FC0748D9
:10188000012200212030FFF76FFE0449BDE8084027
:101890002C31A1F10C00FFF784BE000020000020D5
:1018A000253032642C253032642C323025303264BD
:1018B0000000000010B50748FFF7E1FD00221146C7
:1018C0000448FFF751FEBDE8104003A10148FFF7AF
:1018D00068BE00004000002053657420416C6172B6
:1018E0006D00000010B50748FFF7C9FD0022114642
:1018F0000448FFF739FEBDE8104003A10148FFF797
:1019000050BE0000400000205365742054696D658E
:101910000000000008B50D48FFF7D5FE0B48817D9B
:101920000091437D027D0AA12C30FEF75FFC074841
:10193000012200212030FFF717FE0449BDE80840CE
:101940002C31A1F10C00FFF72CBE0000200000207C
:10195000253032643A253032643A25303264000052
:10196000012000F0FBB8022000F0F8B8042000F0DD
:10197000F5B8082000F0F2B8202000F0EFB8000021
:1019800070B5044600F0FCF90546B4F1FF3F02D003
:1019900004480078044400F0F3F9401BA042FAD355
:1019A00070BD0000100000202DE9F05F6549DFF8F0
:1019B00098A1082891F81A80CA7D9AF801C091F878
:1019C00018904F7E8E7D4D7D0B7D14D001244FF0FD
:1019D000000B042843D05146012809787FD02028E5
:1019E00071D0022870D1554606296DD2DFE801F08A
:1019F00080939699909C3B20BCF1060F67D2DFE85C
:101A00000CF0030A101619210BB15B1E32E01720EF
:101A100008750A7D1DE00DB16D1E33E048754A7DE5
:101A200017E00EB1761E35E088758A7D11E0A8F1C9
:101A3000010836E0012F01D97F1E3AE00C204876DC
:101A40004A7E06E0012A01D9521E39E01F20C875DE
:101A50004A463EA13B482C30FEF7C8FB37E0BCF1BC
:101A6000060F34D2DFE80CF0030B131B2229172BCF
:101A700002D25B1C0B75CCE781F814B0C9E73B2D93
:101A800002D26D1C4D75CAE781F815B0C7E73B2E31
:101A900002D2761C8E75C8E781F816B0C5E708F14A
:101AA000010808F0FF028A762AA1D3E70C2F02D2A0
:101AB0007F1C4F76C4E74C76C2E71F2A05D2521C22
:101AC000CA75C5E70BE021E012E0CC75C0E7BDE8C0
:101AD000F05F1C492C31A1F10C00FFF762BD062913
:101AE00006D2DFE801F00307090D05108AF800406F
:101AF000BDE8F09F022100E003218AF80010F7E71B
:101B00008AF800B0F4E78AF80440F1E70421F4E72A
:101B10008AF80340ECE78AF80540E9E78AF80640CE
:101B2000E6E78AF80740E3E70CF1010C0CF0FF0050
:101B30006870032801D1FFF795FE68780628D7D191
:101B40002C71D5E7200000200000002025303264F1
:101B500000000000323025303264000010B5044926
:101B60000A68024202D00860FFF71EFF10BD0000A5
:101B7000140401402DE9F84F4FF0000C00230A68CF
:101B8000002A7DD0DFF8DC810F2708F1040909F174
:101B9000040A0AF1040B012202FA0CF60A68324028
:101BA000B2426ED1DFF8C0E14C68A4EB0E0574457B
:101BB0002BD00DDC032C34D005DC34B3012C19D030
:101BC000022C2FD11BE0112C16D0122C2AD119E097
:101BD000B5F5881F19D006DCB5F5803F15D0B5F5F1
:101BE000801F1FD111E0B5F5001F0ED0B5F5041F01
:101BF00018D10AE0CB6815E0CB681B1D12E0CB685A
:101C000008330FE0CB680C330CE08B6823B1012B59
:101C100004D00823466105E0042303E0082306619D
:101C200000E00023B2F5807F01D2054601E000F11B
:101C3000040502D24FEA8C0403E0ACF108044FEA39
:101C400084042E6807FA04FE26EA0E0603FA04F45A
:101C500046EA04042C604C6814F0805F79D0434C51
:101C6000A56945F00105A561A46904F0010400948B
:101C70002CF0030404F1804404F58034A66801E0EC
:101C80006EE066E04FEA8C754FEA157507FA05FEBF
:101C900026EA0E0EA0F18046B6F584361ED0A0F1DD
:101CA0008046B6F586361BD0A0F18046B6F588365C
:101CB00018D0A0F18046B6F58A3615D0042606FA6B
:101CC00005F545EA0E05A5604C6814F4803F0DD07B
:101CD000D8F800401443C8F800400CE00026EEE7B6
:101CE0000126ECE70226EAE70326E8E7D8F80040F9
:101CF0009443C8F800404C6814F4003F05D0D9F86C
:101D000000401443C9F8004004E0D9F8004094436F
:101D1000C9F800404C6814F4801F05D0DAF8004080
:101D20001443CAF8004004E0DAF800409443CAF8CB
:101D300000404C6814F4001F05D0DBF8004022433B
:101D4000CBF8002005E0DBF8004024EA0202CBF8E3
:101D500000200CF1010C0A6832FA0CF27FF41BAF80
:101D6000BDE8F88F0004014000001110001002408F
:101D7000002A01D001617047090401617047000029
:101D800001488068704700001000002070B50446CC
:101D9000002C04D094F83D00002510B106E001208D
:101DA00070BD84F83C50204600F080FC242084F86C
:101DB0003D002068016821F0010101602068016890
:101DC00041F4004101602068016821F40041016094
:101DD00000F00EFE544B6168994203D85349884283
:101DE00003D304E05249884201D2012070BD514919
:101DF000B0FBF1F12268D2F804C02CF03F0C4CEAA1
:101E0000010CC2F804C062689A4201D84A1C07E07B
:101E10004FF4967251434FF47A72B1FBF2F14A1CBF
:101E20002168D1F820C02CF03F0C42EA0C020A6273
:101E30006168994210D84900401EB0FBF1F2521C73
:101E4000C2F30B02042A01D2042026E0B0FBF1F019
:101E5000401CC0F30B0020E0A268002A50D001EB28
:101E6000C10303EB0113A0F1010CBCFBF3F35B1CFA
:101E700043F480431B051B0D4AD0002A4AD001EBD6
:101E8000C10202EB0111401EB0FBF1F0401CC0F397
:101E90000B0040F4804040F400402168CA6922F001
:101EA000FF0222F44F421043C861216AE0690143F6
:101EB0002068026822F0C00211430160E1682069D5
:101EC00001432068826822F0FF0222F4034211439A
:101ED0008160A169606901432068C26822F0FF0245
:101EE0001143C1602068016841F00101016025646F
:101EF000202084F83D00256384F83E50002070BD0A
:101F000001EB4103A0F1010CBCFBF3F35B1CB1E757
:101F10000120C2E701EB4101401EB0FBF1F0401C83
:101F2000C0F30B00B7E70000A086010080841E000C
:101F300000093D0040420F002DE9F84F0446884655
:101F400092461E46FFF71CFF0546012794F83D0008
:101F5000202802D00220BDE8F88F1923012256491B
:101F60002046009501F06AFB10B10220BDE8F88F11
:101F700094F83C00012808D0012084F83C00206837
:101F8000016811F0010F03D006E00220BDE8F88FD0
:101F9000016841F0010101602068016821F40061DD
:101FA0000160242084F83D00002020644348E06262
:101FB00008F0FE094FF0A0084FF0200B20680168E0
:101FC00041F480710160334600224FF00111204638
:101FD000009501F033FB50B12068006810F4807F59
:101FE00002D04FF4007020640320BDE8F88F206811
:101FF000C0F81090FFF7C4FE054620684169C1F3A0
:1020000040014069C0F380200EE0FFF7B9FE401B9D
:10201000B04200D80EB984F83D8020684169C1F310
:1020200040014069C0F3802094F83D20A02A02D0EE
:1020300009B90028E9D084F83DB02068416911F061
:10204000020F1BD02168096841F40071016000266D
:1020500020684169806900901923012216492046B1
:10206000009501F0EBFA10B10120BDE8F88F84F87B
:102070003DB084F83C600020BDE8F88F016841F471
:102080000071016021686FF48060486119230122AA
:1020900009492046009501F0D1FA10B10120BDE8B0
:1020A000F88F7F1C574589D384F83DB0002084F811
:1020B0003C000120BDE8F88F020010000000FFFF87
:1020C0002DE9F84F04468A46904699460A9FFFF745
:1020D00057FE064694F83D00202802D00220BDE8B5
:1020E000F88F192301224C492046009601F0A6FAE8
:1020F00010B10220BDE8F88F94F83C00012808D008
:10210000012084F83C002068016811F0010F03D021
:1021100006E00220BDE8F88F016841F0010101608E
:102120002068016821F400610160212084F83D00ED
:10213000102084F83E0000252564C4F82480A4F80B
:102140002A90608D20853548E06233463A465146F4
:10215000204601F0D9F810B10120BDE8F88F2068C1
:10216000416980690090208D002846D0324639466A
:10217000204601F062FB50B1206C042804D1206895
:10218000016841F4007101600120BDE8F88F606AC8
:10219000216800780861606A00F1010CC4F824C06D
:1021A000608D401E6085208D401E80B22085226893
:1021B000516911F0040F0CD058B19CF80000106167
:1021C000606A401C6062608D401E6085208D401EEC
:1021D000208532463946204601F002FA50B1206C83
:1021E000042804D12068016841F4007101600120D5
:1021F000BDE8F88F208D0028B8D12068016841F42F
:1022000000710160202084F83D0084F83E5084F87D
:102210003C500020BDE8F88F020010000000FFFFD6
:102220002DE9FF4F83B00446DDF84490DDF840808F
:10223000129E8A46934600270297FFF7A1FD0546A6
:1022400094F83D00202803D007B00220BDE8F08FAD
:1022500019230122B4492046009501F0EFF918B185
:1022600007B00220BDE8F08F94F83C00012808D0A8
:10227000012084F83C002068016811F0010F04D0AF
:1022800007E007B00220BDE8F08F016841F00101CE
:1022900001602068016821F400610160222084F857
:1022A0003D00402084F83E002764C4F82480A4F850
:1022B0002A90608D20859D48E062019500965A46DF
:1022C00051462046069B01F079F818B107B001206D
:1022D000BDE8F08F208D68B3012834D0022842D0A9
:1022E0002068016841F4806101602068416980696B
:1022F0000190208D4FF02008002800F00B81DFF8BE
:1023000030B2DFF8309246F2A81A208D032800F28E
:10231000D680012837D002284DD0334600225946B6
:102320002046009501F08AF9002872D007B00120FC
:10233000BDE8F08F2068416981690191016841F42D
:1023400000710160D5E72068016821F480610160B7
:1023500072B62068416981690191016841F4007198
:10236000016062B6C5E72068016841F40061016060
:1023700072B62068416981690191016821F4806128
:10238000016062B6B5E72A463146204601F017FAE9
:1023900018B107B00120BDE8F08F20680069616ABC
:1023A0000870606A401C6062208D401E2085608D30
:1023B000401E6085AAE0334600225946204600951B
:1023C00001F03CF918B107B00120BDE8F08F72B6FA
:1023D0002068016841F40071016020680069616A49
:1023E0000870606A401C6062218D491E2185618DE4
:1023F000491E618562B6216809690170606A401CE6
:102400006062208D401E2085608D401E60857DE0CD
:10241000FFE72068016821F48061016072B62068DE
:102420000069616A0870606A401C6062208D401E0D
:102430002085608D401E6085D9F80000B0FBFAF061
:10244000C0EBC00000EB800002900298401E02909A
:10245000029820B32068406910F0040FF5D020687E
:10246000016841F40071016020680069616A0870C8
:10247000606A401C6062218D491E2185618D491E64
:10248000618562B6216809690170606A401C6062FA
:10249000208D401E2085608D401E608536E02763BC
:1024A00084F83D8084F83E70206C40F02000206469
:1024B00062B684F83C7007B00120BDE8F08F2A4670
:1024C0003146204601F07BF918B107B00120BDE884
:1024D000F08F20680069616A0870606A411C61625F
:1024E000208D401E2085608D401E608520684269D9
:1024F00012F0040F0AD000690870606A401C606224
:10250000208D401E2085608D401E6085208D002816
:102510007FF4FBAE84F83D8084F83E7084F83C7014
:1025200007B00020BDE8F08F020010000000FFFFA0
:10253000040001001C0000202DE9FF4F83B0044679
:102540008A469346DDF84490DDF84080129EFFF7FE
:1025500017FC054694F83D00202803D007B0022060
:10256000BDE8F08F192301224E492046009501F065
:1025700065F818B107B00220BDE8F08F94F83C0070
:10258000012808D0012084F83C002068016811F07F
:10259000010F04D007E007B00220BDE8F08F01680A
:1025A00041F0010101602068016821F400610160CF
:1025B000212084F83D00402084F83E000027276455
:1025C000C4F82480A4F82A90608D20853648E06203
:1025D000019500965A4651462046069B00F098FF0A
:1025E00018B107B00120BDE8F08F208D002836D04B
:1025F0002A463146204601F020F958B1206C0428C3
:1026000004D12068016841F40071016007B0012025
:10261000BDE8F08F606A216800780861606A00F1A7
:10262000010CC4F824C0208D401E80B22085618D2D
:10263000491E61852368596911F0040F0CD058B107
:102640009CF800001861606A401C6062208D401E8A
:102650002085608D401E6085208D0028C8D12A46C7
:102660003146204600F0BCFF58B1206C042804D14C
:102670002068016841F40071016007B00120BDE8E5
:10268000F08F2068016841F400710160202084F817
:102690003D0084F83E7084F83C7007B00020BDE82F
:1026A000F08F0000020010000000FFFF10B586B0A0
:1026B0000021009101910291039100680F49884225
:1026C0001AD10F4CA06940F00800A061A0696946CA
:1026D00000F008000490C020009012200190032018
:1026E00003900848FFF746FAE06940F40010E06103
:1026F000E06900F40010049006B010BD00540040E2
:1027000000100240000C0140024881680278114428
:10271000816070471000002010B50748016841F043
:1027200010010160032000F08BF8002000F006F893
:1027300000F026F8002010BD0020024070B50446CD
:102740000D4D4FF47A712878B1FBF0F00B49096810
:10275000B1FBF0F000F0AEFB08B1012070BD102C11
:1027600007D200222146501E00F036F86C6000208F
:1027700070BD012070BD0000100000201C00002072
:102780000C4808B5816941F001018161816901F05E
:1027900001010091C16941F08051C161C06900F03F
:1027A000805000900448416821F0E06141F0806170
:1027B000416008BD001002400000014000280ADB13
:1027C00000F01F01012202FA01F14009800000F12E
:1027D000E020C0F80011704710B4184B1B68C3F319
:1027E0000223C3F1070CBCF1040F01D94FF0040C14
:1027F0001C1D072C01D2002300E0DB1E012404FA7B
:102800000CFCACF1010C0CEA0101994004FA03F351
:102810005B1E1A401143002806DB00F1E02009018D
:1028200080F8001410BC704700F00F0000F1E020A9
:10283000090180F8141D10BC704700000CED00E089
:1028400000F00700064A11684FF6FF03194041EAFD
:10285000002040F0FD7040F0806010607047000084
:102860000CED00E02DE9F04704460D46002C17D092
:10287000DFF85C81D8F8000000F00700A84212D20F
:10288000D8F8000020F007002843C8F80000D8F866
:10289000000000F00700A84205D00120BDE8F08745
:1028A0000120BDE8F08720684A4E10F0020F14D0D6
:1028B00010F0040F03D0706840F4E060706020787E
:1028C00010F0080F03D0706840F4605070607068BA
:1028D00020F0F001A06808437060207810F0010F2C
:1028E0003AD06068012806D002280BD0316811F078
:1028F000020F27D00AE0316811F4003F06D1012011
:10290000BDE8F087316811F0007F18D0716821F0C0
:10291000030108437060FFF733FA07467068616887
:1029200000F00C00B0EB810F16D041F28839FFF7B0
:1029300027FAC01B484508D90320BDE8F0870120CD
:10294000BDE8F0870120BDE8F0877068616800F09D
:102950000C00B0EB810FEAD1D8F8000000F00700BE
:10296000A8420FD9D8F8000020F007002843C8F883
:102970000000D8F8000000F00700A84202D00120B3
:10298000BDE8F087207810F0040F05D07068E1688A
:1029900020F4E06008437060207810F0080F06D043
:1029A0007068216920F4605040EAC100706000F056
:1029B0002FF87168084AC1F30311515CC8400749F8
:1029C000086007480068FFF7B9FE0020BDE8F087FF
:1029D0000020024000100240844500081C00002036
:1029E0001400002001480068704700001C0000200F
:1029F00000B5FFF7F7FF04494968044AC1F3022113
:102A0000515CC84000BD0000001002409445000821
:102A100085B015A0836842680168C068039302927C
:102A20000191049014A000680090144B5968144858
:102A300001F00C02042A11D0082A0FD101A8C1F319
:102A40008342805C11F4803F0AD05968C1F3404151
:102A50001DF801100A4A5043B0FBF1F005B0704771
:102A6000084905B0484370470203040506070809F2
:102A70000A0B0C0D0E0F1010010200000010024096
:102A800000127A0000093D002DE9F84F0446002CA1
:102A90000FD02078F84D10F0010F6CD0686800F06E
:102AA0000C0004280CD0686800F00C00082803D043
:102AB00010E00120BDE8F88F686810F4803F09D06D
:102AC000286810F4003F56D06068002853D10120D8
:102AD000BDE8F88F6068B0F5803F15D0C8B1B0F59B
:102AE000A02F1FD0286820F480302860286820F4A8
:102AF00080202860606858B3FFF742F906462868CE
:102B000010F4003F17D036E0286840F48030286089
:102B1000F0E7286820F480302860286820F48020BE
:102B20002860E7E7286840F480202860286840F49F
:102B300080302860DEE7FFF723F9801B642802D984
:102B40000320BDE8F88F286810F4003FF3D012E0AE
:102B5000FFF716F90646286810F4003F0BD0FFF780
:102B60000FF9801B642802D90320BDE8F88F28687C
:102B700010F4003FF3D12078C04F10F0020F4FF057
:102B8000010B4FF0000854D0686810F00C0F14D0FF
:102B9000686800F00C00082803D1686810F4803FD2
:102BA0000BD0206978B3C7F800B0FFF7E9F8064604
:102BB000286810F0020F12D01DE0286810F0020FF4
:102BC00005D02069012802D00120BDE8F88F2868CF
:102BD000616920F0F80040EAC100286029E0FFF7B1
:102BE000CFF8801B022802D90320BDE8F88F28689F
:102BF00010F0020FF3D02868616920F0F80040EA75
:102C0000C100286015E0FFE7C7F80080FFF7B8F8BB
:102C10000646286810F0020F0BD0FFF7B1F8801BB2
:102C2000022802D90320BDE8F88F286810F0020FAF
:102C3000F3D1207810F0080F30D09148A169C1B1CC
:102C4000C0F800B0FFF79CF80646686A10F0020F63
:102C50000BD1FFF795F8801B022802D90320BDE8AD
:102C6000F88F686A10F0020FF3D0012000F034FFF3
:102C700014E0C0F80080FFF783F80646686A10F099
:102C8000020F0BD0FFF77CF8801B022802D903202B
:102C9000BDE8F88F686A10F0020FF3D1207810F0C9
:102CA000040F6FD00026E86910F0805F08D1E86952
:102CB00040F08050E861E86900F080500090012603
:102CC000DFF8C0A1DAF8000010F4807F1BD1DAF839
:102CD000000040F48070CAF80000FFF751F8814608
:102CE000DAF8000010F4807F0DD1FFF749F8A0EB6F
:102CF0000900642802D90320BDE8F88FDAF8000043
:102D000010F4807FF1D0E068012816D0D0B10528FA
:102D100021D0286A20F001002862286A20F00400EF
:102D20002862E06841F2883A68B3FFF729F88146E3
:102D3000286A10F0020F17D03AE0286A40F001002C
:102D40002862EEE7286A20F001002862286A20F055
:102D500004002862E5E7286A40F004002862286A37
:102D600040F001002862DCE7FFF70AF8A0EB090059
:102D7000504502D90320BDE8F88F286A10F0020FF1
:102D8000F2D015E01AE0FFE7FEF7FAFF8146286A65
:102D900010F0020F0CD0FEF7F3FFA0EB0900504536
:102DA00002D90320BDE8F88F286A10F0020FF2D193
:102DB000012E03D1E86920F08050E861E069E8B3B2
:102DC000696801F00C0108295ED0022810D0C7F80C
:102DD0006080FEF7D5FF0446286810F0007F66D0BB
:102DE000FEF7CEFF001B022841D90320BDE8F88F73
:102DF000C7F86080FEF7C4FF0646286810F0007F21
:102E00000BD0FEF7BDFF801B022802D90320BDE8CE
:102E1000F88F286810F0007FF3D1206AB0F5803F6A
:102E200005D16868A16820F4003008436860616AD1
:102E3000206A0843696821F4741100E037E0084310
:102E40006860C7F860B0FEF79BFF0446286810F082
:102E5000007F2CD1FEF794FF001B022802D903202B
:102E6000BDE8F88F286810F0007FF3D01FE02868D5
:102E700010F0007FB4D11AE000100240000042427E
:102E8000800442420070004001280DD06868226A28
:102E900000F48031914204D1616A00F470108842DC
:102EA00005D00120BDE8F88F0120BDE8F88F002093
:102EB000BDE8F88F401EB0F1807F01D3012070473C
:102EC0004FF0E0214861044AF02010700020886132
:102ED000072008610020704723ED00E0704770472D
:102EE00030B490F83C20012A30D0012480F83C40D6
:102EF000022280F83D200268D2F804C093682CF0CA
:102F0000700C0D6845EA0C0CC2F804C00268A2F10E
:102F1000804CBCF5963C0CD0B2F1804F09D0A2F1A8
:102F2000804CBCF5806C04D0A2F1804CBCF5006CE8
:102F300004D123F0800349681943916080F83D4033
:102F4000002180F83C1030BC0020704730BC0220CB
:102F5000704710B50446002C03D094F83D0010B122
:102F600007E0012010BD002084F83C00204600F05E
:102F70001FF8022084F83D00211D206800F0EAFDC2
:102F8000012084F8460084F83E0084F83F0084F86D
:102F9000400084F8410084F8420084F8430084F83B
:102FA000440084F8450084F83D00002010BD000076
:102FB00008B50068B0F1804F12D10A48C16941F0EC
:102FC0000101C161C069002200F0010000900421EC
:102FD0001C20FFF701FCBDE808401C20FFF7EEBBFA
:102FE00008BD00000010024090F83D10012901D0FA
:102FF00001207047022180F83D100168CA6842F044
:103000000102CA600068A0F18041B1F5963112D08A
:10301000B0F1804F0FD0A0F18041B1F580610AD0AE
:10302000A0F18041B1F5006105D0016841F00101D6
:10303000016000207047816801F007010629F8D07F
:10304000016841F001010160F3E770B5044694F8AE
:103050003C00012818D0012584F83C50022084F857
:103060003D002068826822F0770222F47F4282606D
:103070000868502832D00EDC20284DD006DC00280D
:103080004AD010284DD147E0022070BD302843D0EF
:10309000402846D136E060282AD0702806D0B0F506
:1030A000805F3ED0B0F5005F3BD10BE0CB684A6853
:1030B0008968206800F08AFD2068816841F0770106
:1030C00081602EE0CB684A688968206800F07EFD48
:1030D0002068816841F48041816022E0CA684968C3
:1030E000206800F086FD5021206800F07AFD18E08D
:1030F000CA684968206800F08FFD6021206800F0F0
:1031000070FD0EE0CA684968206800F072FD402139
:10311000206800F066FD04E022680146104600F0D9
:1031200060FD84F83D50002084F83C0070BD70477D
:1031300070B50446206801694FF0000511F0020FD8
:1031400017D0C16811F0020F13D0E91E01610120F0
:1031500020772068806910F0030F03D02046FFF726
:10316000E6FF05E0204600F09DF8204600F09BF8C1
:1031700025772068016911F0040F18D0C16811F09B
:10318000040F14D06FF00401016102202077206841
:10319000806910F4407F03D02046FFF7C8FF05E0A8
:1031A000204600F07FF8204600F07DF82577206863
:1031B000016911F0080F18D0C16811F0080F14D080
:1031C0006FF008010161042020772068C06910F0C9
:1031D000030F03D02046FFF7AAFF05E0204600F0CA
:1031E00061F8204600F05FF825772068016911F04A
:1031F000100F18D0C16811F0100F14D06FF010012B
:103200000161082020772068C06910F4407F03D056
:103210002046FFF78CFF05E0204600F043F82046EB
:1032200000F041F825772068016911F0010F09D0FD
:10323000C16811F0010F05D06FF001010161204656
:1032400000F032F82068016911F0800F09D0C168E0
:1032500011F0800F05D06FF0800101612046FFF76B
:103260003DFE2068016911F0400F09D0C16811F0DE
:10327000400F05D06FF040010161204600F028F8B2
:103280002068016911F0200F0BD0C16811F0200FE8
:1032900007D06FF0200101612046BDE87040FFF7C4
:1032A0001EBE70BD704770470848012102785AB1B0
:1032B000042A08D1027A521CD2B20272052A02D123
:1032C000C1700021017270478170704700000020BA
:1032D0007047FEE701684A6912F4806F11D06FF4FD
:1032E00080624A6100210163202280F83D2080F83D
:1032F0003E10026C42F00402026480F83C1001208F
:103300007047002070470000F8B504460D46174688
:103310001E46E06A082808D0012806D010F5803F34
:1033200003D0206B122806D00AE02068016841F41F
:103330008071016004E02068016841F480710160DF
:103340003B4600224FF001112046009600F076F92E
:1033500048B12068006810F4807F02D04FF40070FC
:1033600020640320F8BD2069B0F5804F0FD005F42C
:103370004070F02141EAD0102168086133463A4696
:103380000C49204600F0B4F930B10120F8BD2168A5
:1033900005F0FE00086102E02168E8B208613346EA
:1033A0003A460549204600F0A3F908B10120F8BDCE
:1033B0000020F8BD08000100020001002DE9F84FCF
:1033C0000446DDF828A00B9D0F4690461E46206857
:1033D000016841F4806101602068016841F48071F6
:1033E0000160534600224FF001112046009500F085
:1033F00025F94FF4007948B12068006810F4807F07
:1034000001D0C4F840900320BDE8F88F216807F090
:10341000FE000861DFF8F4B02B46524659462046BC
:1034200000F066F910B10120BDE8F88F206841690D
:10343000806900902A465146204600F0FEF950B1BE
:10344000206C042804D12068016841F400710160F7
:103450000120BDE8F88F304608F0FF0601280DD0A6
:1034600021684FEA182008612A465146204600F09C
:10347000E4F970B1206C042803D007E020680661ED
:1034800009E02068016841F4007101600120BDE895
:10349000F88F206806612A465146204600F0CDF993
:1034A00050B1206C042804D12068016841F40071F7
:1034B00001600120BDE8F88F2068016841F4807147
:1034C0000160534600224FF001112046009500F0A4
:1034D000B5F848B12068006810F4807F01D0C4F8C6
:1034E00040900320BDE8F88F2168F8B240F0010059
:1034F00008612B4652465946204600F0F9F810B1B3
:103500000120BDE8F88F0020BDE8F88F020001001F
:103510002DE9F8430446DDF82090099F0D46164634
:1035200098462068016841F4807101604B46002292
:103530004FF001112046009700F080F850B120684C
:10354000006810F4807F02D04FF4007020640320E4
:10355000BDE8F883216805F0FE0008613B464A4655
:103560001E49204600F0C4F810B10120BDE8F883E0
:1035700020684169806900903A464946204600F03B
:103580005CF950B1206C042804D12068016841F432
:10359000007101600120BDE8F883F5B2B8F1010FB8
:1035A0000CD02168300A08613A464946204600F0AE
:1035B00044F970B1206C042803D007E0206805614D
:1035C00009E02068016841F4007101600120BDE854
:1035D000F883206805610020BDE8F883020001003F
:1035E00070B504460D4616462068406910F0040F79
:1035F00013D12046FFF76EFE08B1012070BDB5F172
:10360000FF3F05D0FEF7BCFB801BA84207D835B1B1
:103610002068406910F0040FEBD0002070BD00203E
:103620002063202184F83D1084F83E00216C41F095
:103630002001216484F83C00012070BD2DE9F04791
:103640000446DDF820900D4617461E46C5F3074890
:103650002068B8F1010F22D0806925EA000000043B
:10366000000C26D00020B84216D1B6F1FF3F06D09C
:10367000FEF786FBA0EB0900B0421CD8DEB1B8F122
:10368000010F28D02068806925EA00000004000CA2
:103690002CD00020B842E8D00020BDE8F087406977
:1036A00025EA00000004000C01D00020DBE7012027
:1036B000D9E70120D7E700202063202184F83D10BE
:1036C00084F83E00216C41F02001216484F83C0024
:1036D0000120BDE8F0872068406925EA0000000469
:1036E000000C01D00020D5E70120D3E70120D1E76D
:1036F0002DE9F04704460D4616461F46C5F3074818
:103700002068B8F1010F26D0806925EA0000000486
:10371000000C3AD04FF000094FF0200A20684069B1
:1037200010F4806F1ED02068016841F400710160C0
:1037300021686FF480604861C4F8309084F83DA03F
:1037400084F83E90206C40F00400206484F83C90A3
:103750000120BDE8F087406925EA00000004000C64
:1037600013D0D7E7B6F1FF3F05D0FEF709FBC01B2A
:10377000B0420DD866B1B8F1010F18D02068806949
:1037800025EA00000004000CC8D10020BDE8F08745
:10379000C4F8309084F83DA084F83E90206C40F04E
:1037A0002000206484F83C900120BDE8F087206868
:1037B000406925EA00000004000CAFD1E5E72DE9DF
:1037C000F04104460D4616462068406910F0400F4F
:1037D00022D100274FF020082068406910F0100F18
:1037E0000FD021686FF010004861276384F83D8096
:1037F00084F83E70206C206484F83C700120BDE8A1
:10380000F081FEF7BDFA801BA84208D83DB12068C0
:10381000406910F0400FDFD00020BDE8F081276341
:1038200084F83D8084F83E70206C40F020002064D5
:1038300084F83C700120BDE8F08170B504460D4667
:1038400016462068406910F0800F13D12046FFF71C
:1038500041FD08B1012070BDB5F1FF3F05D0FEF775
:103860008FFA801BA84207D835B12068406910F054
:10387000800FEBD0002070BD00202063202184F851
:103880003D1084F83E00216C41F02001216484F851
:103890003C00012070BD0000F0B585B000253C481B
:1038A0000095019502950395816941F010018161B0
:1038B000816901F010010491816941F00401816185
:1038C000816901F004010491816941F0080181617D
:1038D0008069304E00F008004FF40054049000223C
:1038E00021463046FEF744FA2B4F0022102138467D
:1038F000FEF73EFA0220CDE9025000940124694609
:1039000001943046FEF736F9244D0F20CDE900052D
:10391000694602942248FEF72DF91020CDE90004F3
:103920000294694638460394FEF724F92020CDE935
:103930000005694602943846FEF71CF9002203216F
:103940000620FEF749FF0620FEF738FF002202217D
:103950000720FEF741FF0720FEF730FF002201217C
:103960000820FEF739FF0820FEF728FF002201217A
:103970000920FEF731FF0920FEF720FF0022114643
:103980001720FEF729FF1720FEF718FF05B0F0BD3E
:103990000010024000100140000C01400000211006
:1039A0000008014010B586B000241248009401942C
:1039B0000294039404944FF08041059401604FF405
:1039C000FA51C0E9011440F2E731C0E90314802143
:1039D0008161FFF7BEFA4FF48050009069460548B8
:1039E000FFF733FB049404A902480594FFF778FA23
:1039F00006B010BDBC000020FEE70000012819D071
:103A0000022819D0032819D0042819D0052819D064
:103A1000062819D0072819D0082819D0092819D044
:103A20000A2819D00B2819D00C2819D10DA110483B
:103A3000FCF7DCBB0FA1FAE710A1F8E712A1F6E74B
:103A400013A1F4E714A1F2E714A1F0E715A1EEE742
:103A500016A1ECE717A1EAE719A1E8E71AA1E6E742
:103A600070470000446563656D6265720000000088
:103A70005C0000204A616E75617279004665626E75
:103A800075617279000000004D617263680000008A
:103A9000417072696C0000004D6179004A756E6575
:103AA000000000004A756C790000000041756775E0
:103AB0007374000053657074656D62657200000078
:103AC0004F63746F626572004E6F76656D626572EA
:103AD00000000000FEE7704781B007494FF4FA523A
:103AE0000968B1FBF2F14843009000BF0098411E05
:103AF0000091FAD201B070471C0000207047FEF719
:103B000003BE10B590B028216846FCF7ABFC142129
:103B10000AA8FCF7A7FC02200090012004901020C6
:103B20000024059007946846FEF7AEFF0F20CDE90C
:103B30000A040C940D9400210AA80E94FEF792FE3C
:103B400010B010BD704700000148FFF7F1BA000047
:103B5000BC00002030B40268194B1A4CDFF868C072
:103B6000984206D0B0F1804F03D0A04201D060450A
:103B700003D122F070024D682A43984206D0B0F17A
:103B8000804F03D0A04201D0604505D122F440729D
:103B9000D1F80CC04CEA0202D1F814C022F0800225
:103BA00042EA0C0202608A68C2620A688262984233
:103BB00001D1096901630121416130BC70470000F6
:103BC000002C01400004004000080040D0F808C06C
:103BD0002CF47F4C42EA0322114341EA0C0181603C
:103BE0007047826822F07002114341F00701816042
:103BF0007047036AD0F820C02CF0010CC0F820C038
:103C0000D0F818C02CF0F00C4CEA021223F00A0392
:103C10001943826101627047036A23F01003036253
:103C2000D0F818C0036A2CF4704C4CEA023223F02E
:103C3000A00343EA0111826101627047FEE7490077
:103C400050EAC12018BF04204A0D18BF40F00100FF
:103C500040F2FF72B2EB515F08BF40F00200012852
:103C600008BF0520704730380A2801D2012070476C
:103C70000020704770B586B0044600208DF80C0017
:103C80008DF81000012603A8CDE9000664250295F1
:103C900033460F22D0212068FEF7C2FA9DF80C00AF
:103CA000400716D404A8CDE90006029501230E2290
:103CB000D0212068FEF7B4FA9DF81000029540F07C
:103CC0002000CDE9000601230E22D0212068FEF756
:103CD00033FC06B070BD000008B5FEF71DFDFFF710
:103CE00010FFFFF7D9FDFFF75DFE7B4879490026FD
:103CF00001607A49C0E901164FF48041C0E90361CF
:103D000046618661C6610662FEF740F8744C002584
:103D1000A9B2642301227048FEF70EF900B965725A
:103D20006D1CFF2DF4DB6C49A1F14800FDF7E6FCAA
:103D30006949022710234E22A1F128000097FDF7C0
:103D4000AFFB65485430FFF74FF9634DDFF89491AE
:103D50004FF00508483D20780628FCD2DFE800F047
:103D60000371636E7787A0780028F4D05A484838EA
:103D7000FDF7A9FCA87D009057486B7D2A7D5AA1CC
:103D80001C38FCF733FA5448002211462838FDF756
:103D9000EBFB51491C39A1F10C00FDF702FC4E4828
:103DA0004838FDF74AFC687EFFF728FEA87E4A4B9C
:103DB00000900C3BEA7D50A1A3F11000FCF716FA2D
:103DC0004548012200212838FDF7CEFB42491C3925
:103DD000A1F10C00FDF7E5FB3F484838FDF74CFC2E
:103DE000E0603D4800220A212838FDF7BDFBE0686D
:103DF00000F0D8FA024638480B4643A11C38FCF7BD
:103E0000F5F935491C39A1F10C00FDF7CAFB324820
:103E1000DF212838FDF7C2FB2F4843212838FDF762
:103E2000BDFBA67097E7FDF75DFDA0790CE000BF34
:103E300084F80080FDF76EFD66708CE7FDF7F8FCF6
:103E400089E7FDF737FD6079002884D0F0E700228C
:103E500010214846FDF78CFFE0780028E2D00122CF
:103E600010214846FDF784FFE670267073E76079FD
:103E700098B1FDF7BDFC207978B11748AB7D6A7D1C
:103E8000297D4838FDF755FC1348EA7D297E4838DE
:103E9000FDF736FC277026716671A0790028C1D025
:103EA000FDF7A6FC20790028BCD00B48AB7D6A7DCD
:103EB000297D4838FDF77DFCA87E009006486B7E82
:103EC000EA7D297E4838FDF751FC032020702671D9
:103ED000A67140E70054004068000020A086010061
:103EE00000000020000C0140253032643A253032B9
:103EF000643A253032640000253032642C25732C5E
:103F00003230253032640000252E3166000000007A
:103F100010B500290AD00878002807D00548784451
:103F2000FCF794FE002801D0002010BD0248784420
:103F300010BD0000460700003E07000021F00042CF
:103F4000A2F16052B2F5801F01F0004328BFD2F108
:103F50007F6C0BD95FEA001C43EAC20242EB50704F
:103F600018BF704728BF20F001007047B2F5801FCE
:103F7000BCBF184670474FEA410C1CF5001F02D227
:103F8000084600F080BA70B500F0CDF80000008956
:103F9000FFF7F6BF4FF00040A0F58000704700002B
:103FA00010B591EA030F48BF83F0004300F1188178
:103FB000841A71EB030C05D2121943EB0C03001B9E
:103FC00061EB0C01DFF824E14FEA1154A4EB135C20
:103FD0001EEA430F18BF9EEA445F73D023EA0E0324
:103FE000DCF1200E21EA045143F4801332D322FA8B
:103FF0000CFE10EB0E0023FA0CFE41EB0E01CCF18F
:10400000200E03FA0EFE10EB0E0051F10001B1F587
:10401000801FCCF1200E32D201EB045112FA0EF2C5
:10402000BDE8104058BF7047401C38BF5FEA4202ED
:1040300018BF7047002814BF20F0010041F10001B3
:104040004FEA410313F5001F38BF7047A1F1C0418B
:1040500000F0B7B8012A43EB0302ACF1200CDCF10D
:104060001F0E32BF4FF0000E23FA0CF310EB0300CB
:1040700041EB0451B4EB115FD0D0A1EB045101F539
:10408000801149085FEA300001EB04510ED350F172
:10409000000038BF12FA0EFE08D1BDE81040C9E793
:1040A000401C38BF5FEA4202CAD1C3E7BDE81040F6
:1040B0004FEA410313F5001F38BF7047A1F1C0411B
:1040C00000F07FB89EEA445F08D011EA5E0FBDE8B9
:1040D000104004BF01F0004100207047BDE81040CF
:1040E00070B500F020F800BF64FBBE3E0000E0FFAA
:1040F00002494FF0000000F0CDB900BF0000F87F8A
:10410000B0FA80F310FA03F10AD0C3F11D0303F5EE
:1041100080634FEA41504FEA035202EBD1217047CE
:104120004FF0000070470EF1020E2EF0030E5EF805
:10413000046B364205D4012A43EB030515F5001F35
:1041400012D8012841EB010C1CF5001F0CD80ED130
:104150004FEAD17C15F5001F0CEB4C0C0CF1020C56
:1041600008BF4CEBD37C04E04FF0080C01E04FEAB1
:10417000D37C0CEB4C0526FA05F606F00706B6F1E3
:10418000040C06D20EEB860CBDE870404CF0010C1E
:104190006047DFE80CF0090B02024FF000414FF0DE
:1041A0000000A1F5002170BD19461046012851EB11
:1041B000010418BFD4F5001484BF002001F00041B1
:1041C00070BD0808A0F500114FEA310170470000EA
:1041D00010B591EA030F48BF83F000433FF5E8AE06
:1041E000841A71EB030C07D212198CF0004C43EBCC
:1041F0000C03001B61EB0C01DFF8A4E14FEA115442
:10420000A4EB135C1EEA430F18BF9EEA445F00F064
:10421000B08023EA6E03524221EA0451C3EB6E03DD
:1042200038BF5B1EDCF1200E25D322FA0CFE10EB0A
:104230000E0043FA0CFE41EB0E01CCF1200E03FA06
:104240000EFE10EB0E0051F10001CCF1200E29D42E
:1042500012FA0EF201EB0451BDE8104058BF70474E
:10426000401C1CBFB2F1004F704700280CBF491C16
:1042700020F00100704712EB020E43EB030218BF5F
:104280004FF0010E4EEA4202ACF1200CDCF11E0EA2
:1042900054D943FA0CFE10EB0E0051F1FF31CCF172
:1042A0001E0ED5D50EF1010E12FA0EFE404141EB65
:1042B000010101EB445C5FEA5C5C10D910EBDE703D
:1042C00001EB045138BFBEF1004FBDE8104018BFEC
:1042D000704700280CBF491C20F00100704730D205
:1042E0004FEAD42C11F5001124F400641BD0B1FA6C
:1042F00081F20B3AA41AA41ED2F12003914030FAA5
:1043000003F31943904001EBCC71002C01EB0451F5
:10431000BDE81040A8BF704701F1C0414FF0000058
:1043200001F000417047B0FA80F310FA03F100D1B8
:1043300010BDE41A173C4805C90AE4E701EB045133
:1043400010BD491001EB0451BDE810404FEA3000A8
:1043500002E04FF0000170474A0008BF0042F8D069
:10436000B2F5001F28BF704701F000414FF0000078
:1043700070479EEA445F07D011EA5E0FBDE8104027
:1043800004BF002100207047BDE8104070B5FFF762
:10439000CAFE00BF40DFF63E83F000411046704782
:1043A0000000E0FF43004FEAD30C4FEA3C0C4340CF
:1043B0001FBF40070CF1605113F0FE4F70471CF017
:1043C000006F03D100200CF0004170470CF0004357
:1043D00043EA507010B540EACC0000F00EF800BF80
:1043E000000000924FEA0001FFF7EBBE4FF00041E2
:1043F0004FF00000A1F5002170470EF1020E2EF0E3
:10440000030E5EF8044B244204D44FEA4102B2F199
:104410007F4F11D84FEA4003B3F17F4F0CD80ED134
:104420004FEAD07CB2F17F4F0CEB4C0C0CF1020C3C
:1044300008BF4CEBD17C04E04FF0080C01E04FEAE0
:10444000D17C0CEB4C0324FA03F404F00704B4F120
:10445000040C06D20EEB840CBDE810404CF0010CAD
:104460006047DFE80CF0070802024FF00040A0F5BB
:10447000800010BD0846420018BFD2F1807288BF8C
:1044800000F0004010BDFF2141EAD050C005704748
:10449000FCF744B90CF00F03092B08BF082000F00B
:1044A00059800A2B0BD0082B18BF704708BF1CF08F
:1044B000400F0AD04FF000004FF0000170471CF091
:1044C000400F18BF4FF0004070471CF0100F08D08D
:1044D00020F0704300F07F4242EAD3014FEA43707C
:1044E000704700F0604021F07F4242EA000201F094
:1044F0007F4040EA727070474FF0FF0C4CF4E06C64
:104500001CEA11531CBF9CEA030C9445C2BFDA425B
:1045100001EB02517047002B0DD0BCF1000F0FD002
:10452000002A01F00041A4BF41F0E04141F07F6169
:104530004FF00000704701F000414FF0000070475D
:1045400050EA01334FF09B0C18BF4CF0806C7FF4A5
:10455000CFAD70471CF4801F11D01CF4E02F03D0A6
:104560006FEACC31490070474FF04050EFF30082C2
:1045700022F0704242EA000282F3008870474FF056
:10458000000070470000000000000000010203046A
:1045900006070809000000000102030404000008E7
:1045A00000000000000000020001000010000000F8
:1045B00002400000000000A00000000005400000D4
:1045C000000000C8000000000C4000000000409CFB
:1045D00000000000194000000020BCBE00000000E8
:1045E00034400000BFC91B8E00000004B54000002D
:1045F000504BCFD06607E2CF010000006C410000B5
:104600003E8251AADFEEA73401000000D94200002B
:10461000DCB5A0E23A301F97FFFFFFFFB445000072
:10462000FD25A0C8E9A3C14FFFFFFFFFFF3F00002A
:104630000000008000000000FF3F0000000000803C
:10464000000000008046000800000020200000005C
:1046500028010008A04600082000002048070000AC
:10466000440100081C00000043000000F8FFFFFFA9
:104670000C0000000E0000000F0000002E000000E3
:10468000000000000000000000000000000000002A
:104690000100000010000000000000000024F400F1
:04000005080000ED02
:00000001FF
