:020000040800F2
:100000008807002099010008A9350008BD2D0008C7
:10001000D1340008CB060008693900080000000050
:10002000000000000000000000000000D1350008C2
:10003000590B000800000000AB350008D33500085C
:10004000B3010008B3010008B3010008B3010008C0
:10005000B3010008B3010008BD0E0008C30E00087C
:10006000C90E0008CF0E0008B3010008B301000854
:10007000B3010008B3010008B3010008B301000890
:10008000B3010008B3010008B3010008B301000880
:10009000B3010008B3010008B3010008B301000870
:1000A000B3010008B3010008B3010008B301000860
:1000B00029360008B3010008B3010008B3010008A5
:1000C000B3010008B3010008B3010008B301000840
:1000D000B30100085D390008B3010008B30100084E
:1000E000B3010008B3010008B301000800F002F8F2
:1000F00000F042F80AA090E8000C82448344AAF180
:100100000107DA4501D100F037F8AFF2090EBAE87D
:100110000F0013F0010F18BFFB1A43F0010318473B
:10012000B83F0000D83F0000103A24BF78C878C11B
:10013000FAD8520724BF30C830C144BF04680C60ED
:10014000704700000023002400250026103A28BF35
:1001500078C1FBD8520728BF30C148BF0B60704739
:10016000642900F09D80732900F0258200207047EB
:100170001FB51FBD10B510BD00F021FA1146FFF7E5
:10018000F7FF03F02BFC00F03FFA03B4FFF7F2FF98
:1001900003BC00F047FA00000948804709480047BF
:1001A000FEE7FEE7FEE7FEE7FEE7FEE7FEE7FEE727
:1001B000FEE7FEE704480549054A064B7047000084
:1001C00027360008ED00000888010020880700207D
:1001D00088030020880300200FB41CB5074B06AA33
:1001E0007B4469460090059800F0BBF90020694601
:1001F00000F0CAF91CBC5DF814FB0000A503000068
:1002000070B5044685690068C10601D5302600E056
:100210002026C00707D070BDD4E9012130469047A1
:10022000206A401C20626D1EF6D570BD70B5044674
:1002300085690078C00707D170BDD4E9012120206D
:100240009047206A401C20626D1EF6D570BD70B5C7
:100250000C460546012A05D02878800600D5EA69B3
:10026000002302E0012305E05B1C934202D2E05C24
:100270000028F9D1A869E618C01AA861286A1844AC
:1002800028622846FFF7BCFF04E0D5E9012114F8F5
:10029000010B9047B442F8D32846FFF7C7FF70BD63
:1002A0002DE9F0410646002410687529314616A54F
:1002B00010D0AFF30080002802DA404213A507E017
:1002C00031688A0701D512A502E0490704D511A5B6
:1002D000012401E0AFF3008000210A2206F1240787
:1002E00009E0B0FBF2FCB0FBF2F302FB1C00303083
:1002F00078541846491C0028F3D123462A46304634
:10030000BDE8F04100F0CEB8000000002D00000074
:100310002B000000200000002DE9F05F8946044614
:100320004FF0000ADFF824B1FB44C0F820A02046BB
:10033000E168884700287DD0252806D0D4E901212E
:100340009047206A401C2062F1E700255F46204666
:10035000E16888472028064607DB312E05D2B81908
:1003600010F8200C08B10543F1E7A80701D525F0E6
:100370000405C4F81CA00027C4F818A02A2E09D030
:10038000304603F0F2FA38B304EB8708303EC8F881
:10039000186019E059F8041B204604EB87029161AC
:1003A000E1688847012F064618D1E069002820DA65
:1003B00025F020051DE0D8F8180000EB800006EBC2
:1003C00040003038C8F818002046E16888470646E3
:1003D00003F0CBFA0028EED1012F0AD02E2E08D13F
:1003E0002046E16888477F1C0646022F45F020051D
:1003F000C4DBA069002803DA404245F00105A06192
:10040000E80701D025F01005A6B1A6F14100192892
:1004100002D8203645F400654A463146204625601C
:100420004D46FFF79DFE60B1012807D0ED1D25F078
:10043000070000E007E000F1080978E705F104098A
:1004400075E730467AE7206ABDE8F09F983D0000E6
:100450004FF0000200B5134694469646203922BF5D
:10046000A0E80C50A0E80C50B1F12001BFF4F7AFA8
:10047000090728BFA0E80C5048BF0CC05DF804EB8A
:10048000890028BF40F8042B08BF704748BF20F8F8
:10049000022B11F0804F18BF00F8012B70477047F6
:1004A000704770472DE9F0470D469946924604463D
:1004B00000F124080168880604D5E06921F01001E4
:1004C000216000E00120A84201DD471B00E0002779
:1004D000A1697A1902EB0900081AA0612078C00608
:1004E00002D42046FFF78CFE002608E0D4E9012163
:1004F0001AF806009047206A401C761C20624E4580
:10050000F4DB2078C0060AD52046FFF779FE06E026
:10051000D4E9012130209047206A401C2062381E17
:10052000A7F10107F4DC07E0D4E9012118F8050080
:100530009047206A401C2062281EA5F10105F3DCCB
:100540002046FFF773FE2078000602D50220BDE8A2
:10055000F0870120FBE7000001694A1C026108786E
:10056000704700B58FB0CDE90131002105910549F3
:100570007944CDE9031011466846FFF7CDFE0FB070
:1005800000BD0000E5FFFFFF0A6802F8010B0A60EA
:10059000704710B5436913B1AFF3008001E0FFF776
:1005A00056FE012010BD127800F124010A700022CD
:1005B0004A700122EDE711684FF0FF32E9E7754616
:1005C00000F02CF8AE4605006946534620F00700BF
:1005D000854618B020B5FFF7EDFDBDE820404FF08F
:1005E00000064FF000074FF000084FF0000B21F01D
:1005F0000701AC46ACE8C009ACE8C009ACE8C009EA
:10060000ACE8C0098D46704710B50446AFF30080D2
:100610002046BDE81040FFF7B8BD00000048704715
:100620002401002001491820ABBEFEE7260002008D
:10063000704700002DE9F041044600F06FFF0546C9
:100640001A4E601C02D01A4800780444194F4FF427
:10065000FA7800BF00F062FF401BA04203D2F0789E
:1006600018B10020F070BDE8F08101221021384659
:1006700000F04CFF962000F0A3FC00221021384629
:1006800000F044FF462000F09BFC01221021384678
:1006900000F03CFF962000F093FC00221021384629
:1006A00000F034FF404600F08BFCD3E70000002050
:1006B00008000020000C014000F00F01000900EBD1
:1006C000800001EB4000C0B27047FEE7017A0022D3
:1006D00021F00101017200F09EB8017A002241F080
:1006E0000101017200F097B810B50022012100F05D
:1006F00092F8BDE81040052000F062BC10B5044639
:100700000298216022716371A0712820A0720620D6
:10071000E0710C202072142060720820E0723220F8
:1007200000F04EFC00223321204600F074F8052032
:1007300000F046FC00223321204600F06CF8052032
:1007400000F03EFC00223221204600F064F8052033
:1007500000F036FC00222021204600F05CF8052045
:1007600000F02EFCE1790022204600F054F8012030
:1007700000F026FC217A0022204600F04CF80120EF
:1007800000F01EFC617A0022204600F044F80120AF
:1007900000F016FCA17A0022204600F03CF801206F
:1007A00000F00EFC00220121204600F034F8012068
:1007B00000F006FC20460022BDE81040022100F0B7
:1007C0002AB8000008B50BA31B68009343798B423D
:1007D00001D85B1ED9B28379934201D85B1EDAB28D
:1007E0001DF802201144C9B241F08001002200F03E
:1007F00012F808BD80C00000012200F00CB870B5EE
:100800000C46054603E02846641CFFF7F5FF2178F7
:100810000029F8D170BD7CB506460807040EF07AB1
:1008200001F0F00518B145F0080544F00804012A6C
:1008300001D02AB108E045F0010544F0010403E0CD
:1008400025F0010524F0010445F004008DF80400B2
:10085000012000F0B5FB8DF8055044F004008DF840
:100860000600012000F0ACFB4FF47A708DF80740D1
:1008700000903179042301AA306800F0EFFF7CBDBD
:100880000A21B0FBF1F201FB1202B0FBF1F042EAE7
:100890000010C0B270477FB5044600208DF80C00F0
:1008A000012603A8CDE900066425029533460F22F0
:1008B000D021206801F082F89DF80C00029500F02C
:1008C000FE00CDE9000601230F22D021206801F0AF
:1008D00001FA7FBD7FB5044600208DF80C0001268B
:1008E00003A8CDE900066425029533460F22D021E6
:1008F000206801F063F89DF80C00029500F0FD00FF
:10090000CDE9000601230F22D021206801F0E2F991
:100910007FBD2DE9FF41044600208DF80C00012623
:1009200003A8CDE9000664250F46029533460E2242
:10093000D021206801F042F89DF80C0007F0010179
:1009400000F0FE000843CDE90006029501230E22C7
:10095000D021206801F0BEF9BDE8FF812DE9FF41FB
:10096000044600208DF80C00012603A8CDE90006FE
:1009700064250F46029533460E22D021206801F0EF
:100980001DF89DF80C0007F0010100F0FD0040EAA1
:100990004100CDE90006029501230E22D0212068F6
:1009A00001F098F9BDE8FF813EB504464FF47A7234
:1009B00004210E308DE8070001230322D021206896
:1009C00000F0FCFFA07BFFF777FE2076E07BFFF7CF
:1009D00073FEE075207CFFF76FFE6076607CFFF7AA
:1009E0006BFEA0763EBDFEB5044602F0C5FF4FF497
:1009F0007A72022104F112008DE80700012311220E
:100A0000D021206800F0DAFFE07C800903F01EF9B5
:100A10006FF0010203F004FB06460D46A07C03F0D4
:100A200015F932462B4603F061F803B0BDE8F040FB
:100A300003F02AB83EB504464FF47A720321C01D74
:100A40008DE8070001230022D021206800F0B6FFC6
:100A5000E079FFF731FEA075207AFFF72DFE607573
:100A6000607AFFF729FE20753EBD10B5016004468F
:100A70000021FFF74EFF00212046FFF76FFF2046C1
:100A8000FFF709FF2046FFF725FF2046BDE810408D
:100A9000012100F023B8FEB504461E46174608465D
:100AA000089DFFF7EDFEA0723846FFF7E9FEE07201
:100AB0003046FFF7E5FE20732846FFF7E1FE60733E
:100AC0004FF47A72042104F10A008DE80700012333
:100AD0000322D021206801F0FDF8FEBD70B586B07C
:100AE000044600208DF80C0004208DF8100001262B
:100AF00003A8CDE900066425029533460E22D021D5
:100B0000206800F05BFF04A8CDE9000602950123F0
:100B10000E22D021206801F0DDF806B070BDFEB5D0
:100B2000044615460E461846FFF7AAFE20712846D1
:100B3000FFF7A6FE60713046FFF7A2FEA0714FF4EA
:100B40007A720321201D8DE8070001230022D021A5
:100B5000206801F0BFF8FEBD704700000D488078A6
:100B6000062815D2DFE800F0030507090C0F002264
:100B700004E0002205E0002206E00122052104E055
:100B80000122082101E001220B210348FFF71ABED0
:100B90007047000000000020380000201FB5002230
:100BA00005210C48FFF70EFE0BA10A48FFF727FEB0
:100BB000012205210748FFF705FE064808A1203855
:100BC000437D027D6846FFF707FB69460148FFF752
:100BD00016FE1FBD38000020416C61726D000000E0
:100BE000253032643A253032640000001FB50022FF
:100BF00011460E48FFF7E6FD0D4C0EA168466379DD
:100C00002279FFF7E9FA69460848FFF7F8FD012263
:100C100000210648FFF7D6FDA2790AA16846FFF732
:100C2000DBFA69460148FFF7EAFD1FBD38000020E6
:100C30000000002054696D6520253032643A25306B
:100C40003264000044617465202530326400000085
:100C500010B50748FFF748FD002211460448FFF78A
:100C6000B1FDBDE8104003A10148FFF7C8BD000079
:100C7000380000204368616E676520446973706CBA
:100C80006179000010B58AB00E48FFF78DFE0D4C5B
:100C900005A9607E02F01EFCA07E0090E27D05ABFF
:100CA00009A101A8FFF798FA0122002104F1200010
:100CB000FFF788FD01A904F12000FFF7A0FD0AB0AD
:100CC00010BD000018000020253032642C25732C44
:100CD000323025303264000010B50748FFF704FDBC
:100CE000002211460448FFF76DFDBDE8104003A146
:100CF0000148FFF784BD00003800002053657420D0
:100D0000416C61726D00000010B50748FFF7ECFC04
:100D1000002211460448FFF755FDBDE8104003A12D
:100D20000148FFF76CBD00003800002053657420B7
:100D300054696D65000000001FB51048FFF753FEB1
:100D400003F0D6F8C4B20D4800220C212030FFF782
:100D500039FD22460AA16846FFF73EFA0748694670
:100D60002030FFF74CFD0548DF212030FFF744FD20
:100D7000024843212030FFF73FFD1FBD180000202F
:100D8000253032640000000010B51D481D4C86B0AF
:100D9000407868B1012830D12046FFF74BFE217D15
:100DA0000C290ED2A07D00900A46637D16A116E0A4
:100DB0001448FFF73FFEA07D0090637D227D17A1C0
:100DC0000DE0A37D627D02D0A1F10C01C9B20D48F6
:100DD000FFF7A5FEA07D0090637D227D13A101A8F1
:100DE000FFF7FAF90748002211462030FFF7EAFC26
:100DF000044801A92030FFF702FD06B010BD000035
:100E00000000002018000020253032643A253032DE
:100E1000643A2530326420414D00000025303264B0
:100E20003A253032643A253032640000253032648D
:100E30003A253032643A2530326420504D000000AB
:100E400010B5002286B011461148FFF7BBFC104CCC
:100E500010A1203CA07D0090637D227D01A8FFF7BA
:100E6000BBF901A90A48FFF7CAFC01220021084882
:100E7000FFF7A8FCA07E0090637EE27D0AA101A896
:100E8000FFF7AAF901A90248FFF7B9FC06B010BDA7
:100E90003800002054696D6520253032643A2530D1
:100EA00032643A2530326400446174652025303262
:100EB000642D253032642D2530326400012000F08D
:100EC0001BBA022000F018BA042000F015BA08205E
:100ED00000F012BA90F821100022022905D0042156
:100EE000816380F820200120704701680B6823F09F
:100EF0000E030B6001680B6823F001030B6090F890
:100F00004030D0F83CC0012101FA03F3CCF80430A2
:100F100080F8211080F820201046704710B500247A
:100F200090F82110022903D004218163012437E0C5
:100F300001680A6822F00E020A6001680A6822F05D
:100F400001020A60174A0168914201D101211CE0A7
:100F5000154A914201D1102117E0144A914201D162
:100F6000891512E0124A914201D189140DE0114A0B
:100F7000914202D14FF4803107E00F4A914202D1F1
:100F80004FF4801101E04FF080710C4A5160012153
:100F900080F82110002180F82010416B01B18847B2
:100FA000204610BD080002401C00024030000240F4
:100FB00044000240580002406C0002400000024021
:100FC00070B5044600F0AAFA0546B4F1FF3F02D01E
:100FD00004480078044400F0A1FA401BA042FAD370
:100FE00070BD0000080000202DE9F84FC04C00261D
:100FF000012794F800C0BF4D4FF00309012813D01A
:1010000021464FF0050B91F8028002284AD00B7957
:101010004A798979042871D0082870D14FF03B0AA9
:10102000BCF1050F6CD01DE1BCF1070F67D2DFE802
:101030000CF004090F5C82151A002770BDE8F84F08
:10104000FFF74ABE02202070BDE8F84FFFF75CBEF4
:1010500084F80090BDE8F84FFFF7FABDA5482030AE
:10106000FFF734FB41E0A3482030FFF72FFBAB7DB7
:101070006A7D297D9F48FFF752FDA87E00906B7E18
:10108000EA7D297E9B48FFF706FD9A4826702030AE
:10109000FFF72AFBFFF778FEFFF74EFEBDE8F84F9B
:1010A000FFF7F0BDBCF1070F45D2DFE80CF04404B8
:1010B0000D1B432A3B008F4884F800B02030FFF717
:1010C00013FBFFF793FD07E00620207089482030CE
:1010D000FFF70AFBFFF7B4FE8648A6702030FFF743
:1010E000FCFA83E0607838B166702670BDE8F84F8E
:1010F00080482030FFF7F8BA6770F6E71DE01AE085
:1011000086E0B8F1000F06D0B8F1010F05D0B8F1B4
:10111000030F6BD104E0A77068E084F8029065E0EB
:10112000A67063E0B8F1050F01D1FF20A070A07890
:10113000401C4EE0E770BDE8F88FBCF1050F28D1E8
:10114000B8F1000F0AD0B8F1010F11D0B8F1030FB8
:10115000F1D11F2916D2491CA17114E0172B02D21C
:101160005B1C237100E02671FFF740FDA6700EE0C6
:101170003B2A02D2521C627100E06671FFF736FD15
:10118000A77004E0A771FFF731FD84F80290FFF724
:10119000E5FC20780628CED1A0780628CBD2DFE85F
:1011A00000F0030A1130291A287D172801D2401CAB
:1011B00068E02E7567E0687D3B2801D2401C68E03E
:1011C0006E756AE0A87D3B2801D2401C6BE0AE75CD
:1011D0006DE0A0700AE0A87E632801D2401C6FE099
:1011E00085F81A60FFF72CFE84F802B0BDE8F84FCE
:1011F000FFF7B4BC687E0C2801D2401C68E06F7613
:1012000067E0E87D1F2801D2401C6CE0EF756BE0C1
:10121000B8F1000F0AD0B8F1010F11D0B8F1030FE7
:1012200089D1012916D9491EA17115E013B15B1EA0
:10123000237101E017202071FFF7D8FCA6700FE0A2
:1012400012B1521E627101E084F805A0FFF7CEFCD6
:10125000A77005E01F20A071FFF7C8FC84F802907A
:10126000FFF77CFC2078062895D1A078062895D237
:10127000DFE800F0030C16332821287D08B1401E5A
:1012800000E017202875FFF7DBFD49E7687D10B106
:10129000401E687501E085F815A0FFF7D1FD3AE71B
:1012A000A87D10B1401EA87501E085F816A0FFF7D3
:1012B000C7FD02208DE7A87E08B1401E00E0632034
:1012C000A8768FE7687E012801D9401E00E00C2037
:1012D0006876FFF7B5FD04207BE7E87D012801D99A
:1012E000401E00E01F20E875FFF7AAFD15E700008B
:1012F000000000201800002010B504490A680242CE
:1013000002D00860FFF770FE10BD00001404014019
:101310002DE9F84F4FF0000C00230A68002A7DD019
:10132000DFF8DC810F2708F1040909F1040A0AF14A
:10133000040B012202FA0CF60A683240B2426ED166
:10134000DFF8C0E14C68A4EB0E0574452BD00DDC32
:10135000032C34D005DC34B3012C19D0022C2FD14E
:101360001BE0112C16D0122C2AD119E0B5F5881FDC
:1013700019D006DCB5F5803F15D0B5F5801F1FD11B
:1013800011E0B5F5001F0ED0B5F5041F18D10AE025
:10139000CB6815E0CB681B1D12E0CB6808330FE06B
:1013A000CB680C330CE08B6823B1012B04D00823ED
:1013B000466105E0042303E00823066100E0002302
:1013C000B2F5807F01D2054601E000F1040502D2AA
:1013D0004FEA8C0403E0ACF108044FEA84042E6861
:1013E00007FA04FE26EA0E0603FA04F446EA0404A9
:1013F0002C604C6814F0805F79D0434CA56945F0AF
:101400000105A561A46904F0010400942CF0030413
:1014100004F1804404F58034A66801E06EE066E0E3
:101420004FEA8C754FEA157507FA05FE26EA0E0E8F
:10143000A0F18046B6F584361ED0A0F18046B6F500
:1014400086361BD0A0F18046B6F5883618D0A0F1BC
:101450008046B6F58A3615D0042606FA05F545EA23
:101460000E05A5604C6814F4803F0DD0D8F80040FC
:101470001443C8F800400CE00026EEE70126ECE734
:101480000226EAE70326E8E7D8F800409443C8F8C4
:1014900000404C6814F4003F05D0D9F800401443D4
:1014A000C9F8004004E0D9F800409443C9F800406E
:1014B0004C6814F4801F05D0DAF800401443CAF8D1
:1014C000004004E0DAF800409443CAF800404C6859
:1014D00014F4001F05D0DBF800402243CBF80020B5
:1014E00005E0DBF8004024EA0202CBF800200CF112
:1014F000010C0A6832FA0CF27FF41BAFBDE8F88FDA
:10150000000401400000111000100240002A01D028
:10151000016170470904016170470000014880685B
:10152000704700000800002070B50446002C04D06D
:1015300094F83D00002510B106E0012070BD84F84C
:101540003C50204600F080FC242084F83D002068B8
:10155000016821F0010101602068016841F4004147
:1015600001602068016821F40041016000F00EFE76
:10157000544B6168994203D85349884203D304E02D
:101580005249884201D2012070BD5149B0FBF1F1AE
:101590002268D2F804C02CF03F0C4CEA010CC2F8CF
:1015A00004C062689A4201D84A1C07E04FF4967260
:1015B00051434FF47A72B1FBF2F14A1C2168D1F821
:1015C00020C02CF03F0C42EA0C020A62616899428A
:1015D00010D84900401EB0FBF1F2521CC2F30B02BE
:1015E000042A01D2042026E0B0FBF1F0401CC0F335
:1015F0000B0020E0A268002A50D001EBC10303EBEE
:101600000113A0F1010CBCFBF3F35B1C43F480431A
:101610001B051B0D4AD0002A4AD001EBC10202EB88
:101620000111401EB0FBF1F0401CC0F30B0040F470
:10163000804040F400402168CA6922F0FF0222F491
:101640004F421043C861216AE06901432068026883
:1016500022F0C00211430160E16820690143206863
:10166000826822F0FF0222F4034211438160A169E3
:10167000606901432068C26822F0FF021143C16023
:101680002068016841F0010101602564202084F890
:101690003D00256384F83E50002070BD01EB4103FE
:1016A000A0F1010CBCFBF3F35B1CB1E70120C2E726
:1016B00001EB4101401EB0FBF1F0401CC0F30B00F8
:1016C000B7E70000A086010080841E0000093D00ED
:1016D00040420F002DE9F84F0446884692461E46C8
:1016E000FFF71CFF0546012794F83D00202802D093
:1016F0000220BDE8F88F19230122564920460095A3
:1017000001F010FD10B10220BDE8F88F94F83C0004
:10171000012808D0012084F83C002068016811F0FD
:10172000010F03D006E00220BDE8F88F016841F008
:10173000010101602068016821F40061016024203A
:1017400084F83D00002020644348E06208F0FE0970
:101750004FF0A0084FF0200B2068016841F4807121
:101760000160334600224FF001112046009501F040
:10177000D9FC50B12068006810F4807F02D04FF48B
:10178000007020640320BDE8F88F2068C0F8109036
:10179000FFF7C4FE054620684169C1F34001406976
:1017A000C0F380200EE0FFF7B9FE401BB04200D826
:1017B0000EB984F83D8020684169C1F34001406959
:1017C000C0F3802094F83D20A02A02D009B9002857
:1017D000E9D084F83DB02068416911F0020F1BD0B8
:1017E0002168096841F400710160002620684169A0
:1017F000806900901923012216492046009501F0C6
:1018000091FC10B10120BDE8F88F84F83DB084F858
:101810003C600020BDE8F88F016841F40071016070
:1018200021686FF48060486119230122094920462C
:10183000009501F077FC10B10120BDE8F88F7F1C06
:10184000574589D384F83DB0002084F83C0001203E
:10185000BDE8F88F020010000000FFFF2DE9F84FEF
:1018600004468A46904699460A9FFFF757FE064669
:1018700094F83D00202802D00220BDE8F88F1923FB
:1018800001224C492046009601F04CFC10B1022088
:10189000BDE8F88F94F83C00012808D0012084F8B6
:1018A0003C002068016811F0010F03D006E002201F
:1018B000BDE8F88F016841F001010160206801680E
:1018C00021F400610160212084F83D00102084F89B
:1018D0003E0000252564C4F82480A4F82A90608D79
:1018E00020853548E06233463A465146204601F0AD
:1018F0007FFA10B10120BDE8F88F20684169806946
:101900000090208D002846D032463946204601F00E
:1019100008FD50B1206C042804D12068016841F40E
:10192000007101600120BDE8F88F606A21680078CD
:101930000861606A00F1010CC4F824C0608D401E8B
:101940006085208D401E80B220852268516911F08B
:10195000040F0CD058B19CF800001061606A401C64
:101960006062608D401E6085208D401E208532465D
:101970003946204601F0A8FB50B1206C042804D160
:101980002068016841F4007101600120BDE8F88F12
:10199000208D0028B8D12068016841F400710160F1
:1019A000202084F83D0084F83E5084F83C5000200C
:1019B000BDE8F88F020010000000FFFF2DE9FF4F87
:1019C00083B00446DDF84490DDF84080129E8A46DC
:1019D000934600270297FFF7A1FD054694F83D00C6
:1019E000202803D007B00220BDE8F08F1923012280
:1019F000B4492046009501F095FB18B107B00220CC
:101A0000BDE8F08F94F83C00012808D0012084F84C
:101A10003C002068016811F0010F04D007E007B016
:101A20000220BDE8F08F016841F0010101602068EB
:101A3000016821F400610160222084F83D0040200B
:101A400084F83E002764C4F82480A4F82A90608DAE
:101A500020859D48E062019500965A4651462046F1
:101A6000069B01F01FFA18B107B00120BDE8F08F06
:101A7000208D68B3012834D0022842D02068016844
:101A800041F4806101602068416980690190208D86
:101A90004FF02008002800F00B81DFF830B2DFF8AB
:101AA000309246F2A81A208D032800F2D680012831
:101AB00037D002284DD033460022594620460095A3
:101AC00001F030FB002872D007B00120BDE8F08F94
:101AD0002068416981690191016841F400710160E8
:101AE000D5E72068016821F48061016072B6206842
:101AF000416981690191016841F40071016062B638
:101B0000C5E72068016841F40061016072B6206891
:101B1000416981690191016821F48061016062B6C7
:101B2000B5E72A463146204601F0BDFB18B107B0A3
:101B30000120BDE8F08F20680069616A0870606A62
:101B4000401C6062208D401E2085608D401E608597
:101B5000AAE03346002259462046009501F0E2FAF9
:101B600018B107B00120BDE8F08F72B62068016897
:101B700041F40071016020680069616A0870606A60
:101B8000401C6062218D491E2185618D491E618541
:101B900062B6216809690170606A401C6062208D2C
:101BA000401E2085608D401E60857DE0FFE7206837
:101BB000016821F48061016072B620680069616A81
:101BC0000870606A401C6062208D401E2085608D18
:101BD000401E6085D9F80000B0FBFAF0C0EBC000F1
:101BE00000EB800002900298401E0290029820B301
:101BF0002068406910F0040FF5D02068016841F4B6
:101C00000071016020680069616A0870606A401CA8
:101C10006062218D491E2185618D491E618562B6F4
:101C2000216809690170606A401C6062208D401E55
:101C30002085608D401E608536E0276384F83D80F6
:101C400084F83E70206C40F02000206462B684F876
:101C50003C7007B00120BDE8F08F2A46314620468F
:101C600001F021FB18B107B00120BDE8F08F20681A
:101C70000069616A0870606A411C6162208D401EC3
:101C80002085608D401E60852068426912F0040F37
:101C90000AD000690870606A401C6062208D401E96
:101CA0002085608D401E6085208D00287FF4FBAE6E
:101CB00084F83D8084F83E7084F83C7007B00020C2
:101CC000BDE8F08F020010000000FFFF04000100DB
:101CD000140000202DE9FF4F83B004468A46934646
:101CE000DDF84490DDF84080129EFFF717FC0546B2
:101CF00094F83D00202803D007B00220BDE8F08F03
:101D0000192301224E492046009501F00BFA18B123
:101D100007B00220BDE8F08F94F83C00012808D0FD
:101D2000012084F83C002068016811F0010F04D004
:101D300007E007B00220BDE8F08F016841F0010123
:101D400001602068016821F400610160212084F8AD
:101D50003D00402084F83E0000272764C4F824801A
:101D6000A4F82A90608D20853648E062019500969F
:101D70005A4651462046069B01F03EF918B107B07D
:101D80000120BDE8F08F208D002836D02A4631464C
:101D9000204601F0C6FA58B1206C042804D120680E
:101DA000016841F40071016007B00120BDE8F08FC7
:101DB000606A216800780861606A00F1010CC4F86B
:101DC00024C0208D401E80B22085618D491E618512
:101DD0002368596911F0040F0CD058B19CF8000029
:101DE0001861606A401C6062208D401E2085608DF5
:101DF000401E6085208D0028C8D12A4631462046E5
:101E000001F062F958B1206C042804D120680168FF
:101E100041F40071016007B00120BDE8F08F206837
:101E2000016841F400710160202084F83D0084F8CD
:101E30003E7084F83C7007B00020BDE8F08F0000D1
:101E4000020010000000FFFF10B586B000210091D5
:101E500001910291039100680F4988421AD10F4CF9
:101E6000A06940F00800A061A069694600F0080080
:101E70000490C02000901220019003200390084895
:101E8000FFF746FAE06940F40010E061E06900F411
:101E90000010049006B010BD005400400010024035
:101EA000000C01400248816802781144816070474B
:101EB0000800002010B50748016841F010010160DA
:101EC000032000F08BF8002000F006F800F026F860
:101ED000002010BD0020024070B504460D4D4FF4A7
:101EE0007A712878B1FBF0F00B490968B1FBF0F08A
:101EF00000F0BEFB08B1012070BD102C07D20022FB
:101F00002146501E00F036F86C60002070BD0120A4
:101F100070BD000008000020140000200C4808B527
:101F2000816941F001018161816901F00101009144
:101F3000C16941F08051C161C06900F080500090DA
:101F40000448416821F0E06141F08061416008BDD2
:101F5000001002400000014000280ADB00F01F01D1
:101F6000012202FA01F14009800000F1E020C0F8EE
:101F70000011704710B4184B1B68C3F30223C3F160
:101F8000070CBCF1040F01D94FF0040C1C1D072CE9
:101F900001D2002300E0DB1E012404FA0CFCACF1AA
:101FA000010C0CEA0101994004FA03F35B1E1A408C
:101FB0001143002806DB00F1E020090180F800143D
:101FC00010BC704700F00F0000F1E020090180F81C
:101FD000141D10BC704700000CED00E000F007007D
:101FE000064A11684FF6FF03194041EA002040F00D
:101FF000FD7040F080601060704700000CED00E064
:102000002DE9F04704460D46002C17D0DFF85C811F
:10201000D8F8000000F00700A84212D2D8F800005B
:1020200020F007002843C8F80000D8F8000000F0AE
:102030000700A84205D00120BDE8F0870120BDE8D7
:10204000F08720684A4E10F0020F14D010F0040FF1
:1020500003D0706840F4E0607060207810F0080FE2
:1020600003D0706840F460507060706820F0F00138
:10207000A06808437060207810F0010F3AD06068C3
:10208000012806D002280BD0316811F0020F27D0AA
:102090000AE0316811F4003F06D10120BDE8F08765
:1020A000316811F0007F18D0716821F003010843F6
:1020B0007060FFF733FA07467068616800F00C0043
:1020C000B0EB810F16D041F28839FFF727FAC01B19
:1020D000484508D90320BDE8F0870120BDE8F08716
:1020E0000120BDE8F0877068616800F00C00B0EB7B
:1020F000810FEAD1D8F8000000F00700A8420FD9FC
:10210000D8F8000020F007002843C8F80000D8F8ED
:10211000000000F00700A84202D00120BDE8F087CF
:10212000207810F0040F05D07068E16820F4E060BA
:1021300008437060207810F0080F06D0706821699D
:1021400020F4605040EAC100706000F03FF8716810
:10215000084AC1F30311515CC840074908600748A9
:102160000068FFF7B9FE0020BDE8F08700200240BC
:1021700000100240AC400008140000200C000020B9
:1021800001480068704700001400002000B5FFF708
:10219000F7FF04494968044AC1F30221515CC84071
:1021A00000BD000000100240BC40000800B5FFF771
:1021B000E7FF04494968044AC1F3C221515CC840A1
:1021C00000BD000000100240BC40000885B015A012
:1021D000836842680168C068039302920191049089
:1021E00014A000680090144B5968144801F00C02C8
:1021F000042A11D0082A0FD101A8C1F38342805CC0
:1022000011F4803F0AD05968C1F340411DF8011014
:102210000A4A5043B0FBF1F005B07047084905B0D9
:102220004843704702030405060708090A0B0C0D12
:102230000E0F1010010200000010024000127A0080
:1022400000093D002DE9F84F0446002C0FD02078FE
:10225000F84D10F0010F6CD0686800F00C000428F5
:102260000CD0686800F00C00082803D010E00120B2
:10227000BDE8F88F686810F4803F09D0286810F432
:10228000003F56D06068002853D10120BDE8F88F88
:102290006068B0F5803F15D0C8B1B0F5A02F1FD051
:1022A000286820F480302860286820F48020286086
:1022B000606858B3FFF732F90646286810F4003F0B
:1022C00017D036E0286840F480302860F0E72868AE
:1022D00020F480302860286820F480202860E7E718
:1022E000286840F480202860286840F48030286006
:1022F000DEE7FFF713F9801B642802D90320BDE84D
:10230000F88F286810F4003FF3D012E0FFF706F9C9
:102310000646286810F4003F0BD0FFF7FFF8801B3B
:10232000642802D90320BDE8F88F286810F4003F24
:10233000F3D12078C04F10F0020F4FF0010B4FF097
:10234000000854D0686810F00C0F14D0686800F0D2
:102350000C00082803D1686810F4803F0BD0206976
:1023600078B3C7F800B0FFF7D9F80646286810F030
:10237000020F12D01DE0286810F0020F05D020696E
:10238000012802D00120BDE8F88F2868616920F09B
:10239000F80040EAC100286029E0FFF7BFF8801B81
:1023A000022802D90320BDE8F88F286810F0020F38
:1023B000F3D02868616920F0F80040EAC100286085
:1023C00015E0FFE7C7F80080FFF7A8F80646286881
:1023D00010F0020F0BD0FFF7A1F8801B022802D9E2
:1023E0000320BDE8F88F286810F0020FF3D12078A1
:1023F00010F0080F30D09148A169C1B1C0F800B009
:10240000FFF78CF80646686A10F0020F0BD1FFF751
:1024100085F8801B022802D90320BDE8F88F686A7E
:1024200010F0020FF3D0012001F0C0F814E0C0F862
:102430000080FFF773F80646686A10F0020F0BD0B1
:10244000FFF76CF8801B022802D90320BDE8F88F43
:10245000686A10F0020FF3D1207810F0040F6FD0EB
:102460000026E86910F0805F08D1E86940F08050EC
:10247000E861E86900F0805000900126DFF8C0A113
:10248000DAF8000010F4807F1BD1DAF8000040F485
:102490008070CAF80000FFF741F88146DAF80000C2
:1024A00010F4807F0DD1FFF739F8A0EB0900642804
:1024B00002D90320BDE8F88FDAF8000010F4807F1D
:1024C000F1D0E068012816D0D0B1052821D0286AC3
:1024D00020F001002862286A20F004002862E068E9
:1024E00041F2883A68B3FFF719F88146286A10F07C
:1024F000020F17D03AE0286A40F001002862EEE7A8
:10250000286A20F001002862286A20F0040028626E
:10251000E5E7286A40F004002862286A40F00100DC
:102520002862DCE7FEF7FAFFA0EB0900504502D96C
:102530000320BDE8F88F286A10F0020FF2D015E0F2
:102540001AE0FFE7FEF7EAFF8146286A10F0020F63
:102550000CD0FEF7E3FFA0EB0900504502D90320A1
:10256000BDE8F88F286A10F0020FF2D1012E03D1D6
:10257000E86920F08050E861E069E8B3696801F03B
:102580000C0108295ED0022810D0C7F86080FEF741
:10259000C5FF0446286810F0007F66D0FEF7BEFF36
:1025A000001B022841D90320BDE8F88FC7F86080DE
:1025B000FEF7B4FF0646286810F0007F0BD0FEF748
:1025C000ADFF801B022802D90320BDE8F88F2868E0
:1025D00010F0007FF3D1206AB0F5803F05D1686824
:1025E000A16820F4003008436860616A206A0843EB
:1025F000696821F4741100E037E008436860C7F8A7
:1026000060B0FEF78BFF0446286810F0007F2CD1E5
:10261000FEF784FF001B022802D90320BDE8F88FD3
:10262000286810F0007FF3D01FE0286810F0007FCA
:10263000B4D11AE00010024000004242800442423D
:102640000070004001280DD06868226A00F48031D3
:10265000914204D1616A00F47010884205D00120D3
:10266000BDE8F88F0120BDE8F88F0020BDE8F88FA5
:10267000401EB0F1807F01D3012070474FF0E02170
:102680004861044AF020107000208861072008612A
:102690000020704723ED00E07047704730B490F899
:1026A0003C20012A30D0012480F83C40022280F8EE
:1026B0003D200268D2F804C093682CF0700C0D68BD
:1026C00045EA0C0CC2F804C00268A2F1804CBCF5CB
:1026D000963C0CD0B2F1804F09D0A2F1804CBCF5F1
:1026E000806C04D0A2F1804CBCF5006C04D123F0C6
:1026F000800349681943916080F83D40002180F8CB
:102700003C1030BC0020704730BC0220704710B530
:102710000446002C03D094F83D0010B107E00120DE
:1027200010BD002084F83C00204600F01FF8022075
:1027300084F83D00211D206800F07CFF012084F812
:10274000460084F83E0084F83F0084F8400084F896
:10275000410084F8420084F8430084F8440084F87F
:10276000450084F83D00002010BD000008B5006859
:10277000B0F1804F12D10A48C16941F00101C16135
:10278000C069002200F00100009004211C20FFF726
:10279000F1FBBDE808401C20FFF7DEBB08BD0000D0
:1027A0000010024090F83D10012901D0012070472F
:1027B000022180F83D100168CA6842F00102CA6037
:1027C0000068A0F18041B1F5963112D0B0F1804F90
:1027D0000FD0A0F18041B1F580610AD0A0F1804115
:1027E000B1F5006105D0016841F0010101600020F0
:1027F0007047816801F007010629F8D0016841F0AF
:1028000001010160F3E770B5044694F83C0001282B
:1028100018D0012584F83C50022084F83D0020683F
:10282000826822F0770222F47F4282600868502892
:1028300032D00EDC20284DD006DC00284AD01028EB
:102840004DD147E0022070BD302843D0402846D10A
:1028500036E060282AD0702806D0B0F5805F3ED0E0
:10286000B0F5005F3BD10BE0CB684A68896820680F
:1028700000F01CFF2068816841F0770181602EE044
:10288000CB684A688968206800F010FF206881687A
:1028900041F48041816022E0CA684968206800F004
:1028A00018FF5021206800F00CFF18E0CA68496842
:1028B000206800F021FF6021206800F002FF0EE098
:1028C000CA684968206800F004FF4021206800F0D1
:1028D000F8FE04E022680146104600F0F2FE84F89B
:1028E0003D50002084F83C0070BD704770B5044630
:1028F000206801694FF0000511F0020F17D0C16880
:1029000011F0020F13D0E91E016101202077206829
:10291000806910F0030F03D02046FFF7E6FF05E0C3
:10292000204600F09DF8204600F09BF825772068AF
:10293000016911F0040F18D0C16811F0040F14D010
:102940006FF004010161022020772068806910F493
:10295000407F03D02046FFF7C8FF05E0204600F087
:102960007FF8204600F07DF825772068016911F096
:10297000080F18D0C16811F0080F14D06FF00801CB
:102980000161042020772068C06910F0030F03D094
:102990002046FFF7AAFF05E0204600F061F8204638
:1029A00000F05FF825772068016911F0100F18D04A
:1029B000C16811F0100F14D06FF0100101610820F0
:1029C00020772068C06910F4407F03D02046FFF7CD
:1029D0008CFF05E0204600F043F8204600F041F867
:1029E00025772068016911F0010F09D0C16811F045
:1029F000010F05D06FF001010161204600F032F8AF
:102A00002068016911F0800F09D0C16811F0800FB2
:102A100005D06FF0800101612046FFF73DFE206880
:102A2000016911F0400F09D0C16811F0400F05D0C5
:102A30006FF040010161204600F048F8206801690C
:102A400011F0200F0BD0C16811F0200F07D06FF0EC
:102A5000200101612046BDE87040FFF71EBE70BD39
:102A60007047704710B5174C2078002829D1FEF721
:102A70008BF9FEF761F9FEF705F913482279017D1C
:102A800091421ED1417D627991421AD1817D002906
:102A900017D1C07DA179884213D1042020700A4843
:102AA0002030FDF721FEFEF779F841F28830FDF77E
:102AB000C1FD002020700448BDE810402030FDF723
:102AC00013BE10BD000000201800002070477047A2
:102AD00070470000F8B5044622681068D168536951
:102AE00000F00F0CBCF1000F0AD110F0200F07D03E
:102AF00011F0200F04D02046BDE8F84000F03BBEA6
:102B00000025BCF1000F6DD003F0010C01F49076AC
:102B10005CEA060666D010F0010F06D011F4807F43
:102B200003D0226C42F00102226410F0040F06D0A0
:102B300013F0010F03D0226C42F00202226410F065
:102B4000020F06D013F0010F03D0226C42F00402F2
:102B5000226410F0080F08D001F0200252EA0C02A3
:102B600003D0226C42F008022264226C002A2FD08B
:102B700010F0200F05D011F0200F02D0204600F0F9
:102B8000FAFD20684069C0F38010216C11F0080F35
:102B900000D110B3204600F0C9FD2068416911F052
:102BA000400F16D0416921F040014161A06B60B136
:102BB00047494163A06BFEF7B1F9002808D0A06B2C
:102BC000416B01B0BDE8F04008472046FFF780FFA9
:102BD000F8BD2046FFF77CFFF8BD2046FFF778FFE1
:102BE0002564F8BD236B012B5BD110F0100F58D07A
:102BF00011F0100F55D010685068009050694FF0D8
:102C0000200310F0400F2ED0A16B0868406880B2FE
:102C10000028E6D0B4F82CC08445E2D9E085886964
:102C2000202818D0D06820F48070D06020684169D6
:102C300021F0010141612068416921F040014161B9
:102C400084F83E3025632068C16821F01001C1601E
:102C5000A06BFEF73FF9A08DE18D401A81B22046AE
:102C6000FFF735FFF8BDA08DE18D401A81B2E08DF0
:102C70000028F7D00029F5D0D06820F49070D060FB
:102C80002068426922F00102426184F83E302563E7
:102C90002068C26822F01002C2602046FFF717FFCA
:102CA000F8BD10F0800F07D011F0800F04D020463F
:102CB000BDE8F84000F022BE10F0400FF0D011F057
:102CC000400FEDD02046BDE8F84000F047BD0000C1
:102CD0001D37000870B50446002C04D094F83D0060
:102CE000002510B106E0012070BD84F83C5020465C
:102CF00000F022F8242084F83D002068C16821F407
:102D00000051C160204600F095FD2068016921F462
:102D1000904101612068416921F02A0141612068E8
:102D2000C16841F40051C1602564202084F83D0051
:102D300084F83E00002070BD30B585B000240094BA
:102D40000194029403940068184988422CD11848D1
:102D5000816941F480418161816901F4804104917C
:102D6000816941F0040181618069124D00F0040025
:102D700004904FF400700090022001900320039013
:102D800069462846FEF7C4FA2815CDE900046946CD
:102D900028460294FEF7BCFA002211462520FFF7D0
:102DA000E9F82520FFF7D8F805B030BD003801401C
:102DB000001002400008014070477047FEE70168BC
:102DC0004A6912F4806F11D06FF480624A61002169
:102DD0000163202280F83D2080F83E10026C42F012
:102DE0000402026480F83C10012070470020704704
:102DF000F8B504460D4617461E46E06A082808D076
:102E0000012806D010F5803F03D0206B122806D091
:102E10000AE02068016841F48071016004E02068E4
:102E2000016841F4807101603B4600224FF00111BE
:102E30002046009600F076F948B12068006810F44A
:102E4000807F02D04FF4007020640320F8BD206919
:102E5000B0F5804F0FD005F44070F02141EAD0105A
:102E60002168086133463A460C49204600F0B4F91F
:102E700030B10120F8BD216805F0FE00086102E0D4
:102E80002168E8B2086133463A460549204600F019
:102E9000A3F908B10120F8BD0020F8BD0800010029
:102EA000020001002DE9F84F0446DDF828A00B9D33
:102EB0000F4690461E462068016841F4806101601B
:102EC0002068016841F480710160534600224FF090
:102ED00001112046009500F025F94FF4007948B122
:102EE0002068006810F4807F01D0C4F8409003206F
:102EF000BDE8F88F216807F0FE000861DFF8F4B044
:102F00002B4652465946204600F066F910B1012082
:102F1000BDE8F88F20684169806900902A465146D3
:102F2000204600F0FEF950B1206C042804D120683E
:102F3000016841F4007101600120BDE8F88F30465E
:102F400008F0FF0601280DD021684FEA182008611B
:102F50002A465146204600F0E4F970B1206C04285E
:102F600003D007E02068066109E02068016841F4A9
:102F7000007101600120BDE8F88F206806612A46D3
:102F80005146204600F0CDF950B1206C042804D100
:102F90002068016841F4007101600120BDE8F88FEC
:102FA0002068016841F480710160534600224FF0AF
:102FB00001112046009500F0B5F848B1206800687E
:102FC00010F4807F01D0C4F840900320BDE8F88F52
:102FD0002168F8B240F0010008612B46524659467C
:102FE000204600F0F9F810B10120BDE8F88F00206C
:102FF000BDE8F88F020001002DE9F8430446DDF832
:103000002090099F0D46164698462068016841F4B5
:10301000807101604B4600224FF00111204600975D
:1030200000F080F850B12068006810F4807F02D072
:103030004FF4007020640320BDE8F883216805F098
:10304000FE0008613B464A461E49204600F0C4F88F
:1030500010B10120BDE8F8832068416980690090C3
:103060003A464946204600F05CF950B1206C0428ED
:1030700004D12068016841F4007101600120BDE8BD
:10308000F883F5B2B8F1010F0CD02168300A08615D
:103090003A464946204600F044F970B1206C0428B5
:1030A00003D007E02068056109E02068016841F469
:1030B000007101600120BDE8F883206805610020EF
:1030C000BDE8F8830200010070B504460D461646BF
:1030D0002068406910F0040F13D12046FFF76FFEFF
:1030E00008B1012070BDB5F1FF3F05D0FEF716FA1B
:1030F000801BA84207D835B12068406910F0040F42
:10310000EBD0002070BD00202063202184F83D100A
:1031100084F83E00216C41F02001216484F83C00D9
:10312000012070BD2DE9F0470446DDF820900D46E2
:1031300017461E46C5F307482068B8F1010F22D094
:10314000806925EA00000004000C26D00020B84267
:1031500016D1B6F1FF3F06D0FEF7E0F9A0EB09006B
:10316000B0421CD8DEB1B8F1010F28D020688069C8
:1031700025EA00000004000C2CD00020B842E8D062
:103180000020BDE8F087406925EA00000004000C3B
:1031900001D00020DBE70120D9E70120D7E700209C
:1031A0002063202184F83D1084F83E00216C41F01A
:1031B0002001216484F83C000120BDE8F0872068EC
:1031C000406925EA00000004000C01D00020D5E78A
:1031D0000120D3E70120D1E72DE9F04704460D4651
:1031E00016461F46C5F307482068B8F1010F26D0E0
:1031F000806925EA00000004000C3AD04FF0000975
:103200004FF0200A2068406910F4806F1ED02068BB
:10321000016841F40071016021686FF480604861C9
:10322000C4F8309084F83DA084F83E90206C40F0C3
:103230000400206484F83C900120BDE8F0874069D8
:1032400025EA00000004000C13D0D7E7B6F1FF3FD9
:1032500005D0FEF763F9C01BB0420DD866B1B8F1D6
:10326000010F18D02068806925EA00000004000CD6
:10327000C8D10020BDE8F087C4F8309084F83DA0A4
:1032800084F83E90206C40F02000206484F83C904C
:103290000120BDE8F0872068406925EA00000004AD
:1032A000000CAFD1E5E72DE9F04104460D46164686
:1032B0002068406910F0400F22D100274FF020080D
:1032C0002068406910F0100F0FD021686FF01000D7
:1032D0004861276384F83D8084F83E70206C206448
:1032E00084F83C700120BDE8F081FEF717F9801BDF
:1032F000A84208D83DB12068406910F0400FDFD0E7
:103300000020BDE8F081276384F83D8084F83E709A
:10331000206C40F02000206484F83C700120BDE85F
:10332000F08170B504460D4616462068406910F0DD
:10333000800F13D12046FFF742FD08B1012070BD78
:10334000B5F1FF3F05D0FEF7E9F8801BA84207D88A
:1033500035B12068406910F0800FEBD0002070BDBF
:1033600000202063202184F83D1084F83E00216C69
:1033700041F02001216484F83C00012070BD000070
:10338000F0B585B000253848009501950295039564
:10339000816941F010018161816901F0100104919E
:1033A000816941F020018161816901F0200104916E
:1033B000816941F004018161816901F00401049196
:1033C000816941F0080181618069284E00F00800A0
:1033D0004FF400540490002221463046FEF796F840
:1033E000234F002210213846FEF790F80094012464
:1033F000CDE901450225694630460395FDF788FF72
:103400000F2000901B48CDE9010469461A48FDF7DA
:103410007FFF10208DE83100694638460395FDF79F
:1034200077FF002203210620FEF7A4FD0620FEF709
:1034300093FD002202210720FEF79CFD0720FEF7E6
:103440008BFD002201210820FEF794FD0820FEF7E5
:1034500083FD002201210920FEF78CFD0920FEF7E3
:103460007BFD05B0F0BD00000010024000100140DF
:10347000000C0140000021100008014010B586B08A
:1034800000241248009401940294039404944FF091
:1034900080410594016048F69F41C0E9011440F263
:1034A000E731C0E9031480218161FFF730F94FF45F
:1034B0008050009069460548FFF7A5F9049404A9D7
:1034C00002480594FFF7EAF806B010BD9800002006
:1034D000FEE700000A46012819D0022819D0032867
:1034E00019D0042819D0052819D0062819D0072882
:1034F00019D0082819D0092819D00A2819D00B2862
:1035000019D00C2819D10DA11046FCF765BE0EA1EB
:10351000FAE70FA1F8E711A1F6E712A1F4E713A16A
:10352000F2E713A1F0E714A1EEE715A1ECE716A16D
:10353000EAE718A1E8E719A1E6E770474465636583
:103540006D626572000000004A616E7561727900FB
:103550004665626E75617279000000004D617263AC
:1035600068000000417072696C0000004D617900D4
:103570004A756E65000000004A756C790000000015
:10358000417567757374000053657074656D62658D
:10359000720000004F63746F626572004E6F766553
:1035A0006D62657200000000FEE7704781B0074958
:1035B0004FF4FA520968B1FBF2F14843009000BFA2
:1035C0000098411E0091FAD201B07047140000200B
:1035D0007047FEF767BC30B58FB028216846FCF70E
:1035E00037FF14210AA8FCF733FF01210804CDE9B5
:1035F00000100024029402250491CDE907504FF4F5
:10360000E01009906846FEF71DFE0F20CDE90A057F
:103610004FF4A060CDE90C4002210AA80E94FEF7F9
:10362000EFFC0FB030BD70470148FFF75FB90000F5
:103630009800002030B40268194B1A4CDFF868C0BB
:10364000984206D0B0F1804F03D0A04201D060452F
:1036500003D122F070024D682A43984206D0B0F19F
:10366000804F03D0A04201D0604505D122F44072C2
:10367000D1F80CC04CEA0202D1F814C022F080024A
:1036800042EA0C0202608A68C2620A688262984258
:1036900001D1096901630121416130BC704700001B
:1036A000002C01400004004000080040D0F808C091
:1036B0002CF47F4C42EA0322114341EA0C01816061
:1036C0007047826822F07002114341F00701816067
:1036D0007047036AD0F820C02CF0010CC0F820C05D
:1036E000D0F818C02CF0F00C4CEA021223F00A03B8
:1036F0001943826101627047036A23F01003036279
:10370000D0F818C0036A2CF4704C4CEA023223F053
:10371000A00343EA011182610162704710B5406A5B
:103720000021C185C184FFF7D3F910BD0168CA68C3
:1037300022F49072CA6001684A6922F001024A616B
:10374000016B012904D10168CA6822F01002CA6025
:10375000202180F83E1000210163704710B50168F8
:10376000CA6822F04002CA60202180F83D10FFF7AD
:1037700024FB002010BD08B590F83E10222901D08E
:10378000022008BD8268B2F5805F01D1016929B1CC
:10379000816AB2F5805F1DD052B10BE0816A026888
:1037A0005268C2F308020A80816A891C816209E0BA
:1037B00002697AB10268526802F07F020A70816A77
:1037C000491C8162C18D491E0904090CC18505D0BF
:1037D000002008BD026852680A70F0E70168CA68F4
:1037E00022F02002CA600168CA6822F48072CA60AE
:1037F00001684A6922F001024A61202180F83E10E6
:10380000016B012903D0FFF7D7FA002008BD002182
:1038100001630168CA6822F01002CA6001680A6880
:1038200012F0100F02D00A6849680091818DFFF7ED
:103830004EF9EAE770B5044620680169E26821F4B0
:103840004051114301612169A06808436169014346
:103850002068C26822F4037222F4A0521143C160AE
:1038600020684169A26921F44071114341612068D7
:10387000A0F18041B1F59C313AD0FEF787FC00EB16
:10388000C00101EB001061681B4A8900B0FBF1F335
:10389000A2FB0353B0FBF1FC5B096FF018056B430F
:1038A0000CEB83034FF0320C0CEB0313A2FB03531E
:1038B0005B0903F0F005B0FBF1F3A2FB03635B09C6
:1038C00005EB0313B0FBF1F5B0FBF1F0A2FB001028
:1038D00040096FF01801484305EB80000CEB001025
:1038E000A2FB00102168C0F343101844886070BD2B
:1038F000FEF75CFCC3E700001F85EB5190F83D101C
:10390000212901D0022070478168B1F5805F01D183
:10391000016961B1016A4A1C02620268097851605A
:10392000C18C491E0904090CC1840AD013E0016A44
:1039300002680988C1F308015160016A891C0162AB
:10394000EEE70168CA6822F08002CA600068C168B8
:1039500041F04001C1600020704700000148FFF7BE
:10396000B9B80000E0000020FEE730380A2801D294
:10397000012070470020704770B586B004460020D3
:103980008DF80C008DF81000012603A8CDE9000683
:103990006425029533460F22D0212068FEF70EF8E9
:1039A0009DF80C00400716D404A8CDE90006029546
:1039B00001230E22D0212068FEF700F89DF81000A8
:1039C000029540F02000CDE9000601230E22D0210F
:1039D0002068FEF77FF906B070BD000008B572B62A
:1039E000FEF768FAFFF7F7FDFFF7CAFCFFF746FDA1
:1039F00021482049002401602049C0E901144FF406
:103A00008041C0E9034144618461C4610462FDF7FF
:103A10008BFD19481A499C3001604FF4E131C0E92F
:103A200001140C21C460C0E904418461C461FFF742
:103A300051F9144DA1B2642301220F48FDF74AFE4B
:103A400000B9EC71641CFF2CF4DB0B49A1F12C00D4
:103A5000FDF70BF802200849009010234E22A1F137
:103A60000C00FCF74BFE62B603485430FEF79AFE9A
:103A7000FEE700000054004044000020A086010042
:103A8000003801400000002021F00042A2F1605205
:103A9000B2F5801F01F0004328BFD2F17F6C0BD933
:103AA0005FEA001C43EAC20242EB507018BF704745
:103AB00028BF20F001007047B2F5801FBCBF184638
:103AC00070474FEA410C1CF5001F02D2084600F077
:103AD00070BA70B500F0CDF800000089FFF7F6BFAE
:103AE0004FF00040A0F580007047000010B591EA4B
:103AF000030F48BF83F0004300F11881841A71EB73
:103B0000030C05D2121943EB0C03001B61EB0C01F3
:103B1000DFF824E14FEA1154A4EB135C1EEA430FD3
:103B200018BF9EEA445F73D023EA0E03DCF1200E37
:103B300021EA045143F4801332D322FA0CFE10EB35
:103B40000E0023FA0CFE41EB0E01CCF1200E03FA1D
:103B50000EFE10EB0E0051F10001B1F5801FCCF10B
:103B6000200E32D201EB045112FA0EF2BDE81040E1
:103B700058BF7047401C38BF5FEA420218BF704709
:103B8000002814BF20F0010041F100014FEA410379
:103B900013F5001F38BF7047A1F1C04100F0B7B85E
:103BA000012A43EB0302ACF1200CDCF11F0E32BF03
:103BB0004FF0000E23FA0CF310EB030041EB04511D
:103BC000B4EB115FD0D0A1EB045101F5801149088D
:103BD0005FEA300001EB04510ED350F1000038BF12
:103BE00012FA0EFE08D1BDE81040C9E7401C38BFEC
:103BF0005FEA4202CAD1C3E7BDE810404FEA410381
:103C000013F5001F38BF7047A1F1C04100F07FB825
:103C10009EEA445F08D011EA5E0FBDE8104004BF81
:103C200001F0004100207047BDE8104070B500F081
:103C300020F800BF64FBBE3E0000E0FF02494FF0E9
:103C4000000000F0BBB900BF0000F87FB0FA80F3BD
:103C500010FA03F10AD0C3F11D0303F580634FEAA4
:103C600041504FEA035202EBD12170474FF0000060
:103C700070470EF1020E2EF0030E5EF8046B364212
:103C800005D4012A43EB030515F5001F12D80128BE
:103C900041EB010C1CF5001F0CD80ED14FEAD17C72
:103CA00015F5001F0CEB4C0C0CF1020C08BF4CEB93
:103CB000D37C04E04FF0080C01E04FEAD37C0CEB1E
:103CC0004C0526FA05F606F00706B6F1040C06D2F6
:103CD0000EEB860CBDE870404CF0010C6047DFE84D
:103CE0000CF0090B02024FF000414FF00000A1F56B
:103CF000002170BD19461046012851EB010418BF80
:103D0000D4F5001484BF002001F0004170BD080804
:103D1000A0F500114FEA31017047000010B591EA9B
:103D2000030F48BF83F000433FF5E8AE841A71EB00
:103D3000030C07D212198CF0004C43EB0C03001B50
:103D400061EB0C01DFF8A4E14FEA1154A4EB135C22
:103D50001EEA430F18BF9EEA445F00F0B08023EADA
:103D60006E03524221EA0451C3EB6E0338BF5B1E5F
:103D7000DCF1200E25D322FA0CFE10EB0E0043FAE4
:103D80000CFE41EB0E01CCF1200E03FA0EFE10EBFF
:103D90000E0051F10001CCF1200E29D412FA0EF2DE
:103DA00001EB0451BDE8104058BF7047401C1CBFD8
:103DB000B2F1004F704700280CBF491C20F00100F1
:103DC000704712EB020E43EB030218BF4FF0010ED7
:103DD0004EEA4202ACF1200CDCF11E0E54D943FA3B
:103DE0000CFE10EB0E0051F1FF31CCF11E0ED5D5BB
:103DF0000EF1010E12FA0EFE404141EB010101EB02
:103E0000445C5FEA5C5C10D910EBDE7001EB04519E
:103E100038BFBEF1004FBDE8104018BF7047002802
:103E20000CBF491C20F00100704730D24FEAD42C5F
:103E300011F5001124F400641BD0B1FA81F20B3AA1
:103E4000A41AA41ED2F12003914030FA03F31943BF
:103E5000904001EBCC71002C01EB0451BDE8104007
:103E6000A8BF704701F1C0414FF0000001F00041D0
:103E70007047B0FA80F310FA03F100D110BDE41AD4
:103E8000173C4805C90AE4E701EB045110BD49108D
:103E900001EB0451BDE810404FEA300002E04FF062
:103EA000000170474A0008BF0042F8D0B2F5001F79
:103EB00028BF704701F000414FF0000070479EEAB4
:103EC000445F07D011EA5E0FBDE8104004BF002137
:103ED00000207047BDE8104070B5FFF7CAFE00BF74
:103EE00040DFF63E83F00041104670470000E0FFDF
:103EF00041000B0ED3F19E0208D950F400034FEAA3
:103F0000032323FA02F048BF4042704710B500F087
:103F10000AF800BF49922480002070476FF00042E9
:103F200082EA200070470EF1020E2EF0030E5EF8BA
:103F3000044B244204D44FEA4102B2F17F4F11D81E
:103F40004FEA4003B3F17F4F0CD80ED14FEAD07C3B
:103F5000B2F17F4F0CEB4C0C0CF1020C08BF4CEB98
:103F6000D17C04E04FF0080C01E04FEAD17C0CEB6F
:103F70004C0324FA03F404F00704B4F1040C06D251
:103F80000EEB840CBDE810404CF0010C6047DFE8FC
:103F90000CF0070802024FF00040A0F5800010BDB1
:103FA0000846420018BFD2F1807288BF00F000407E
:103FB00010BDFF2141EAD050C00570470CF00F033F
:103FC000092B08BF082000F059800A2B0BD0082BC2
:103FD00018BF704708BF1CF0400F0AD04FF0000018
:103FE0004FF0000170471CF0400F18BF4FF0004029
:103FF00070471CF0100F08D020F0704300F07F4293
:1040000042EAD3014FEA4370704700F0604021F06C
:104010007F4242EA000201F07F4040EA727070473E
:104020004FF0FF0C4CF4E06C1CEA11531CBF9CEAEF
:10403000030C9445C2BFDA4201EB02517047002BDA
:104040000DD0BCF1000F0FD0002A01F00041A4BF39
:1040500041F0E04141F07F614FF00000704701F016
:1040600000414FF00000704750EA01334FF09B0CC5
:1040700018BF4CF0806C7FF4E1AD70471CF4801FDA
:1040800011D01CF4E02F03D06FEACC314900704707
:104090004FF04050EFF3008222F0704242EA0002FB
:1040A00082F3008870474FF0000070470000000066
:1040B00000000000010203040607080900000000D8
:1040C00001020304040000080000000000000002D8
:1040D0000001000010000000F8400008000000206F
:1040E00018000000280100081041000818000020F6
:1040F00070070000440100080000FF0000000000FD
:104100000100000010000000000000000024F40086
:04000005080000ED02
:00000001FF
