:020000040800F2
:10000000D007002091010008FF2300084D1F0008C1
:10001000FD2300080B0400088527000800000000ED
:1000200000000000000000000000000003240008A1
:10003000090600080000000001240008052400084B
:10004000AB010008AB010008AB010008AB010008E0
:10005000AB010008AB010008AB010008AB010008D0
:10006000AB010008AB010008AB010008AB010008C0
:10007000AB010008AB010008AB010008AB010008B0
:10008000AB010008AB010008AB010008AB010008A0
:10009000AB010008AB010008AB010008AB01000890
:1000A000AB010008AB010008AB010008AB01000880
:1000B0004D240008AB010008AB010008AB010008AB
:1000C000AB010008AB010008AB010008AB01000860
:1000D000AB01000879270008AB010008AB0100085C
:1000E000AB010008AB010008AB01000800F002F80A
:1000F00000F03FF80AA090E8000C82448344AAF183
:100100000107DA4501D100F034F8AFF2090EBAE880
:100110000F0013F0010F18BFFB1A43F0010318473B
:1001200094270000B4270000103A24BF78C878C193
:10013000FAD8520724BF30C830C144BF04680C60ED
:10014000704700000023002400250026103A28BF35
:1001500078C1FBD8520728BF30C148BF0B60704739
:10016000732900F00081002070471FB51FBD10B536
:1001700010BD00F0FCF81146FFF7F7FF02F014FB8A
:1001800000F01AF903B4FFF7F2FF03BC00F022F904
:100190000948804709480047FEE7FEE7FEE7FEE71B
:1001A000FEE7FEE7FEE7FEE7FEE7FEE70448054957
:1001B000054A064B704700004B240008ED0000087C
:1001C000D0010020D0070020D0030020D003002061
:1001D0000FB41CB5074B06AA7B44694600900598EE
:1001E00000F097F80020694600F0A6F81CBC5DF806
:1001F00014FB00005D0100002DE9F0410E460446AD
:10020000002020622046E168884730B3252805D0C9
:10021000D4E901219047206A401CF2E7E1682046BA
:1002200000278847050018D0A5F14100192802D8F9
:1002300020354FF400673246294620462760FFF7F5
:100240008FFF40B1012804D0F61D26F007060836BE
:10025000D8E7361DD6E72846DAE7206ABDE8F08100
:1002600070B50C460546012A05D02878800600D5D1
:10027000EA69002302E0012305E05B1C934202D2FD
:10028000E05C0028F9D1A869E618C01AA861286ABC
:10029000184428622846AFF3008004E0D5E9012124
:1002A00014F8010B9047B442F8D32846AFF300800E
:1002B00070BD4FF0000200B51346944696462039B3
:1002C00022BFA0E80C50A0E80C50B1F12001BFF40F
:1002D000F7AF090728BFA0E80C5048BF0CC05DF875
:1002E00004EB890028BF40F8042B08BF704748BFC3
:1002F00020F8022B11F0804F18BF00F8012B704737
:10030000704770477047000001694A1C0261087815
:10031000704700B58FB0CDE9013100210591054945
:100320007944CDE9031011466846FFF765FF0FB029
:1003300000BD0000E5FFFFFF0A6802F8010B0A603C
:10034000704710B5436913B1AFF3008001E0FFF7C8
:1003500087FF012010BD127800F124010A700022ED
:100360004A700122EDE711684FF0FF32E9E7754668
:1003700000F02CF8AE4605006946534620F0070011
:10038000854618B020B5FFF711FFBDE820404FF0BB
:1003900000064FF000074FF000084FF0000B21F06F
:1003A0000701AC46ACE8C009ACE8C009ACE8C0093C
:1003B000ACE8C0098D46704710B50446AFF3008025
:1003C0002046BDE81040FFF7DDBE00000048704742
:1003D0006C01002001491820ABBEFEE72600020098
:1003E0007047302202EB101200F00F000A7030301C
:1003F000487000208870704700F00F01000900EB82
:10040000800001EB4000C0B27047FEE710B5044623
:100410000298216022716371A0712820A0720620C9
:10042000E0710C202072142060720820E0723220EB
:1004300000F05AF900223321204600F074F805201C
:1004400000F052F900223321204600F06CF805201C
:1004500000F04AF900223221204600F064F805201D
:1004600000F042F900222021204600F05CF805202F
:1004700000F03AF9E1790022204600F054F801201A
:1004800000F032F9217A0022204600F04CF80120D9
:1004900000F02AF9617A0022204600F044F8012099
:1004A00000F022F9A17A0022204600F03CF8012059
:1004B00000F01AF900220121204600F034F8012052
:1004C00000F012F920460022BDE81040022100F0A1
:1004D0002AB8000008B50BA31B68009343798B4230
:1004E00001D85B1ED9B28379934201D85B1EDAB280
:1004F0001DF802201144C9B241F08001002200F031
:1005000012F808BD80C00000012200F00CB870B5E0
:100510000C46054603E02846641CFFF7F5FF2178EA
:100520000029F8D170BD7CB506460807040EF07AA4
:1005300001F0F00518B145F0080544F00804012A5F
:1005400001D02AB108E045F0010544F0010403E0C0
:1005500025F0010524F0010445F004008DF80400A5
:10056000012000F0C1F88DF8055044F004008DF82A
:100570000600012000F0B8F84FF47A708DF80740BB
:1005800000903179042301AA306800F035FB7CBD6E
:100590003EB504464FF47A7204210E308DE8070010
:1005A00001230322D021206800F0BCFBA07BFFF7D1
:1005B00023FFA075E07BFFF71FFF6075207CFFF72E
:1005C0001BFFE075607CFFF717FF20763EBD3EB550
:1005D00004464FF47A720321C01D8DE80700012301
:1005E0000022D021206800F09DFBE079FFF704FF96
:1005F0002075207AFFF700FFE074607AFFF7FCFEB9
:10060000A0743EBD01607047704710B590F821108E
:100610000022022905D00421816380F820200120D6
:1006200010BD01680B6823F00E030B6001680B68B6
:1006300023F001030B6090F84030C46B012101FAF4
:1006400003F3636080F8211080F82020104610BD6D
:1006500010B590F821100024022903D004218163F1
:1006600001243DE001680A6822F00E020A60016878
:100670000A6822F001020A601A4A0168914201D117
:10068000012121E0174A1432914201D110211BE0CF
:10069000144A2832914201D1891515E0114A3C32A1
:1006A000914201D189140FE00E4A5032914202D199
:1006B0004FF4803108E00B4A6432914202D14FF48A
:1006C000801101E04FF08071064A083A5160012123
:1006D00080F82110002180F82010416B01B188477B
:1006E000204610BD0800024070B5044600F004F931
:1006F0000546601C02D004480078044400F0FCF871
:10070000401BA042FAD370BD2C0000202DE9F84F09
:10071000DFF8B891002409F1040A0AF1040B23461A
:100720000F270BF1040EC9E00125A5402A40AA427B
:100730007DD1674ED1F804C0ACEB0608B44532D089
:1007400014DCBCF1030F3AD009DCBCF1000F2AD055
:10075000BCF1010F1CD0BCF1020F31D11DE0BCF186
:10076000110F17D0BCF1120F2AD119E0B8F5881F6C
:1007700019D006DCB8F5803F15D0B8F5801F1FD121
:1007800011E0B8F5001F0ED0B8F5041F18D10AE02B
:10079000CB6815E0CB681B1D12E0CB6808330FE077
:1007A000CB680C330CE08B682BB1012B4FF00803A6
:1007B00003D0456104E0042302E0056100E000236A
:1007C000FF2A01D8064601E000F104064FEA84053D
:1007D00001D9A5F12005D6F8008007FA05FC28EA22
:1007E0000C0803FA05F548EA0508C6F800804D68CC
:1007F000ED0062D5374DAE6946F00106AE61AD69D8
:1008000024F0030605F001050095334D06EB050CB9
:10081000DCF80850A607360F07FA06F825EA08059F
:10082000DFF8B880404503D14FF0000817E044E0FE
:10083000DFF8AC80404502D14FF001080FE0DFF84F
:10084000A480404502D14FF0020808E0DFF898800C
:10085000404502D14FF0030801E04FF0040808FAC8
:1008600006F848EA0508CCF808804D68D9F8006019
:10087000ED034D4601D5164300E096432E604D68CA
:10088000DAF80060AD03554601D5164300E0964303
:100890002E604D68DBF80060ED025D4601D5164321
:1008A00000E096432E604D68DEF80060AD027546AC
:1008B00001D5164300E096432E60641C0D682A465D
:1008C000E5407FF431AFBDE8F88F0000000401403F
:1008D000000011100010024000000140000801401B
:1008E000000C014000100140001401400AB10161F8
:1008F00070470904FBE7000001488068704700006A
:100900002C00002070B5040025D094F83D0000258F
:1009100020B984F83C50204600F02CFB242084F8B9
:100920003D002068016821F0010101602068016834
:1009300041F4004101602068016821F40041016038
:1009400000F074FC4D4A6168914201D84C4900E0C6
:100950004C49884201D2012070BD4B492368B0FB4D
:10096000F1F15E6826F03F060E435E6063689342D5
:1009700006D94FF4967359434FF47A73B1FBF3F1F0
:100980002368491C1E6A26F03F06314319626168DC
:10099000914210D84900401EB0FBF1F2521CC2F344
:1009A0000B02042A01D2042022E0B0FBF1F0401C2B
:1009B000C0F30B001CE0A268F2B301EBC10303EB30
:1009C0000116431EB3FBF6F35B1C43F480431B0587
:1009D00049D092B301EBC10202EB0111401EB0FB02
:1009E000F1F0401CC0F30B0040F4804040F40040A4
:1009F0002168CA694CF6FF739A431043C861D4E971
:100A0000071001432068026822F0C0021143016010
:100A1000D4E9030101432068826848F2FF339A4316
:100A200011438160D4E9050108432168CA6822F0B6
:100A3000FF021043C86001E00EE016E02068016884
:100A400041F0010101602564202084F83D00256308
:100A500084F83E50002070BD01EB4106431EB3FBFD
:100A6000F6F35B1CB3E70120C2E701EB4101401E36
:100A7000B0FBF1F0401CC0F30B00B7E7A08601000B
:100A800080841E0000093D0040420F002DE9FF4F09
:100A900081B089460446FFF72FFF054694F83D00D4
:100AA0004FF0010820287DD119230122504920460A
:100AB000009501F055FB002874D194F83C00012802
:100AC00070D0012084F83C0020680168C90703D178
:100AD000016841F0010101602068016821F40061B2
:100AE0000160242084F83D00002626644148E0622D
:100AF0004FF0011B20272068016841F480710160DC
:100B00000095002259462046049B01F029FB50B174
:100B100020680068C00502D54FF4007020640320EF
:100B200005B0BDE8F08F216809F0FE000861FFF70D
:100B3000E3FE2168054648694969C0F34000C1F3F6
:100B400080214FF0A00A0FE0FFF7D6FE411B04986A
:100B5000814200D808B984F83DA0216848694969F4
:100B6000C0F34000C1F3802194F83D20A02A02D0B8
:100B700008B90029E8D084F83D7020684169C9436C
:100B8000890716D4016841F4007101602068416949
:100B900080691923012216492046009501F0E0FAE8
:100BA000B8B900E021E084F83D7084F83C60002092
:100BB000B6E7016841F40071016021686FF480605C
:100BC0004861192301220A492046009501F0C8FA1C
:100BD00008B10120A4E7039808F1010880458AD3F1
:100BE00084F83D7084F83C60F3E7022098E7000049
:100BF000020010000000FFFF2DE9F84F1F4690464D
:100C00008A460446DDF82890FFF776FE054694F8FC
:100C10003D0020287FD1192301224049204600951C
:100C200001F09EFA002876D194F83C00012872D099
:100C3000012084F83C0020680168C90703D10168DD
:100C400041F0010101602068016821F40061016048
:100C5000212084F83D00102084F83E000026266400
:100C6000C4F824806785608D20852D48E0622B467E
:100C70004A465146204601F081F990B92068416901
:100C80008069009036E02A464946204601F01AFB6A
:100C900050B1206C042804D12068016841F400712F
:100CA00001600120BDE8F88F606A21680078086162
:100CB000606A401C6062618D491E6185218D491EFC
:100CC00089B2218522685369DB435B070BD451B19C
:100CD00000781061606A401C6062608D401E608513
:100CE000208D401E20852A464946204601F012FAF2
:100CF0000028CED1208D0028C5D154F83D0B0168C5
:100D000041F400710160202004F81E09E67766773F
:100D10000020C7E7FFE70220C4E700000200100040
:100D20000000FFFF2DE9FF4F83B00025DDE91079BA
:100D30009A4693460446DDF848800095FFF7DCFDAF
:100D4000064694F83D0020287CD1192301228549CC
:100D50002046009601F004FA0028F5D194F83C00F2
:100D600001286FD0012084F83C0020680168C90781
:100D700003D1016841F0010101602068016821F49C
:100D800000610160222084F83D00402084F83E008C
:100D900025646762A4F82A90608D20857248E0621D
:100DA000CDE9008653465A462046049901F034F9AD
:100DB00000287DD1208DDFF8B491202768B101286B
:100DC00014D00228206801681ED041F480610160BF
:100DD0002068416980690090B6E0206841698169B6
:100DE0000091016841F400710160ADE02068016884
:100DF00021F48061016072B62068416981690091C7
:100E0000016841F400710AE041F40061016072B6CA
:100E10002068416981690091016821F48061016065
:100E200062B691E0032868D801280CD00228434616
:100E30004FF000024946204600960FD001F090F98D
:100E4000B0BB10E08BE032464146204601F007FA85
:100E500070BB20680069616A08706CE001F080F97D
:100E600030BB72B634E02068016821F48061016013
:100E700072B620680069616A0870606A401C60622E
:100E8000208D401E2085608D401E6085384846F2CA
:100E9000A8110068B0FBF1F0C0EBC00000EB8000CF
:100EA0000090401E009008D020684069C04300E0D8
:100EB00029E040070CD50098F3E744F8305F6773EA
:100EC000A573206940F02000206162B625731AE006
:100ED0002068016841F40071016020680069616A5E
:100EE0000870606A401C6062218D491E2185618DF9
:100EF000491E618562B621681BE0324641462046A4
:100F000001F0ADF918B1012007B0BDE8F08F2068FD
:100F10000069616A0870606A401C6062218D491E28
:100F20002185618D491E618521684A69D243520736
:100F30000AD409690170606A401C6062208D401EFD
:100F40002085608D401E6085208D00287FF46AAF6B
:100F500084F83D7084F83E5084F83C50D4E7022079
:100F6000D2E70000020010000000FFFF04000100B3
:100F70003800002010B586B0002100910191029147
:100F8000039100680F4988421AD10F4CA06940F0C4
:100F90000800A061A069694600F008000490C02024
:100FA000009012200190032003900848FFF7AEFB49
:100FB000E06940F40010E061E06900F40010049082
:100FC00006B010BD0054004000100240000C01406B
:100FD0000248816802781144816070472C0000202B
:100FE000074810B5016841F010010160032000F0CE
:100FF00075F8002000F006F800F024F8002010BD7D
:101000000020024070B50D4D04464FF47A712878E7
:10101000B1FBF0F00A490968B1FBF0F000F0ECFA1E
:1010200048B9102C07D200222146501E00F036F895
:1010300000206C6070BD012070BD00002C000020FD
:10104000380000200C4808B5816941F00101816138
:10105000816901F001010091C16941F08051C161D4
:10106000C06900F0805000900448416821F0E061C0
:1010700041F08061416008BD001002400000014065
:10108000002809DB00F01F02012191404009800087
:1010900000F1E020C0F8001170470000F0B40E4BE2
:1010A0001B680C46C3F30223C3F10705042D00D9C6
:1010B0000425191D072901D2002300E0DB1E0126AB
:1010C00006FA05F1491E214099409E40761E1640C1
:1010D0003143F0BC01F057BB0CED00E0064900F0D5
:1010E000070208684FF6FF03184040EA0220034A4F
:1010F00010430860704700000CED00E00000FA05A6
:101100002DE9F0470F46050061D0434E306800F0EE
:101110000700B84209D2306820F007003843306039
:10112000306800F00700B84251D128683B4C810775
:1011300012D5400703D5606840F4E060606028780D
:10114000000703D5606840F4605060606068A9687B
:1011500020F0F000084360602878C00728D0686855
:10116000012810D02168022810D0890700292EDA22
:10117000616821F0030101436160FFF7BDFB804618
:1011800041F288390DE021688903EFE78901EDE735
:10119000FFF7B2FBA0EB0801494502D90320BDE8E7
:1011A000F0876068696800F00C00B0EB810FEFD148
:1011B000306800F00700B8420BD9306820F0070013
:1011C00038433060306800F00700B84201D0012099
:1011D000E5E72878400705D56068E96820F4E06015
:1011E000084360602878000706D56068296920F404
:1011F000605040EAC100606000F038F86168084A59
:10120000C1F30311515CC8400649086006480068F4
:10121000FFF7F8FE0020C2E7002002400010024065
:101220009C280008380000203000002004480549B0
:1012300000684968044AC1F30221515CC840704704
:101240003800002000100240AC280008044805497E
:1012500000684968044AC1F3C221515CC840704724
:101260003800002000100240AC28000812A185B010
:101270000FC98DE80F0014A0144A0068049051684B
:10128000134801F00C03042B10D0082B0ED1C1F32E
:101290008343C9031DF803000AD5516804AAC1F3AA
:1012A0004041515C0A4A5043B0FBF1F005B0704731
:1012B00008494843FAE70000020304050607080945
:1012C0000A0B0C0D0E0F101001020000001002405E
:1012D00000127A0000093D002DE9F84F040070D09B
:1012E0002078C04DC00749D06868C0F3810001284C
:1012F00007D06868C0F38100022809D16868C0037C
:1013000006D52868800339D560680028E7D035E025
:101310006068B0F5803F0BD010B1B0F5A02F11D0B0
:10132000286820F480302860286820F4802002E0BB
:10133000286840F480302860606890B1FFF7DCFADC
:1013400006460AE0286840F480202860F0E700BFE5
:10135000FFF7D2FA801B642873D828688003F7D57A
:101360000CE0FFF7C9FA064605E000BFFFF7C4FA34
:10137000801B6428F0D828688003F7D420789A4E20
:1013800080074FF001094FF0000839D5686810F068
:101390000C0F07D06868C0F38100022809D1686883
:1013A000C00306D42868800714D52069012808D115
:1013B00010E02069B0B1C6F80090FFF79DFA07462B
:1013C00005E00AE1FFF798FAC01B0228C4D8286894
:1013D0008007F7D52868616920F0F80040EAC1006D
:1013E00028600DE0C6F80080FFF786FA074604E0A3
:1013F000FFF782FAC01B022823D828688007F7D499
:10140000207800072CD57948A169D9B1C0F800909F
:10141000FFF772FA074604E0FFF76EFAC01B0228D6
:101420000FD8686A8007F7D571484FF4FA51006801
:10143000B0FBF1F0009000BF0098411E0091FAD27D
:101440000EE080E0C0F80080FFF756FA074604E09F
:10145000FFF752FAC01B022875D8686A8007F7D4D4
:101460002078400760D5E8690027C00008D4E86903
:1014700040F08050E861E869012700F0805000905A
:101480005C480168C90513D40168834641F4807142
:101490000160FFF731FA824606E000BFFFF72CFA41
:1014A000A0EB0A0064284ED8DBF80000C005F5D593
:1014B000E06801280AD008B1052813D0286A20F076
:1014C00001002862286A20F0040002E0286A40F047
:1014D00001002862E06841F2883B98B1FFF70CFAFE
:1014E00082460BE0286A40F004002862EEE700BF65
:1014F000FFF702FAA0EB0A0159455AD8286A80077B
:10150000F6D50CE0FFF7F8F9824605E0FFF7F4F9AD
:10151000A0EB0A0159454CD8286A8007F6D41FB1C0
:10152000E86920F08050E861E06988B36968C1F338
:101530008101022944D00228C6F8608004D0FFF758
:10154000DBF9044638E034E0FFF7D6F9074604E05B
:10155000FFF7D2F9C01B02282BD828688001F7D4E6
:10156000206AB0F5803F05D16868A16820F400309A
:1015700008436860D4E908010843696821F47411DC
:1015800008436860C6F86090FFF7B6F9044606E0C5
:1015900025E000BFFFF7B0F9001B022809D8286832
:1015A0008001F7D51BE000BFFFF7A6F9001B02285A
:1015B00002D90320BDE8F88F28688001F4D40EE03A
:1015C0000128F7D06868226A00F48031914204D182
:1015D000616A00F47010884201D00120EAE700201F
:1015E000E8E700000010024000004242800442424E
:1015F000380000200070004010B5401EB0F1807F20
:1016000001D3012010BD4FF0E02460610F2160176D
:1016100001F0B9F80020A06107202061002010BD72
:101620007047704770B590F83C20012A26D00124FD
:1016300080F83C40022280F83D2003685A689D688B
:1016400022F070060A6832435A600D4B02689A42D3
:1016500008D0B2F1804F05D00A4B9A4202D00A4B13
:101660009A4204D1496825F080031943916080F8BB
:101670003D40002180F83C10084670BD022070BD3E
:10168000002C0140000400400008004010B5040098
:1016900003D094F83D0010B107E0012010BD0020F8
:1016A00084F83C00204600F01FF8022084F83D003A
:1016B000211D206800F0D0FE012084F8460084F847
:1016C0003E0084F83F0084F8400084F8410084F82C
:1016D000420084F8430084F8440084F8450084F80C
:1016E0003D00002010BD000008B50068B0F1804F3B
:1016F00012D10A48C16941F00101C161C0690022EB
:1017000000F00100009001211C20FFF7C7FCBDE89C
:1017100008401C20FFF7B4BC08BD000000100240C8
:1017200090F83D10012901D001207047022180F876
:101730003D100168CA6842F00102CA6000680B49A6
:10174000884208D0B0F1804F05D00949884202D0C4
:101750000849884204D1816801F00701062903D0B5
:10176000016841F00101016000207047002C014038
:10177000000400400008004070B5044690F83C00AA
:10178000012817D0012584F83C50022084F83D0040
:101790002068826822F0770222F47F428260086823
:1017A000502830D00DDC20284DD005DC98B310280F
:1017B0003BD148E0022070BD302844D0402834D1CD
:1017C00039E0602828D0702806D0B0F5805F2CD092
:1017D000B0F5005F29D10AE0CB68D1E9012120688A
:1017E00000F070FE2068816841F0770109E0CB6865
:1017F000D1E90121206800F065FE2068816841F48C
:101800008041816011E0CA684968206800F06CFE80
:101810005021206807E016E0CA684968206800F097
:1018200074FE6021206800F057FE84F83D500020CF
:1018300084F83C0070BDCA684968206800F054FE16
:1018400040212068EFE7226801461046EBE7704729
:1018500070B50446006801694FF00005C943890767
:1018600015D4C168C943890711D4E91E016101205B
:101870002077206880698007204602D0FFF7E7FFC5
:1018800004E000F098F8204600F096F825772068EC
:101890000169C943490717D4C168C943490713D42B
:1018A0006FF004010161022020772068806910F444
:1018B000407F204602D0FFF7CAFF04E000F07BF82B
:1018C000204600F079F8257720680169C9430907A7
:1018D00016D4C168C943090712D46FF00801016129
:1018E000042020772068C0698007204602D0FFF7D7
:1018F000AEFF04E000F05FF8204600F05DF82577C9
:1019000020680169C943C90617D4C168C943C9061B
:1019100013D46FF010010161082020772068C0699E
:1019200010F4407F204602D0FFF791FF04E000F062
:1019300042F8204600F040F8257720680169C94345
:10194000C90708D1C168C943C90704D1891E01610B
:10195000204600F033F820680169C943090609D41C
:10196000C168C943090605D46FF0800101612046B2
:10197000FFF756FE20680169C943490609D4C168CA
:10198000C943490605D46FF040010161204600F0CB
:101990007FF820680169C94389060BD4C168C9432F
:1019A000890607D46FF0200101612046BDE8704030
:1019B000FFF737BE70BD70477047000038B52C4840
:1019C000FEF705FE2A4C2B49E079FEF70AFD29496E
:1019D000207AC91CFEF705FD2649607A891DFEF7AD
:1019E00000FD2046FEF7D4FD2249A07B0931FEF719
:1019F000F8FC2049E07B0C31FEF7F3FC1D49207C0C
:101A00000F31FEF7EEFC1B49607C1231FEF7E9FC5A
:101A1000184819A11230C31E821F009004F13C0027
:101A2000FEF7D6FB0022052104F11C00FEF752FD53
:101A300004F13C01A1F12000FEF769FD0520FEF74D
:101A400053FE0C480090C31C821D0EA104F1280017
:101A5000FEF7BEFB0122052104F11C00FEF73AFD52
:101A600004F12801BDE83840A1F10C00FEF74FBD9C
:101A70003C0000200200002025732D25732D2573C6
:101A80000000000025733A25733A2573000000001A
:101A90007047704770470000F8B502680446106848
:101AA000D168536910F00F0F4FF0000553D003F0C9
:101AB000010601F4907737435FD0C20705D0CA050D
:101AC00003D5226C42F001022264420705D5DA07F1
:101AD00003D0226C42F002022264820705D5DA07A5
:101AE00003D0226C42F004022264020707D501F001
:101AF0002002324303D0226C42F008022264226C9E
:101B0000002A34D0800604D5880602D5204600F08D
:101B10002EFD20684069216CC0F38010090700D4B5
:101B200030B3204600F00BFD2068416949061BD503
:101B3000416921F040014161A06BA8B1584941635E
:101B4000A06BFEF785FD002811D0A06B416B01B0A2
:101B5000BDE8F040084783060FD58B060DD520461B
:101B6000BDE8F84000F003BD2046FFF793FFF8BD45
:101B70002046FFF78FFF2564F8BD266B2023012E3A
:101B800052D1C60650D5CE064ED51068506800908A
:101B9000506940062AD5A16B086840680004000C13
:101BA000EAD0A68D8642E7D9E0858869202818D03A
:101BB000D06820F48070D0602068416921F0010174
:101BC00041612068416921F04001416184F83E3063
:101BD00025632068C16821F01001C160A06BFEF789
:101BE00014FDA08DE18D401A81B219E0A08DE18D28
:101BF000401A81B2E08D0028BED00029BCD0D06848
:101C000020F49070D0602068426922F001024261A5
:101C100084F83E3025632068C26822F01002C2605A
:101C20002046FFF736FFF8BD05062BD50D0629D552
:101C300094F83D002128F6D1A068B0F5805F01D16D
:101C40002069B0B1206A411C216221680078486097
:101C5000E08C401E0004000CE084E4D12068C168E0
:101C600021F08001C1602068C16841F04001C1607D
:101C7000F8BD206A0088C0F308005060206A801C0C
:101C80002062E5E74006F3D54806F1D5D168204645
:101C900021F04001D16084F83D3000F056F9F8BDE4
:101CA0002F25000870B5040004D094F83D000025ED
:101CB00010B106E0012070BD84F83C50204600F0D1
:101CC00023F8242084F83D002068C16821F40051E5
:101CD000C160204600F0A6FC2068016921F4904113
:101CE00001612068416921F02A0141612068C168D1
:101CF00041F40051C1602564202084F83D0084F83F
:101D00003E00002070BD000030B585B00024009476
:101D10000194029403940068184988422CD1184811
:101D2000816941F480418161816901F480410491BC
:101D3000816941F0040181618069124D00F0040065
:101D400004904FF400700090022001900320039053
:101D500069462846FEF7DAFC2815CDE900046946F5
:101D600028460294FEF7D2FC002211462520FFF7F8
:101D700095F92520FFF784F905B030BD0038014002
:101D8000001002400008014090F83E30202B0ED198
:101D900059B152B190F83C30012B08D0012380F8A2
:101DA0003C300023036300F099BC012070470220FF
:101DB0007047000038B500682E49884258D12E4837
:101DC00040780D284BD12D48FEF701FC2B4C2A49B9
:101DD000E079891CFEF705FB2749207A491DFEF7AB
:101DE00000FB2549607A0831FEF7FBFA2046FEF732
:101DF000CFFB2149A07B0B31FEF7F3FA1E49E07BB4
:101E00000E31FEF7EEFA1C49207C1131FEF7E9FA9B
:101E10001949607C1431FEF7E4FA174818A1143010
:101E2000C31E821F0090C01CFEF7D2F91249642322
:101E30001422173104F1EC0000F02EF80E4813A123
:101E4000801CC31C821D00901530FEF7C1F90A49A1
:101E500064231422173104F1EC0000F01DF8064948
:101E6000BDE8384005480122491CEC30FFF78CBF23
:101E700038BD000000380140000000203C00002078
:101E800025732D25732D25730A00000025733A252F
:101E9000733A25730A0000002DE9F843044690F8D0
:101EA0003D001F4616460D4620284CD1C5B1BEB197
:101EB00094F83C00012846D0012084F83C004FF003
:101EC0000008C4F84080212084F83D00FEF714FD8E
:101ED000A6848146E684A068B0F5805F03D004E064
:101EE0000120BDE8F883206928B12E465FF0000587
:101EF00084F83C800EE00026FAE78021204600F0BE
:101F000008FCA0B9AEB116F8010B21684860E08C5E
:101F1000401EE084E08C4B464FF000020097002802
:101F2000EBD14FF04001204600F0F3FB30B103202D
:101F3000D7E735F8020BC0F30800E6E7202084F865
:101F40003D000020CDE70220CBE77047FEE70168A7
:101F50004A69D24352050FD46FF480624A6100216E
:101F600040F8301F202242738173026942F004025C
:101F7000026101730120704700207047F8B50446E4
:101F8000C06A1E460D461746082807D0012805D00E
:101F900010F5803F02D0206B122804D12068016820
:101FA00041F480710160134600224FF00111204678
:101FB000009600F0D5F840B120680068C00502D551
:101FC0004FF4007020640320F8BD2069B0F5804F05
:101FD0000ED00620216800EAD51040F0F00008611C
:101FE00033463A460B49204600F0EEF878B902E055
:101FF00005F0FE0000E0E8B22168086105493346BB
:102000003A46891F204600F0DFF80028DCD0012086
:10201000F8BD0000080001002DE9F84F04460068F3
:1020200089460B9D01689846174641F4806101601E
:102030002068016841F48071016000954FF0011B38
:102040000022594620460A9B00F08AF84FF4007A95
:1020500040B120680068C00501D5C4F840A0032045
:10206000BDE8F88F216809F0FE0008612B46284979
:1020700020460A9A00F0A8F8F0BB20684169806900
:1020800000902A4620460A9900F01CF940B1206CC5
:1020900004283AD12068016841F40071016034E0FD
:1020A000FEB2B8F1010F09D02168380A08612A464A
:1020B00020460A9900F006F90028E8D12068066158
:1020C0002A4620460A9900F0FDF80028DFD1206852
:1020D000016841F480710160009500225946204654
:1020E0000A9B00F03DF80028B3D1216809F0FF00F9
:1020F00040F00100086100E007E02B46044920465B
:102100000A9A00F061F80028AAD00120A8E7000090
:102110000200010070B516460D4604460DE020464B
:10212000FFF715FF08B1012070BD681C05D0FEF750
:10213000E3FB801BA84207D835B120684069C04343
:102140004007ECD4002070BD002044F8300F20215F
:102150006173A073216941F0200121612073E2E7DE
:102160002DE9F0471E4690460D460446C1F3074749
:10217000DDF8209008E0701C06D0FEF7BDFBA0EB58
:102180000900B0420FD876B12068012F18D08069BD
:1021900025EA00000004000C14D000214145EAD0DB
:1021A0000020BDE8F087002044F8300F2021617343
:1021B000A073216941F02001216120730120F0E723
:1021C0004069E5E70121E9E72DE9F0479A469146A4
:1021D0000E46044600254FF02008C1F3074725E0CE
:1021E00020684069C043400514D42068016841F468
:1021F0000071016021686FF480604861256384F894
:102200003D8084F83E50206C40F00400206484F847
:102210003C501FE0B9F1FF3F08D0FEF76DFBA0EB8B
:102220000A0149450CD8B9F1000F09D02068012FE7
:1022300013D0806926EA00000004000C0BD0CFE721
:1022400044F8305F84F80D80A573206940F02000C9
:10225000206125730120BDE8F0874069EAE72DE998
:10226000F041002590460E460446202717E04069BD
:10227000C043C0060CD454F8301B6FF01000486106
:1022800044F810596777A577206A2062257717E010
:10229000FEF732FBA0EB0800B04208D83EB1206840
:1022A0004169C9434906E2D40020BDE8F08144F801
:1022B000305F6773A573206940F0200020612573AB
:1022C0000120F2E770B516460D4604460DE02046A3
:1022D000FFF73DFE08B1012070BD681C05D0FEF778
:1022E0000BFB801BA84207D835B120684069C0436A
:1022F0000006ECD4002070BD002044F8300F2021EF
:102300006173A073216941F0200121612073E2E72C
:102310002DE9F04186B000242048009401940294F5
:102320000394816941F010018161816901F010011C
:102330000491816941F004018161816901F0040126
:102340000491816941F0080181618069144F00F0B6
:1023500008004FF400550490002229463846FEF745
:10236000C5FADFF84080002208214046FEF7BEFA99
:102370000095022601250396CDE9015469463846A9
:10238000FEF7C4F90820CDE90005CDE9024669460B
:102390004046FEF7BBF906B0BDE8F08100100240F0
:1023A00000100140000C014010B586B00024124816
:1023B000009401940294039404944FF08041059496
:1023C00001604FF4FA51C0E9011440F2E731C0E96D
:1023D000031480218161FFF759F94FF48050009078
:1023E00069460548FFF7C8F9049404A90248059412
:1023F000FFF718F906B010BDE0000020FEE7FEE789
:1024000070477047FEF7E4BD10B590B028216846CC
:10241000FDF74FFF14210AA8FDF74BFF02200090A3
:102420000120049010200024059007946846FEF7D0
:1024300053FF0F20CDE90A040C940D9400210AA843
:102440000E94FEF75DFE10B010BD70470148FFF717
:10245000FFB90000E0000020F0B50268164B174CF1
:10246000174D4FF08047984205D0B84203D0A042A4
:1024700001D0A84203D122F070064A683243984244
:1024800005D0B84203D0A04201D0A84203D122F423
:102490004074CA6822434C6922F0800222430260E1
:1024A0008A68C2620A688262984201D1096901633E
:1024B00001214161F0BD0000002C014000040040FA
:1024C0000008004010B5846842EA032224F47F44E7
:1024D0000A432243826010BD826822F070020A43E0
:1024E00042F007018160704710B5036A046A24F066
:1024F00001040462846924F0F00444EA021423F025
:102500000A020A438461026210BD10B5036A23F017
:10251000100303628369046A23F4704343EA0232BE
:1025200024F0A00343EA01118261016210BD10B5DD
:10253000406A0021C185C184FFF7ACFA10BD016873
:10254000CA6822F49072CA6001684A6922F00102E6
:102550004A61016B012904D10168CA6822F01002A6
:10256000CA60202180F83E1000210163704708B541
:1025700090F83E10222901D0022008BD82684FF455
:1025800080539A4201D1016921B1816A9A421BD0DC
:102590004AB10AE00268816A5268C2F308020A80FE
:1025A000816A891C08E0026972B10268526802F00F
:1025B0007F020A70816A491C8162C18D491E09042B
:1025C000090CC18503D019E002685268F1E701687F
:1025D000CA6822F02002CA600168CA6822F48072C8
:1025E000CA6001684A6922F001024A61202180F82C
:1025F0003E10016B012903D0FFF7DCFB002008BD72
:10260000002101630168CA6822F01002CA600168F3
:102610000A68D20602D50A6849680091818DFFF7E1
:1026200038FAEBE770B5044600680169E26821F406
:102630004051114301612169A06808436169084361
:102640002168CA6841F20C639A430243CA60206859
:102650004169A26921F44071114341611E4920681A
:10266000884202D1FEF7F2FD01E0FEF7DFFD00EB4C
:10267000C00101EB0012606864218000B2FBF0F33E
:10268000B3FBF1F36FF018067343B2FBF0F5B2FB46
:10269000F0F605EB8305322303EB0515B5FBF1F5E9
:1026A000B6FBF1F605F0F00505EB0615B2FBF0F60A
:1026B000B2FBF0F0B0FBF1F06FF01802504306EB04
:1026C000800003EB0010B0FBF1F0216800F00F0078
:1026D0002844886070BD0000003801408162828516
:1026E000C28500210164222280F83E2080F83C103F
:1026F0000168CA6842F48072CA6001684A6942F09F
:1027000001024A610068C16841F02001C1600020F7
:1027100070472DE9F041984617460E460446069D3F
:102720001DE0681C1BD02DB1FEF7E6F8A0EB0800F9
:10273000A84214D92068C16821F4D071C160206812
:10274000416921F001014161202084F83D0084F8B5
:102750003E00002084F83C000320BDE8F0812068A2
:10276000006836EA000004D00020B842D9D000202A
:10277000F3E70120F9E700000148FFF78DB90000F9
:1027800028010020FEE70907090E002804DB00F1FC
:10279000E02080F80014704700F00F0000F1E02006
:1027A00080F8141D7047000008B5FEF719FCFFF70C
:1027B0002BFEFFF7ADFDFFF7F7FD30482E49002453
:1027C00001602F49C0E901144FF48041C0E9034181
:1027D00044618461C4610462FEF794F82748294982
:1027E0009C3001604FF4E131C0E901140C21C46058
:1027F000C0E904418461C461FFF754FA1F486423AF
:10280000142221499C30FFF747FB1F491B48012236
:1028100016399C30FFF7B8FA1B4D173DA1B264235F
:1028200001221648FEF732F900B92C70641CFF2C07
:10283000F4DB1249A1F15000FDF7E4FE02200F493C
:10284000009010233F22A1F13400FDF7DFFD0B487B
:102850000EA13438FDF75BFE084801220021343810
:10286000FDF738FE05480BA13438FDF750FE03484C
:102870005430FEF755FFFEE7005400408C00002066
:10288000A0860100003801401700002044617465F3
:102890000000000054696D650000000000000000A9
:1028A0000000000001020304060708090000000000
:1028B00001020304D4280008000000203C000000AE
:1028C00028010008102900083C000020940700009F
:1028D00044010008000000000000000000000000AB
:1028E0000000000000000000000000446174652F3B
:1028F00054696D650A00000000000000000000003F
:102900000100000010000000000000000024F4009E
:04000005080000ED02
:00000001FF
