:020000040800F2
:1000000060070020AD010008F53100089B2B0008B7
:10001000193100087D140008273300080000000093
:10002000000000000000000000000000F93100089E
:10003000C716000800000000F7310008FB31000877
:10004000C7010008C7010008C7010008C701000870
:10005000C7010008C7010008C7010008C701000860
:10006000C7010008C7010008C7010008C701000850
:10007000C7010008C7010008C7010008C701000840
:10008000C7010008C7010008C7010008C701000830
:10009000C7010008C7010008C7010008C701000820
:1000A000C7010008C7010008C7010008C701000810
:1000B00045320008C7010008C7010008C701000851
:1000C000C7010008C7010008C7010008C7010008F0
:1000D000C7010008C7010008C7010008C7010008E0
:1000E000C7010008C7010008C701000800F002F8B6
:1000F00000F04DF80AA090E8000C82448344AAF175
:100100000107DA4501D100F042F8AFF2090EBAE872
:100110000F0013F0010F18BFFB1A43F0010318473B
:10012000783A0000983A0000103A24BF78C878C1A5
:10013000FAD8520724BF30C830C144BF04680C60ED
:10014000704700000023002400250026103A28BF35
:1001500078C1FBD8520728BF30C148BF0B60704739
:10016000662903F03F84642900F0A480732900F01D
:100170003A84002070471FB500F03AFC04000020CC
:10018000002103F06FF9E0601FBD10B510BD00F055
:100190002FFD1146FFF7EFFF03F022F900F04DFDB0
:1001A00003B4FFF7F2FF03BC00F090FD094880475D
:1001B00009480047FEE7FEE7FEE7FEE7FEE7FEE749
:1001C000FEE7FEE7FEE7FEE704480549054A064B61
:1001D0007047000041320008ED0000086001002077
:1001E0006007002060030020600300200FB41CB5EE
:1001F000074B06AA7B4469460090059800F0C9FBAE
:100200000020694600F0D8FB1CBC5DF814FB000020
:10021000C107000070B5044685690068C10601D5B4
:10022000302600E02026C00707D070BDD4E90121A8
:1002300030469047206A401C20626D1EF6D570BD86
:1002400070B5044685690078C00707D170BDD4E950
:10025000012120209047206A401C20626D1EF6D5A7
:1002600070BD70B50C460546012A05D02878800679
:1002700000D5EA69002302E0012305E05B1C9342FC
:1002800002D2E05C0028F9D1A869E618C01AA8617A
:10029000286A184428622846FFF7BCFF04E0D5E925
:1002A000012114F8010B9047B442F8D32846FFF718
:1002B000C7FF70BD2DE9F04106460024106875297E
:1002C000314616A510D0AFF30080002802DA404274
:1002D00013A507E031688A0701D512A502E0490796
:1002E00004D511A5012401E0AFF3008000210A220A
:1002F00006F1240709E0B0FBF2FCB0FBF2F302FBCD
:100300001C00303078541846491C0028F3D123468D
:100310002A463046BDE8F04100F0CEB800000000AB
:100320002D0000002B000000200000002DE9F05FF0
:10033000894604464FF0000ADFF824B1FB44C0F8B8
:1003400020A02046E168884700287DD0252806D0D7
:10035000D4E901219047206A401C2062F1E7002582
:100360005F462046E16888472028064607DB312E95
:1003700005D2B81910F8200C08B10543F1E7A80719
:1003800001D525F00405C4F81CA00027C4F818A066
:100390002A2E09D0304602F0EBFF38B304EB870871
:1003A000303EC8F8186019E059F8041B204604EBE9
:1003B00087029161E1688847012F064618D1E069FC
:1003C000002820DA25F020051DE0D8F8180000EB01
:1003D000800006EB40003038C8F818002046E1687D
:1003E0008847064602F0C4FF0028EED1012F0AD04C
:1003F0002E2E08D12046E16888477F1C0646022F32
:1004000045F02005C4DBA069002803DA404245F02E
:100410000105A061E80701D025F01005A6B1A6F1FD
:100420004100192802D8203645F400654A46314675
:10043000204625604D46FFF793FE60B1012807D0A6
:10044000ED1D25F0070000E007E000F1080978E75E
:1004500005F1040975E730467AE7206ABDE8F09FA8
:10046000B03700004FF0000200B5134694469646A0
:10047000203922BFA0E80C50A0E80C50B1F12001B7
:10048000BFF4F7AF090728BFA0E80C5048BF0CC065
:100490005DF804EB890028BF40F8042B08BF7047C3
:1004A00048BF20F8022B11F0804F18BF00F8012B35
:1004B00070477047704770472DE9F0470D469946E1
:1004C0009246044600F124080168880604D5E069D4
:1004D00021F01001216000E00120A84201DD471B4E
:1004E00000E00027A1697A1902EB0900081AA0614F
:1004F0002078C00602D42046FFF78CFE002608E0D4
:10050000D4E901211AF806009047206A401C761CA5
:1005100020624E45F4DB2078C0060AD52046FFF75E
:1005200079FE06E0D4E9012130209047206A401C82
:100530002062381EA7F10107F4DC07E0D4E90121AD
:1005400018F805009047206A401C2062281EA5F17B
:100550000105F3DC2046FFF773FE2078000602D584
:100560000220BDE8F0870120FBE770472DE9FF4F2F
:100570000C461E464FF0FF378BB0D2E90001DDF884
:1005800060800A908A46C1F30A5505B93D460021AC
:1005900008464FF00000BAF1000F00F4400005DA01
:1005A00000EB80004FF4400101EA50004FEA9059FF
:1005B000B9F1010F00DDB9460A9850EA4A000ED0A1
:1005C00044F61050A5F2FF3545432F14B8F1000F43
:1005D0001ED07542291E1EDDC9F100021CE0B8F1D3
:1005E000010F4FF0000001D0302103E0F24305E09D
:1005F0002154401CB042FBDB304600220021215434
:100600000B99C1F80880C1E900200FB0BDE8F08F58
:10061000BD1B6D1CDEE74A4600DA694206A800F001
:1006200071FA06AB93E8070003AB83E80700504676
:100630000A9900F052FB8DE80700A0F500501F3822
:1006400000900398002D0ADD42F21F014A4608443B
:10065000002303A90390684600F0BBFD09E0A0F564
:1006600000504A461F38002303A90390684600F053
:10067000C5FD8DE807000004000C03D04FF0FF30EB
:10068000410800E01046B8F1000F03D000220092AC
:1006900015461EE0751E05D400F0AEF930326255E5
:1006A0006D1EF9D5B3460122084302D000227F1CFB
:1006B00004E02078302801D100227F1E002A09970B
:1006C00084D01DE0112D07DA00F096F93032625522
:1006D0006D1C50EA0102F5D1084302D00098C8B160
:1006E0000EE00021681E05E0235C625C6354225426
:1006F000401E491C8142F7DBAB46A81B401E0990F7
:10070000002004F80B000B98099AC0F80880C0E993
:10071000002B7AE711264FF0000857E72DE9F04F3C
:1007200088460446D21D22F0070191B0D1E90001AC
:10073000CDE90A0102F0F8FD02460B98C00F01D086
:100740002D2007E02068810701D52B2002E0202121
:1007500001EAC000032A099001D0072A05DB0346FD
:100760004146204600F08EF90BE12078800601D545
:10077000E06900E00620B8F1650F814606D0B8F1C7
:10078000660F18D0B8F1670F70D131E00020B9F1D1
:10079000110F009001DB112301E009F101030AAA06
:1007A00001A90CA8FFF7E2FEDDE90C70002609F1B3
:1007B0000105834647E001204B4600904FF000477B
:1007C0000AAA01A90CA8FFF7D1FEDDE90DB00C992A
:1007D0005D46002610B909F101000D18B9EB0500BE
:1007E00003D4C0F1FF3609F10105A5EB09002BE0A8
:1007F000B9F1010F01DA4FF001090020B9F1110F31
:100800000090484601DD112300E003460AAA01A931
:100810000CA8FFF7ABFEDDE90C704D4600268346C1
:10082000207800070AD4AB4500DA5D4601A8012D07
:1008300004DD411911F8011C302907D04F4502DAB7
:1008400017F1040F04DA012082460FE06D1EEEE777
:10085000002F02DCED1B3E4403E0781CA84200DDC3
:100860007D1CB81B00F1010A4FF0004720780007FB
:1008700003D4AA4501DB4FF0FF3A0021B7F1004F46
:100880000DF143088DF8431024D002202B23002FB4
:1008900001DA7F422D230A21021EA0F1010000DCB3
:1008A0005FB197FBF1FC97FBF1F201FB1C7C174653
:1008B0000CF1300C08F801CDEEE7A8F1010003704F
:1008C0002188090501D5452100E06521A0F1010835
:1008D00000F8011C09980FA9A1EB0807FF1D00B142
:1008E0000120411901EBEA70A1693844081A401E41
:1008F000A0612078C00602D42046FFF78BFC09983F
:1009000028B1D4E901219047206A401C2062207858
:10091000C00622D52046FFF77DFC1EE0002E04DB3A
:10092000B34502DD01A8805D00E03020D4E901215B
:100930009047206A401C2062761CAAF101005FEA01
:10094000000A0AD100F054F8C0680168405CD4E99C
:1009500001219047206A401C2062281EA5F1010554
:10096000DCDC07E0D4E9012118F8010B9047206A8C
:10097000401C2062381EA7F10107F3DC2046FFF778
:100980005FFC032011B041E601694A1C026108784E
:10099000704700B58FB0CDE90131002105910549BF
:1009A0007944CDE9031011466846FFF7BFFC0FB04C
:1009B00000BD0000E5FFFFFF0A6802F8010B0A60B6
:1009C000704710B5436913B1AFF3008001E0FFF742
:1009D00048FC012010BD127800F124010A700022A9
:1009E0004A700122EDE711684FF0FF32E9E700009D
:1009F000004870471C01002030B5B0F10A024FEAF0
:100A0000900E71F100034EEA817EB0EB0E0061EBB7
:100A100091014FEA101E4EEA017E10EB0E0041EBF1
:100A200011114FEA102E4EEA016E10EB0E0041EB51
:100A300011214FEA104E4EEA014E10EB0E0041EB31
:100A40001141401841F100014FEAD00040EA4170E5
:100A50004FEAD10110EB80054FEA810444EA90741B
:100A600044EB01046D1944EB0404521BA3414FF005
:100A7000000348BF0A3200D530BD401C41F10001DF
:100A800030BD00002DE9F0411F46044603260168F1
:100A9000072A01F4006004DB08B116A505E016A5DD
:100AA00003E008B115A500E015A521F010002060B5
:100AB000A069C01EA0610FB1401EA0612046FFF7D3
:100AC000A9FB4FB1D4E9012138469047206A401C68
:100AD0002062C01C206206E0206AFAE7D4E9012106
:100AE00015F8010B9047761EF8D22046FFF7A8FBB9
:100AF000BDE8F0814E414E006E616E00494E4600E9
:100B0000696E66002DE9F047814616468AB0354881
:100B100078440DC88DE80D0032487844801C03AC41
:100B20000DC884E80D0041F69B300844372190FB46
:100B3000F1F290FBF1F5A5F1800501FB12041B3CDD
:100B400002D56442012000E00020DFF898A0804632
:100B50000027FA44AAF1BE0A0EE0E0070AD03246A6
:100B6000684607EB470101230AEB810100F046FBD1
:100B70008DE8070064107F1C002CEED1194F7F44D4
:100B8000AE3F19E0E80715D007EB04100DF1180A85
:100B900090E80E008AE80E00C068F04201D1981972
:100BA00008903246012306A903A800F027FB03ABF7
:100BB00083E807006D10641C002DE3D14FF00103A2
:100BC00032466946B8F1000F03A802D000F001FBDD
:100BD00001E000F013FBC9E90001C9F808200AB0E0
:100BE000BDE8F0876C30000000487047FC00002032
:100BF0007546FFF7F9FFAE4605006946534620F0FB
:100C00000700854618B020B5FFF7DEFABDE82040A2
:100C10004FF000064FF000074FF000084FF0000BB8
:100C200021F00701AC46ACE8C009ACE8C009ACE86B
:100C3000C009ACE8C0098D46704710B50446AFF353
:100C400000802046BDE81040FFF7AABA4FF0013CF3
:100C500050F8042B51F8043B9A4221D1A2EB0C032B
:100C6000934313EACC1317D150F8042B51F8043BEB
:100C70009A4215D1A2EB0C03934313EACC130BD188
:100C800050F8042B51F8043B9A4209D1A2EB0C0313
:100C9000934313EACC13DBD04FF00000704700BF42
:100CA000D01A01BAB1FA81F101F0180122FA01F06B
:100CB000CB40C1F12001DBB2C0B2C01A2CFA01F363
:100CC000D11A914311EAC311E6D1704701491820A6
:100CD000ABBEFEE72600020070475FEA400C08BF8B
:100CE00091F0000F4FEA8C234FEAC12243EA5151A1
:100CF0004FEA1C5018BF00F5F0404FEA300018BF13
:100D000041F000415FEA6C5C00F02980BCF1FF3FDC
:100D100008BF40F080407047130C06BF12044FF02C
:100D2000100C4FF0000C130E04BF12020CF1080C53
:100D3000130F04BF12010CF1040C930F04BF9200B7
:100D40000CF1020CD30F04BF52000CF1010C114640
:100D50004FF00002A0F11F00A0EB0C00704711F053
:100D6000004F08BF704731F000413FF4D5AF0B0C86
:100D700006BF09044FF0100C4FF0000C0B0E04BF1F
:100D800009020CF1080C0B0F04BF09010CF1040C53
:100D90008B0F04BF89000CF1020CCB0F04BF49007C
:100DA0000CF1010CCCF12003A0EB0C0022FA03F3B0
:100DB00002FA0CF241EA030100F10100704720F051
:100DC0007F4C80EA030023F07F47ACEB070303F579
:100DD0007C5300F0004003F1FF032DE980494FEA06
:100DE000154B09B44FEA144325EA0B4E24EA034895
:100DF0000FF2042606EB132749083E785FEA320219
:100E000003FB0667C7F5000707FB06F64FEA5437F2
:100E10004FEAD64606F1020607FB066CCCF1005CF1
:100E20004FEA1C472CEA074C07FB06F40CFB06F5BF
:100E300004EB15464FEA961634BF00204FF00040F1
:100E40004FEAD13706FB07FC4FEA1C4C0CFB0BF7B3
:100E5000D21B03FB0CF761EB07010CFB0EF7B0EBA9
:100E6000074072EB17420CFB08F734BFA2EB0742B6
:100E7000B2EB074261EB17414FEA0C444FEA91078E
:100E800006FB07FC4FEA1C4C0CFB0BF7B0EBC74012
:100E900072EB573203FB0CF734BFA2EBC742B2EB45
:100EA000C74261EB57310CFB0EF7B0EBC70072EB9A
:100EB00057720CFB08F734BFA2EBC702B2EBC702B4
:100EC00061EB5771039F4FEA816141EA921104EB94
:100ED000CC044FEAD1374FEA826206FB07FC42EAB4
:100EE00090124FEA80604FEA1C4C0CFB0BF7D21BB0
:100EF00003FB0CF761EB07010CFB0EF7B0EB0740AF
:100F000072EB17420CFB08F734BFA2EB0742B2EBBF
:100F1000074261EB17414FEA8C554FEA910704EB0A
:100F20009C2406FB07FC4FEA1C4C0CFB0BF7B0EBB8
:100F3000C74072EB573203FB0CF734BFA2EBC7423A
:100F4000B2EBC74261EB57310CFB0EF7B0EBC700B9
:100F500072EB57720CFB08F734BFA2EBC702B2EB7F
:100F6000C70261EB577115EB4C254FEA816141EAED
:100F700092114FEA82624FEAD13742EA901206FBA1
:100F800007FC44F100044FEA80604FEA1C4C0CFB64
:100F90000BF7D21B03FB0CF761EB07010CFB0EF701
:100FA000B0EB074072EB17420CFB08F734BFA2EB23
:100FB0000742B2EB074261EB174115EB1C154FEAF4
:100FC000813141EA92414FEA823242EA90424FEA4D
:100FD00080304FEA0C7644F1000448EA03434EEABD
:100FE0000B484FF0000EB2EB080C71EB030724BF67
:100FF000624639464EEB0E0E4FF0000B0018524180
:1010000049414BEB0B0BB2EB080C71EB03077BF187
:10101000000B24BF624639464EEB0E0E4FF0000B1C
:101020000018524149414BEB0B0BB2EB080C71EB32
:1010300003077BF1000B24BF624639464EEB0E0ED0
:1010400051EA020718BF46F0010616EB0E7655F17D
:10105000000254F1000103D5BDE88901BDE8008814
:10106000BDE88901BDE80048B619524141EB0101D4
:10107000A3F10103704780807F7E7D7C7B7A797845
:10108000777676757473727171706F6E6E6D6C6C4D
:101090006B6A6A69686867666665646463636261EF
:1010A0006160605F5F5E5E5D5D5C5C5B5B5A5A5970
:1010B00059585857575656555555545453535252DC
:1010C0005251515050504F4F4F4E4E4D4D4D4C4C34
:1010D0004C4B4B4B4A4A4A4949494848484747477D
:1010E00047464646454545444444444343434342BA
:1010F000424242414141002B9C4630D477002BD0E4
:101100001CB54FEA370703B44FF010004FF0100141
:10111000BAF1000F06D0BCF1000FDCBF40F00800B0
:1011200040F008014FF000000FBCBDE810400BF18B
:10113000010BBBF1010F08BF5FEA170722BF12F1D5
:10114000010211F101014FF0004143F1000300F0F1
:10115000004043EA00007047F9D35708D0E746EA59
:10116000064613F1400F4FEA16461FDD13F1200F1C
:10117000DFBF16430A46002120335B42BED0C3F1D5
:10118000200746EA064602FA07F74FEA164646EAFD
:101190000706C3F1200722FA03F201FA07F721FA42
:1011A00003F14FF0000342EA0702A7E746EA02060E
:1011B00046EA06464FEA164646EA0106BCBF46EA3C
:1011C0000646360C4FF000034FF000024FF00001CE
:1011D00094E72DE9804C9A46934670B491E8380024
:1011E00007C831EA400C48BF34EA430C03D5FFF787
:1011F000E6FDFFF780FFF0BCBDE8008C2DE9804CD8
:101200009A46934670B491E8380007C810F0804FB2
:1012100008BF13F0804F03D100F005F8FFF76BFF14
:10122000F0BCBDE8008C20F07F4780EA030023F08B
:101230007F4C07EB0C03A3F57C5300F00040A3F1B7
:10124000FE0392F0000F00F0B38095F0000F00F065
:1012500077802DE901494FEA11404FEA144621EA0F
:10126000004800FB06FC24EA064708FB06F607FBDD
:1012700008F800FB07F718EB06484CEB164C4FEA52
:10128000124B18EB07484FEA15464CEB174022EA81
:101290000B4E0BFB06FC25EA06470EFB06F607FB8A
:1012A0000EFE0BFB07F71EEB064E4CEB164C4FF0F9
:1012B00000061EEB074E4CEB174B18EB0B0840F1EA
:1012C000000018EB0E0B58EB000840F100008F1ADD
:1012D0004FF000013CBFC943661B14BFB5EB040CC3
:1012E00000213CBFC943F61B4FEA17444EEA8E0E5D
:1012F00027EA04454FEA1C4704FB07622CEA074C27
:1013000005FB07F70CFB05F604FB0CFC16EB074688
:1013100042EB174216EB0C4642EB1C421BEB060657
:1013200058EB0202414146EA9E0601D5BDE801891B
:10133000B619524141EB0101A3F10103BDE8018956
:101340004FEA14454FEA114724EA054621EA074CC3
:1013500005FB07F406FB07F70CFB06F105FB0CFC8D
:1013600011EB074144EB17444FEA124711EB0C41D4
:1013700044EB1C4422EA074C05FB07F206FB07F787
:101380000CFB06F605FB0CFC16EB074642EB17427E
:1013900016EB0C4642EB1C456A1854F1000148BF9D
:1013A0007047B619524141EB0101A3F101037047A7
:1013B00095F0000F37D04FEA11424FEA144721EA67
:1013C000024624EA074C02FB07F106FB07F70CFB79
:1013D00006F402FB0CFC14EB074441EB17414FEA07
:1013E000154714EB0C4441EB1C4125EA074C02FB6A
:1013F00007F506FB07F70CFB06F602FB0CFC16EBE9
:10140000074645EB174516EB0C4645EB1C421219F7
:1014100051F1000148BF7047B619524141EB01013B
:10142000A3F1010370474FEA14454FEA114724EA3C
:10143000054621EA074C05FB07F106FB07F70CFB05
:1014400006F24FF0000605FB0CFC12EB074241EBE5
:10145000174112EB0C4251EB1C4148BF70479218E8
:1014600041EB0101A3F10103704700F00F010009F6
:1014700000EB800001EB4000C0B27047FEE710B502
:1014800004460298216022716371A0712820A07225
:101490000620E0710C202072142060720820E07297
:1014A000322000F011F900223321204600F073F8B9
:1014B000052000F009F900223321204600F06BF8E6
:1014C000052000F001F900223221204600F063F8E7
:1014D000052000F0F9F800222021204600F05BF8FA
:1014E000052000F0F1F8E1790022204600F053F8E1
:1014F000012000F0E9F8217A0022204600F04BF8A4
:10150000012000F0E1F8617A0022204600F043F863
:10151000012000F0D9F8A17A0022204600F03BF823
:10152000012000F0D1F800220121204600F033F81C
:10153000012000F0C9F820460022BDE81040022139
:1015400000F029B808B50BA31B68009343798B42C0
:1015500001D85B1ED9B28379934201D85B1EDAB2FF
:101560001DF802201144C9B241F08001002200F0B0
:1015700012F808BD80C00000012200F00CB870B560
:101580000C46054603E02846641CFFF7F5FF21786A
:101590000029F8D170BD7CB506460807040EF07A24
:1015A00001F0F00518B145F0080544F00804012ADF
:1015B00001D02AB108E045F0010544F0010403E040
:1015C00025F0010524F0010445F004008DF8040025
:1015D000012000F079F88DF8055044F004008DF8F2
:1015E0000600012000F070F84FF47A708DF8074083
:1015F00000903179042301AA306800F0EDFA7CBD37
:101600003EB504464FF47A7204210E308DE807008F
:1016100001230322D021206800F074FBA07BFFF798
:1016200024FF2076E07BFFF720FFE075207CFFF7AA
:101630001CFF6076607CFFF718FFA0763EBDFEB50C
:10164000044601F09CFE4FF47A72022104F112006C
:101650008DE8070001231122D021206800F052FB01
:10166000E07C800901F0F6FF6FF0010202F0EEF974
:1016700006460D46A07C01F0EDFF32462B4601F0F8
:1016800039FF03B0BDE8F04001F002BF3EB50446AB
:101690004FF47A720321C01D8DE807000123002258
:1016A000D021206800F02EFBE079FFF7DEFEA07568
:1016B000207AFFF7DAFE6075607AFFF7D6FE2075B4
:1016C0003EBD01607047704770B5044600F004F9F4
:1016D0000546601C02D004480078044400F0FCF881
:1016E000401BA042FAD370BD080000202DE9F84F3E
:1016F000DFF8B891002409F1040A0AF1040B23462B
:101700000F270BF1040EC9E00125A5402A40AA428B
:101710007DD1674ED1F804C0ACEB0608B44532D099
:1017200014DCBCF1030F3AD009DCBCF1000F2AD065
:10173000BCF1010F1CD0BCF1020F31D11DE0BCF196
:10174000110F17D0BCF1120F2AD119E0B8F5881F7C
:1017500019D006DCB8F5803F15D0B8F5801F1FD131
:1017600011E0B8F5001F0ED0B8F5041F18D10AE03B
:10177000CB6815E0CB681B1D12E0CB6808330FE087
:10178000CB680C330CE08B682BB1012B4FF00803B6
:1017900003D0456104E0042302E0056100E000237A
:1017A000FF2A01D8064601E000F104064FEA84054D
:1017B00001D9A5F12005D6F8008007FA05FC28EA32
:1017C0000C0803FA05F548EA0508C6F800804D68DC
:1017D000ED0062D5374DAE6946F00106AE61AD69E8
:1017E00024F0030605F001050095334D06EB050CCA
:1017F000DCF80850A607360F07FA06F825EA0805B0
:10180000DFF8B880404503D14FF0000817E044E00E
:10181000DFF8AC80404502D14FF001080FE0DFF85F
:10182000A480404502D14FF0020808E0DFF898801C
:10183000404502D14FF0030801E04FF0040808FAD8
:1018400006F848EA0508CCF808804D68D9F8006029
:10185000ED034D4601D5164300E096432E604D68DA
:10186000DAF80060AD03554601D5164300E0964313
:101870002E604D68DBF80060ED025D4601D5164331
:1018800000E096432E604D68DEF80060AD027546BC
:1018900001D5164300E096432E60641C0D682A466D
:1018A000E5407FF431AFBDE8F88F0000000401404F
:1018B000000011100010024000000140000801402B
:1018C000000C014000100140001401400AB1016108
:1018D00070470904FBE7000001488068704700007A
:1018E0000800002070B5040025D094F83D000025C4
:1018F00020B984F83C50204600F0C4FB242084F832
:101900003D002068016821F0010101602068016844
:1019100041F4004101602068016821F40041016048
:1019200000F00CFD4D4A6168914201D84C4900E03D
:101930004C49884201D2012070BD4B492368B0FB5D
:10194000F1F15E6826F03F060E435E6063689342E5
:1019500006D94FF4967359434FF47A73B1FBF3F100
:101960002368491C1E6A26F03F06314319626168EC
:10197000914210D84900401EB0FBF1F2521CC2F354
:101980000B02042A01D2042022E0B0FBF1F0401C3B
:10199000C0F30B001CE0A268F2B301EBC10303EB40
:1019A0000116431EB3FBF6F35B1C43F480431B0597
:1019B00049D092B301EBC10202EB0111401EB0FB12
:1019C000F1F0401CC0F30B0040F4804040F40040B4
:1019D0002168CA694CF6FF739A431043C861D4E981
:1019E000071001432068026822F0C0021143016021
:1019F000D4E9030101432068826848F2FF339A4327
:101A000011438160D4E9050108432168CA6822F0C6
:101A1000FF021043C86001E00EE016E02068016894
:101A200041F0010101602564202084F83D00256318
:101A300084F83E50002070BD01EB4106431EB3FB0D
:101A4000F6F35B1CB3E70120C2E701EB4101401E46
:101A5000B0FBF1F0401CC0F30B00B7E7A08601001B
:101A600080841E0000093D0040420F002DE9FF4F19
:101A700081B089460446FFF72FFF054694F83D00E4
:101A80004FF0010820287DD119230122504920461A
:101A9000009501F0E1F9002874D194F83C00012888
:101AA00070D0012084F83C0020680168C90703D188
:101AB000016841F0010101602068016821F40061C2
:101AC0000160242084F83D00002626644148E0623D
:101AD0004FF0011B20272068016841F480710160EC
:101AE0000095002259462046049B01F0B5F950B1FB
:101AF00020680068C00502D54FF400702064032000
:101B000005B0BDE8F08F216809F0FE000861FFF71D
:101B1000E3FE2168054648694969C0F34000C1F306
:101B200080214FF0A00A0FE0FFF7D6FE411B04987A
:101B3000814200D808B984F83DA021684869496904
:101B4000C0F34000C1F3802194F83D20A02A02D0C8
:101B500008B90029E8D084F83D7020684169C9437C
:101B6000890716D4016841F4007101602068416959
:101B700080691923012216492046009501F06CF96D
:101B8000B8B900E021E084F83D7084F83C600020A2
:101B9000B6E7016841F40071016021686FF480606C
:101BA0004861192301220A492046009501F054F9A1
:101BB00008B10120A4E7039808F1010880458AD301
:101BC00084F83D7084F83C60F3E7022098E7000059
:101BD000020010000000FFFF2DE9F84F1F4690465D
:101BE0008A460446DDF82890FFF776FE054694F80D
:101BF0003D0020287FD1192301224049204600952D
:101C000001F02AF9002876D194F83C00012872D01E
:101C1000012084F83C0020680168C90703D10168ED
:101C200041F0010101602068016821F40061016058
:101C3000212084F83D00102084F83E000026266410
:101C4000C4F824806785608D20852D48E0622B468E
:101C50004A465146204600F0B9FF90B920684169D4
:101C60008069009036E02A464946204601F0A6F9F0
:101C700050B1206C042804D12068016841F400713F
:101C800001600120BDE8F88F606A21680078086172
:101C9000606A401C6062618D491E6185218D491E0C
:101CA00089B2218522685369DB435B070BD451B1AC
:101CB00000781061606A401C6062608D401E608523
:101CC000208D401E20852A464946204601F09EF878
:101CD0000028CED1208D0028C5D154F83D0B0168D5
:101CE00041F400710160202004F81E09E677667750
:101CF0000020C7E7FFE70220C4E700000200100051
:101D00000000FFFF2DE9FF4F83B00025DDE91079CA
:101D10009A4693460446DDF848800095FFF7DCFDBF
:101D2000064694F83D0020287CD1192301228549DC
:101D30002046009601F090F80028F5D194F83C0078
:101D400001286FD0012084F83C0020680168C90791
:101D500003D1016841F0010101602068016821F4AC
:101D600000610160222084F83D00402084F83E009C
:101D700025646762A4F82A90608D20857248E0622D
:101D8000CDE9008653465A462046049900F06CFF80
:101D900000287DD1208DDFF8B491202768B101287B
:101DA00014D00228206801681ED041F480610160CF
:101DB0002068416980690090B6E0206841698169C6
:101DC0000091016841F400710160ADE02068016894
:101DD00021F48061016072B62068416981690091D7
:101DE000016841F400710AE041F40061016072B6DB
:101DF0002068416981690091016821F48061016076
:101E000062B691E0032868D801280CD00228434626
:101E10004FF000024946204600960FD001F01CF812
:101E2000B0BB10E08BE032464146204601F093F80B
:101E300070BB20680069616A08706CE001F00CF802
:101E400030BB72B634E02068016821F48061016023
:101E500072B620680069616A0870606A401C60623E
:101E6000208D401E2085608D401E6085384846F2DA
:101E7000A8110068B0FBF1F0C0EBC00000EB8000DF
:101E80000090401E009008D020684069C04300E0E8
:101E900029E040070CD50098F3E744F8305F6773FA
:101EA000A573206940F02000206162B625731AE016
:101EB0002068016841F40071016020680069616A6E
:101EC0000870606A401C6062218D491E2185618D09
:101ED000491E618562B621681BE0324641462046B4
:101EE00001F039F818B1012007B0BDE8F08F206883
:101EF0000069616A0870606A401C6062218D491E39
:101F00002185618D491E618521684A69D243520746
:101F10000AD409690170606A401C6062208D401E0D
:101F20002085608D401E6085208D00287FF46AAF7B
:101F300084F83D7084F83E5084F83C50D4E7022089
:101F4000D2E70000020010000000FFFF04000100C3
:101F5000140000202DE9FF4F83B09A46DDE9119768
:101F600093460446DDF84080FFF7B6FC054694F83A
:101F70003D0020287FD119230122404920460095A9
:101F800000F06AFF002876D194F83C00012872D056
:101F9000012084F83C0020680168C90703D101686A
:101FA00041F0010101602068016821F400610160D5
:101FB000212084F83D00402084F83E00002626645D
:101FC000C4F82480A4F82A90608D20852C48E06213
:101FD000CDE9007553465A462046049900F0C2FEEA
:101FE00070B930E02A463946204600F0E7FF58B184
:101FF000206C042804D12068016841F4007101605C
:10200000012007B0BDE8F08F606A216800780861A0
:10201000606A401C6062218D491E89B22185628DF3
:10202000521E628522685369DB435B070BD469B19A
:1020300000781061606A401C6062208D401E20851F
:10204000608D401E6085208D0028CBD12A46394600
:10205000204600F0DBFE0028CAD154F83D0B016891
:1020600041F400710160202004F81E09E6776677CC
:102070000020C6E7FFE70220C3E7000002001000CF
:102080000000FFFF10B586B0002100910191029180
:10209000039100680F4988421AD10F4CA06940F0A3
:1020A0000800A061A069694600F008000490C02003
:1020B000009012200190032003900848FFF716FBC0
:1020C000E06940F40010E061E06900F40010049061
:1020D00006B010BD0054004000100240000C01404A
:1020E000024881680278114481607047080000202E
:1020F000074810B5016841F010010160032000F0AD
:1021000075F8002000F006F800F024F8002010BD5B
:102110000020024070B50D4D04464FF47A712878C6
:10212000B1FBF0F00A490968B1FBF0F000F0DCFA0D
:1021300048B9102C07D200222146501E00F036F874
:1021400000206C6070BD012070BD00000800002000
:10215000140000200C4808B5816941F0010181613B
:10216000816901F001010091C16941F08051C161B3
:10217000C06900F0805000900448416821F0E0619F
:1021800041F08061416008BD001002400000014044
:10219000002809DB00F01F02012191404009800066
:1021A00000F1E020C0F8001170470000F0B40E4BC1
:1021B0001B680C46C3F30223C3F10705042D00D9A5
:1021C0000425191D072901D2002300E0DB1E01268A
:1021D00006FA05F1491E214099409E40761E1640A0
:1021E0003143F0BC01F0B4B80CED00E0064900F05A
:1021F000070208684FF6FF03184040EA0220034A2E
:1022000010430860704700000CED00E00000FA0584
:102210002DE9F0470F46050061D0434E306800F0CD
:102220000700B84209D2306820F007003843306018
:10223000306800F00700B84251D128683B4C810754
:1022400012D5400703D5606840F4E06060602878EC
:10225000000703D5606840F4605060606068A9685A
:1022600020F0F000084360602878C00728D0686834
:10227000012810D02168022810D0890700292EDA01
:10228000616821F0030101436160FFF725FB80468F
:1022900041F288390DE021688903EFE78901EDE714
:1022A000FFF71AFBA0EB0801494502D90320BDE85E
:1022B000F0876068696800F00C00B0EB810FEFD127
:1022C000306800F00700B8420BD9306820F00700F2
:1022D00038433060306800F00700B84201D0012078
:1022E000E5E72878400705D56068E96820F4E060F4
:1022F000084360602878000706D56068296920F4E3
:10230000605040EAC100606000F028F86168084A47
:10231000C1F30311515CC8400649086006480068D3
:10232000FFF7F8FE0020C2E7002002400010024044
:10233000D83A0008140000200C0000200448054989
:1023400000684968044AC1F30221515CC8407047E3
:102350001400002000100240E83A000812A185B0E5
:102360000FC98DE80F0014A0144A0068049051684A
:10237000134801F00C03042B10D0082B0ED1C1F32D
:102380008343C9031DF803000AD5516804AAC1F3A9
:102390004041515C0A4A5043B0FBF1F005B0704730
:1023A00008494843FAE70000020304050607080944
:1023B0000A0B0C0D0E0F101001020000001002405D
:1023C00000127A0000093D002DE9F84F040070D09A
:1023D0002078C04DC00749D06868C0F3810001284B
:1023E00007D06868C0F38100022809D16868C0037B
:1023F00006D52868800339D560680028E7D035E025
:102400006068B0F5803F0BD010B1B0F5A02F11D0AF
:10241000286820F480302860286820F4802002E0BA
:10242000286840F480302860606890B1FFF754FA63
:1024300006460AE0286840F480202860F0E700BFE4
:10244000FFF74AFA801B642873D828688003F7D501
:102450000CE0FFF741FA064605E000BFFFF73CFA43
:10246000801B6428F0D828688003F7D420789A4E1F
:1024700080074FF001094FF0000839D5686810F067
:102480000C0F07D06868C0F38100022809D1686882
:10249000C00306D42868800714D52069012808D114
:1024A00010E02069B0B1C6F80090FFF715FA0746B2
:1024B00005E00AE1FFF710FAC01B0228C4D828681B
:1024C0008007F7D52868616920F0F80040EAC1006C
:1024D00028600DE0C6F80080FFF7FEF9074604E02B
:1024E000FFF7FAF9C01B022823D828688007F7D421
:1024F000207800072CD57948A169D9B1C0F800909F
:10250000FFF7EAF9074604E0FFF7E6F9C01B0228E7
:102510000FD8686A8007F7D571484FF4FA51006800
:10252000B0FBF1F0009000BF0098411E0091FAD27C
:102530000EE080E0C0F80080FFF7CEF9074604E027
:10254000FFF7CAF9C01B022875D8686A8007F7D45C
:102550002078400760D5E8690027C00008D4E86902
:1025600040F08050E861E869012700F08050009059
:102570005C480168C90513D40168834641F4807141
:102580000160FFF7A9F9824606E000BFFFF7A4F952
:10259000A0EB0A0064284ED8DBF80000C005F5D592
:1025A000E06801280AD008B1052813D0286A20F075
:1025B00001002862286A20F0040002E0286A40F046
:1025C00001002862E06841F2883B98B1FFF784F986
:1025D00082460BE0286A40F004002862EEE700BF64
:1025E000FFF77AF9A0EB0A0159455AD8286A800703
:1025F000F6D50CE0FFF770F9824605E0FFF76CF9BD
:10260000A0EB0A0159454CD8286A8007F6D41FB1BF
:10261000E86920F08050E861E06988B36968C1F337
:102620008101022944D00228C6F8608004D0FFF757
:1026300053F9044638E034E0FFF74EF9074604E06A
:10264000FFF74AF9C01B02282BD828688001F7D46D
:10265000206AB0F5803F05D16868A16820F4003099
:1026600008436860D4E908010843696821F47411DB
:1026700008436860C6F86090FFF72EF9044606E04C
:1026800025E000BFFFF728F9001B022809D82868B9
:102690008001F7D51BE000BFFFF71EF9001B0228E1
:1026A00002D90320BDE8F88F28688001F4D40EE039
:1026B0000128F7D06868226A00F48031914204D181
:1026C000616A00F47010884201D00120EAE700201E
:1026D000E8E700000010024000004242800442424D
:1026E000140000200070004010B5401EB0F1807F43
:1026F00001D3012010BD4FF0E02460610F2160176D
:1027000000F026FE0020A06107202061002010BDFF
:102710007047704770B590F83C20012A26D00124FC
:1027200080F83C40022280F83D2003685A689D688A
:1027300022F070060A6832435A600D4B02689A42D2
:1027400008D0B2F1804F05D00A4B9A4202D00A4B12
:102750009A4204D1496825F080031943916080F8BA
:102760003D40002180F83C10084670BD022070BD3D
:10277000002C0140000400400008004010B5040097
:1027800003D094F83D0010B107E0012010BD0020F7
:1027900084F83C00204600F01FF8022084F83D0039
:1027A000211D206800F054FD012084F8460084F8C3
:1027B0003E0084F83F0084F8400084F8410084F82B
:1027C000420084F8430084F8440084F8450084F80B
:1027D0003D00002010BD000008B50068B0F1804F3A
:1027E00012D10A48C16941F00101C161C0690022EA
:1027F00000F00100009004211C20FFF7D7FCBDE889
:1028000008401C20FFF7C4BC08BD000000100240B7
:1028100090F83D10012901D001207047022180F875
:102820003D100168CA6842F00102CA6000680B49A5
:10283000884208D0B0F1804F05D00949884202D0C3
:102840000849884204D1816801F00701062903D0B4
:10285000016841F00101016000207047002C014037
:10286000000400400008004070B5044690F83C00A9
:10287000012817D0012584F83C50022084F83D003F
:102880002068826822F0770222F47F428260086822
:10289000502830D00DDC20284DD005DC98B310280E
:1028A0003BD148E0022070BD302844D0402834D1CC
:1028B00039E0602828D0702806D0B0F5805F2CD091
:1028C000B0F5005F29D10AE0CB68D1E90121206889
:1028D00000F0F4FC2068816841F0770109E0CB68E2
:1028E000D1E90121206800F0E9FC2068816841F409
:1028F0008041816011E0CA684968206800F0F0FCFE
:102900005021206807E016E0CA684968206800F096
:10291000F8FC6021206800F0DBFC84F83D500020CA
:1029200084F83C0070BDCA684968206800F0D8FC93
:1029300040212068EFE7226801461046EBE7704728
:1029400070B50446006801694FF00005C943890766
:1029500015D4C168C943890711D4E91E016101205A
:102960002077206880698007204602D0FFF7E7FFC4
:1029700004E000F098F8204600F096F825772068EB
:102980000169C943490717D4C168C943490713D42A
:102990006FF004010161022020772068806910F443
:1029A000407F204602D0FFF7CAFF04E000F07BF82A
:1029B000204600F079F8257720680169C9430907A6
:1029C00016D4C168C943090712D46FF00801016128
:1029D000042020772068C0698007204602D0FFF7D6
:1029E000AEFF04E000F05FF8204600F05DF82577C8
:1029F00020680169C943C90617D4C168C943C9061B
:102A000013D46FF010010161082020772068C0699D
:102A100010F4407F204602D0FFF791FF04E000F061
:102A200042F8204600F040F8257720680169C94344
:102A3000C90708D1C168C943C90704D1891E01610A
:102A4000204600F033F820680169C943090609D41B
:102A5000C168C943090605D46FF0800101612046B1
:102A6000FFF756FE20680169C943490609D4C168C9
:102A7000C943490605D46FF040010161204600F0CA
:102A80008BF820680169C94389060BD4C168C94322
:102A9000890607D46FF0200101612046BDE870402F
:102AA000FFF737BE70BD70477047000038B52E483D
:102AB000FEF7ECFD2C4C2DA1A07D0090637D227DC6
:102AC00004F12C00FDF792FB0022114604F12000D6
:102AD000FEF738FD04F12C01A1F10C00FEF74FFDCB
:102AE0002046FEF78DFD607E00F018FBA07E009072
:102AF00004F13C03E27D21A1A3F11000FDF776FB78
:102B00000122002104F12000FEF71CFD04F12C013C
:102B1000A1F10C00FEF733FD2046FEF790FD1B4CA3
:102B200000220A21606010482030FEF70BFD60682B
:102B300000F0E2FE02460C480B4615A12C30FDF7D2
:102B400055FB09492C31A1F10C00FEF718FD064890
:102B5000DF212030FEF710FDBDE838400248432158
:102B60002030FEF709BD0000180000202530326437
:102B70003A253032643A2530326400002530326420
:102B80002C25732C323025303264000000000020E8
:102B9000252E3166000000007047FEE701684A6993
:102BA000D24352050FD46FF480624A61002140F88D
:102BB000301F202242738173026942F004020261D5
:102BC000017301207047002070470000F8B50446EB
:102BD000C06A1E460D461746082807D0012805D0B2
:102BE00010F5803F02D0206B122804D120680168C4
:102BF00041F480710160134600224FF0011120461C
:102C0000009600F029F940B120680068C00502D59F
:102C10004FF4007020640320F8BD2069B0F5804FA8
:102C20000ED00620216800EAD51040F0F0000861BF
:102C300033463A460B49204600F042F978B902E0A3
:102C400005F0FE0000E0E8B221680861054933465E
:102C50003A46891F204600F033F90028DCD00120D5
:102C6000F8BD0000080001002DE9F84F0446006897
:102C700089460B9D01689846174641F480610160C2
:102C80002068016841F48071016000954FF0011BDC
:102C90000022594620460A9B00F0DEF84FF4007AE5
:102CA00040B120680068C00501D5C4F840A00320E9
:102CB000BDE8F88F216809F0FE0008612B4628491D
:102CC00020460A9A00F0FCF8F0BB20684169806950
:102CD00000902A4620460A9900F070F940B1206C15
:102CE00004283AD12068016841F40071016034E0A1
:102CF000FEB2B8F1010F09D02168380A08612A46EE
:102D000020460A9900F05AF90028E8D120680661A7
:102D10002A4620460A9900F051F90028DFD12068A0
:102D2000016841F4807101600095002259462046F7
:102D30000A9B00F091F80028B3D1216809F0FF0048
:102D400040F00100086100E007E02B4604492046FE
:102D50000A9A00F0B5F80028AAD00120A8E70000E0
:102D6000020001002DE9F843044600680D46DDE944
:102D7000089701689846164641F4807101604B46F9
:102D800000224FF001112046009700F065F848B18D
:102D900020680068C00502D54FF40070206403204D
:102DA000BDE8F883216805F0FE0008613B464A460D
:102DB0001549204600F084F888B920684169806987
:102DC00000903A464946204600F0F8F848B1206C99
:102DD000042804D12068016841F4007101600120D9
:102DE000DEE7F5B2B8F1010F09D02168300A0861B9
:102DF0003A464946204600F0E1F80028E7D120682D
:102E000005610020CCE700000200010070B5164605
:102E10000D4604460DE02046FFF7C0FE08B1012034
:102E200070BD681C05D0FEF757FD801BA84207D86F
:102E300035B120684069C0434007ECD4002070BD24
:102E4000002044F8300F20216173A073216941F004
:102E5000200121612073E2E72DE9F0471E469046EC
:102E60000D460446C1F30747DDF8209008E0701CCA
:102E700006D0FEF731FDA0EB0900B0420FD876B1C5
:102E80002068012F18D0806925EA00000004000C9A
:102E900014D000214145EAD00020BDE8F087002091
:102EA00044F8300F20216173A073216941F02001A3
:102EB000216120730120F0E74069E5E70121E9E79E
:102EC0002DE9F0479A4691460E46044600254FF0FC
:102ED0002008C1F3074725E020684069C04340054A
:102EE00014D42068016841F40071016021686FF416
:102EF00080604861256384F83D8084F83E50206CF2
:102F000040F00400206484F83C501FE0B9F1FF3F1A
:102F100008D0FEF7E1FCA0EB0A0149450CD8B9F155
:102F2000000F09D02068012F13D0806926EA000025
:102F30000004000C0BD0CFE744F8305F84F80D801C
:102F4000A573206940F02000206125730120BDE8B1
:102F5000F0874069EAE72DE9F041002590460E46EA
:102F60000446202717E04069C043C0060CD454F83B
:102F7000301B6FF01000486144F810596777A5774F
:102F8000206A2062257717E0FEF7A6FCA0EB080078
:102F9000B04208D83EB120684169C9434906E2D42D
:102FA0000020BDE8F08144F8305F6773A5732069A5
:102FB00040F02000206125730120F2E770B516462D
:102FC0000D4604460DE02046FFF7E8FD08B101205C
:102FD00070BD681C05D0FEF77FFC801BA84207D897
:102FE00035B120684069C0430006ECD4002070BDB4
:102FF000002044F8300F20216173A073216941F053
:10300000200121612073E2E7F0B585B00025284852
:103010000095019502950395816941F01001816148
:10302000816901F010010491816941F0040181611D
:10303000816901F004010491816941F00801816115
:1030400080691C4E00F008004FF4005404900022E8
:1030500021463046FEF73AFC174F00222021384621
:10306000FEF734FC0220CDE90250009401246946A9
:1030700001943046FEF73AFB104D0F20CDE90005D4
:10308000694602940E48FEF731FB1020CDE9000599
:10309000694602943846FEF729FB2020CDE900045A
:1030A0000294694638460394FEF720FB05B0F0BD54
:1030B0000010024000100140000C014000002110EF
:1030C0000008014010B586B0002412480094019415
:1030D0000294039404944FF08041059401604FF4EE
:1030E000FA51C0E9011440F2E731C0E9031480212C
:1030F0008161FFF743FB4FF480500090694605481B
:10310000FFF7B2FB049404A902480594FFF702FB01
:1031100006B010BDB4000020FEE70000012819D061
:10312000022819D0032819D0042819D0052819D04D
:10313000062819D0072819D0082819D0092819D02D
:103140000A2819D00B2819D00C2819D10DA1104824
:10315000FDF74CB80FA1FAE710A1F8E712A1F6E7C6
:1031600013A1F4E714A1F2E714A1F0E715A1EEE72B
:1031700016A1ECE717A1EAE719A1E8E71AA1E6E72B
:1031800070470000446563656D6265720000000071
:10319000540000204A616E75617279004665626E66
:1031A00075617279000000004D6172636800000073
:1031B000417072696C0000004D6179004A756E655E
:1031C000000000004A756C790000000041756775C9
:1031D0007374000053657074656D62657200000061
:1031E0004F63746F626572004E6F76656D626572D3
:1031F00000000000FEE770477047FEF771BF10B592
:1032000090B028216846FDF72DF914210AA8FDF792
:1032100029F902200090012004901020002405903C
:1032200007946846FFF7D0F80F20CDE90A040C9404
:103230000D9400210AA80E94FEF7EAFF10B010BD0D
:10324000704700000148FFF77BBB0000B40000207E
:10325000F0B50268164B174C174D4FF08047984257
:1032600005D0B84203D0A04201D0A84203D122F039
:1032700070064A683243984205D0B84203D0A04253
:1032800001D0A84203D122F44074CA6822434C6999
:1032900022F08002224302608A68C2620A68826267
:1032A000984201D10969016301214161F0BD00002B
:1032B000002C0140000400400008004010B5846864
:1032C00042EA032224F47F440A432243826010BD71
:1032D000826822F070020A4342F007018160704761
:1032E00010B5036A046A24F001040462846924F0BE
:1032F000F00444EA021423F00A020A4384610262E1
:1033000010BD10B5036A23F0100303628369046AD9
:1033100023F4704343EA023224F0A00343EA01118C
:103320008261016210BDFEE7490050EAC12018BF6A
:1033300004204A0D18BF40F0010040F2FF72B2EBCA
:10334000515F08BF40F00200012808BF0520704708
:103350000907090E002804DB00F1E02080F80014C2
:10336000704700F00F0000F1E02080F8141D704756
:1033700030380A2801D2012070470020704770B50C
:1033800086B0044600208DF80C008DF81000012650
:1033900003A8CDE900066425029533460F22D0210B
:1033A0002068FEF7AFFC9DF80C00400716D404A877
:1033B000CDE90006029501230E22D0212068FEF7F8
:1033C000A1FC9DF81000029540F02000CDE9000618
:1033D00001230E22D0212068FEF7BCFD06B070BD8F
:1033E00008B5FEF785FEFFF70AFFFFF70DFEFFF7B2
:1033F00069FE194817494FF480420160174941603E
:1034000000218160C0E9031241618161C1610162F3
:10341000FEF768FA124D0024A1B2642301220E487F
:10342000FEF724FB00B92C70641CFF2CF4DB0A4966
:10343000A1F14800FEF745F902200749009010234A
:103440004E22A1F12800FEF71AF803485430FFF786
:10345000DFF9FEE70054004060000020A086010074
:103460000000002010B500290AD00878002807D0F5
:1034700005487844FDF7EAFB002801D0002010BD84
:103480000248784410BD0000460700003E070000D7
:1034900021F00042A2F16052B2F5801F01F000431A
:1034A00028BFD2F17F6C0BD95FEA001C43EAC2024D
:1034B00042EB507018BF704728BF20F001007047E2
:1034C000B2F5801FBCBF184670474FEA410C1CF58F
:1034D000001F02D2084600F080BA70B500F0CDF8A7
:1034E00000000089FFF7F6BF4FF00040A0F5800014
:1034F0007047000010B591EA030F48BF83F0004306
:1035000000F11881841A71EB030C05D2121943EBF8
:103510000C03001B61EB0C01DFF824E14FEA1154AE
:10352000A4EB135C1EEA430F18BF9EEA445F73D0FE
:1035300023EA0E03DCF1200E21EA045143F4801348
:1035400032D322FA0CFE10EB0E0023FA0CFE41EBF4
:103550000E01CCF1200E03FA0EFE10EB0E0051F11D
:103560000001B1F5801FCCF1200E32D201EB0451E5
:1035700012FA0EF2BDE8104058BF7047401C38BF29
:103580005FEA420218BF7047002814BF20F0010014
:1035900041F100014FEA410313F5001F38BF7047A6
:1035A000A1F1C04100F0B7B8012A43EB0302ACF12E
:1035B000200CDCF11F0E32BF4FF0000E23FA0CF38B
:1035C00010EB030041EB0451B4EB115FD0D0A1EB41
:1035D000045101F5801149085FEA300001EB045104
:1035E0000ED350F1000038BF12FA0EFE08D1BDE82C
:1035F0001040C9E7401C38BF5FEA4202CAD1C3E7A6
:10360000BDE810404FEA410313F5001F38BF704773
:10361000A1F1C04100F07FB89EEA445F08D011EAF2
:103620005E0FBDE8104004BF01F00041002070476C
:10363000BDE8104070B500F020F800BF64FBBE3E4E
:103640000000E0FF02494FF0000000F0CDB900BFDC
:103650000000F87FB0FA80F310FA03F10AD0C3F14A
:103660001D0303F580634FEA41504FEA035202EB1A
:10367000D12170474FF0000070470EF1020E2EF07E
:10368000030E5EF8046B364205D4012A43EB0305B2
:1036900015F5001F12D8012841EB010C1CF5001F85
:1036A0000CD80ED14FEAD17C15F5001F0CEB4C0C59
:1036B0000CF1020C08BF4CEBD37C04E04FF0080C7B
:1036C00001E04FEAD37C0CEB4C0526FA05F606F038
:1036D0000706B6F1040C06D20EEB860CBDE870406E
:1036E0004CF0010C6047DFE80CF0090B02024FF0D0
:1036F00000414FF00000A1F5002170BD19461046B1
:10370000012851EB010418BFD4F5001484BF002038
:1037100001F0004170BD0808A0F500114FEA310129
:103720007047000010B591EA030F48BF83F00043D3
:103730003FF5E8AE841A71EB030C07D212198CF036
:10374000004C43EB0C03001B61EB0C01DFF8A4E120
:103750004FEA1154A4EB135C1EEA430F18BF9EEA14
:10376000445F00F0B08023EA6E03524221EA045124
:10377000C3EB6E0338BF5B1EDCF1200E25D322FAAB
:103780000CFE10EB0E0043FA0CFE41EB0E01CCF1E7
:10379000200E03FA0EFE10EB0E0051F10001CCF1E9
:1037A000200E29D412FA0EF201EB0451BDE81040AC
:1037B00058BF7047401C1CBFB2F1004F7047002833
:1037C0000CBF491C20F00100704712EB020E43EBC6
:1037D000030218BF4FF0010E4EEA4202ACF1200C7A
:1037E000DCF11E0E54D943FA0CFE10EB0E0051F121
:1037F000FF31CCF11E0ED5D50EF1010E12FA0EFEE0
:10380000404141EB010101EB445C5FEA5C5C10D993
:1038100010EBDE7001EB045138BFBEF1004FBDE884
:10382000104018BF704700280CBF491C20F0010051
:10383000704730D24FEAD42C11F5001124F4006403
:103840001BD0B1FA81F20B3AA41AA41ED2F12003C4
:10385000914030FA03F31943904001EBCC71002CF6
:1038600001EB0451BDE81040A8BF704701F1C04111
:103870004FF0000001F000417047B0FA80F310FAF9
:1038800003F100D110BDE41A173C4805C90AE4E76A
:1038900001EB045110BD491001EB0451BDE810408B
:1038A0004FEA300002E04FF0000170474A0008BFC5
:1038B0000042F8D0B2F5001F28BF704701F0004168
:1038C0004FF0000070479EEA445F07D011EA5E0F98
:1038D000BDE8104004BF002100207047BDE8104043
:1038E00070B5FFF7CAFE00BF40DFF63E83F000412F
:1038F000104670470000E0FF43004FEAD30C4FEA48
:103900003C0C43401FBF40070CF1605113F0FE4FC9
:1039100070471CF0006F03D100200CF0004170478D
:103920000CF0004343EA507010B540EACC0000F0C0
:103930000EF800BF000000924FEA0001FFF7EBBE57
:103940004FF000414FF00000A1F5002170470EF14B
:10395000020E2EF0030E5EF8044B244204D44FEA0C
:103960004102B2F17F4F11D84FEA4003B3F17F4FCC
:103970000CD80ED14FEAD07CB2F17F4F0CEB4C0C3F
:103980000CF1020C08BF4CEBD17C04E04FF0080CAA
:1039900001E04FEAD17C0CEB4C0324FA03F404F071
:1039A0000704B4F1040C06D20EEB840CBDE8104001
:1039B0004CF0010C6047DFE80CF0070802024FF002
:1039C0000040A0F5800010BD0846420018BFD2F1AB
:1039D000807288BF00F0004010BDFF2141EAD05046
:1039E000C0057047FCF79ABE0CF00F03092B08BF07
:1039F000082000F059800A2B0BD0082B18BF704705
:103A000008BF1CF0400F0AD04FF000004FF000013B
:103A100070471CF0400F18BF4FF0004070471CF07B
:103A2000100F08D020F0704300F07F4242EAD3012B
:103A30004FEA4370704700F0604021F07F4242EA55
:103A4000000201F07F4040EA727070474FF0FF0CB7
:103A50004CF4E06C1CEA11531CBF9CEA030C944527
:103A6000C2BFDA4201EB02517047002B0DD0BCF10E
:103A7000000F0FD0002A01F00041A4BF41F0E04147
:103A800041F07F614FF00000704701F000414FF0BE
:103A90000000704750EA01334FF09B0C18BF4CF008
:103AA000806C7FF4CFAD70471CF4801F11D01CF4E4
:103AB000E02F03D06FEACC31490070474FF04050FF
:103AC000EFF3008222F0704242EA000282F30088A3
:103AD00070474FF000007047000000000000000039
:103AE00001020304060708090000000001020304A4
:103AF00004000008000000000000000200010000B7
:103B00001000000002400000000000A000000000C3
:103B100005400000000000C8000000000C4000004C
:103B20000000409C00000000194000000020BCBEC6
:103B30000000000034400000BFC91B8E00000004DC
:103B4000B5400000504BCFD06607E2CF0100000027
:103B50006C4100003E8251AADFEEA7340100000054
:103B6000D9420000DCB5A0E23A301F97FFFFFFFF0B
:103B7000B4450000FD25A0C8E9A3C14FFFFFFFFF2A
:103B8000FF3F00000000008000000000FF3F000039
:103B90000000008000000000D43B0008000000206E
:103BA0001800000028010008EC3B00081800002065
:103BB00048070000440100081C000000430000000A
:103BC000F8FFFFFF0C0000000E0000000F000000D7
:103BD0002E000000000000000000000001000000B6
:0C3BE00010000000000000000024F400B1
:04000005080000ED02
:00000001FF
